{
  "contractName": "SupplyChain",
  "abi": [
    {
      "inputs": [],
      "stateMutability": "nonpayable",
      "type": "constructor"
    },
    {
      "inputs": [],
      "name": "Creator",
      "outputs": [
        {
          "internalType": "address",
          "name": "",
          "type": "address"
        }
      ],
      "stateMutability": "view",
      "type": "function"
    },
    {
      "inputs": [
        {
          "internalType": "uint256",
          "name": "",
          "type": "uint256"
        }
      ],
      "name": "ItemsHalalStatus",
      "outputs": [
        {
          "internalType": "enum SupplyChain.HALALSTATUS",
          "name": "",
          "type": "uint8"
        }
      ],
      "stateMutability": "view",
      "type": "function"
    },
    {
      "inputs": [
        {
          "internalType": "uint256",
          "name": "",
          "type": "uint256"
        }
      ],
      "name": "ItemsInfo",
      "outputs": [
        {
          "internalType": "uint256",
          "name": "id",
          "type": "uint256"
        },
        {
          "internalType": "string",
          "name": "name",
          "type": "string"
        },
        {
          "internalType": "string",
          "name": "origin",
          "type": "string"
        },
        {
          "internalType": "string",
          "name": "nutritionInfo",
          "type": "string"
        },
        {
          "internalType": "uint256",
          "name": "farmerId",
          "type": "uint256"
        },
        {
          "internalType": "uint256",
          "name": "mardiId",
          "type": "uint256"
        },
        {
          "internalType": "uint256",
          "name": "slaughterhouseId",
          "type": "uint256"
        },
        {
          "internalType": "uint256",
          "name": "verifierId",
          "type": "uint256"
        },
        {
          "internalType": "uint256",
          "name": "manufacturerId",
          "type": "uint256"
        },
        {
          "internalType": "uint256",
          "name": "distributorId",
          "type": "uint256"
        },
        {
          "internalType": "uint256",
          "name": "retailerId",
          "type": "uint256"
        },
        {
          "internalType": "enum SupplyChain.PHASE",
          "name": "chronology",
          "type": "uint8"
        }
      ],
      "stateMutability": "view",
      "type": "function"
    },
    {
      "inputs": [
        {
          "internalType": "uint256",
          "name": "",
          "type": "uint256"
        }
      ],
      "name": "ItemsMardiComplied",
      "outputs": [
        {
          "internalType": "enum SupplyChain.MARDI",
          "name": "",
          "type": "uint8"
        }
      ],
      "stateMutability": "view",
      "type": "function"
    },
    {
      "inputs": [
        {
          "internalType": "uint256",
          "name": "",
          "type": "uint256"
        }
      ],
      "name": "ItemsSlaughter",
      "outputs": [
        {
          "internalType": "enum SupplyChain.SLAUGHTER",
          "name": "",
          "type": "uint8"
        }
      ],
      "stateMutability": "view",
      "type": "function"
    },
    {
      "inputs": [],
      "name": "distributorCount",
      "outputs": [
        {
          "internalType": "uint256",
          "name": "",
          "type": "uint256"
        }
      ],
      "stateMutability": "view",
      "type": "function"
    },
    {
      "inputs": [
        {
          "internalType": "uint256",
          "name": "",
          "type": "uint256"
        }
      ],
      "name": "distributorInfo",
      "outputs": [
        {
          "internalType": "address",
          "name": "addr",
          "type": "address"
        },
        {
          "internalType": "uint256",
          "name": "id",
          "type": "uint256"
        },
        {
          "internalType": "string",
          "name": "name",
          "type": "string"
        },
        {
          "internalType": "string",
          "name": "location",
          "type": "string"
        }
      ],
      "stateMutability": "view",
      "type": "function"
    },
    {
      "inputs": [],
      "name": "farmerCount",
      "outputs": [
        {
          "internalType": "uint256",
          "name": "",
          "type": "uint256"
        }
      ],
      "stateMutability": "view",
      "type": "function"
    },
    {
      "inputs": [
        {
          "internalType": "uint256",
          "name": "",
          "type": "uint256"
        }
      ],
      "name": "farmerInfo",
      "outputs": [
        {
          "internalType": "address",
          "name": "addr",
          "type": "address"
        },
        {
          "internalType": "uint256",
          "name": "id",
          "type": "uint256"
        },
        {
          "internalType": "string",
          "name": "name",
          "type": "string"
        },
        {
          "internalType": "string",
          "name": "location",
          "type": "string"
        }
      ],
      "stateMutability": "view",
      "type": "function"
    },
    {
      "inputs": [],
      "name": "itemsCount",
      "outputs": [
        {
          "internalType": "uint256",
          "name": "",
          "type": "uint256"
        }
      ],
      "stateMutability": "view",
      "type": "function"
    },
    {
      "inputs": [],
      "name": "manufacturerCount",
      "outputs": [
        {
          "internalType": "uint256",
          "name": "",
          "type": "uint256"
        }
      ],
      "stateMutability": "view",
      "type": "function"
    },
    {
      "inputs": [
        {
          "internalType": "uint256",
          "name": "",
          "type": "uint256"
        }
      ],
      "name": "manufacturerInfo",
      "outputs": [
        {
          "internalType": "address",
          "name": "addr",
          "type": "address"
        },
        {
          "internalType": "uint256",
          "name": "id",
          "type": "uint256"
        },
        {
          "internalType": "string",
          "name": "name",
          "type": "string"
        },
        {
          "internalType": "string",
          "name": "location",
          "type": "string"
        }
      ],
      "stateMutability": "view",
      "type": "function"
    },
    {
      "inputs": [],
      "name": "mardiCount",
      "outputs": [
        {
          "internalType": "uint256",
          "name": "",
          "type": "uint256"
        }
      ],
      "stateMutability": "view",
      "type": "function"
    },
    {
      "inputs": [
        {
          "internalType": "uint256",
          "name": "",
          "type": "uint256"
        }
      ],
      "name": "mardiInfo",
      "outputs": [
        {
          "internalType": "address",
          "name": "addr",
          "type": "address"
        },
        {
          "internalType": "uint256",
          "name": "id",
          "type": "uint256"
        },
        {
          "internalType": "string",
          "name": "name",
          "type": "string"
        },
        {
          "internalType": "string",
          "name": "location",
          "type": "string"
        }
      ],
      "stateMutability": "view",
      "type": "function"
    },
    {
      "inputs": [],
      "name": "retailerCount",
      "outputs": [
        {
          "internalType": "uint256",
          "name": "",
          "type": "uint256"
        }
      ],
      "stateMutability": "view",
      "type": "function"
    },
    {
      "inputs": [
        {
          "internalType": "uint256",
          "name": "",
          "type": "uint256"
        }
      ],
      "name": "retailerInfo",
      "outputs": [
        {
          "internalType": "address",
          "name": "addr",
          "type": "address"
        },
        {
          "internalType": "uint256",
          "name": "id",
          "type": "uint256"
        },
        {
          "internalType": "string",
          "name": "name",
          "type": "string"
        },
        {
          "internalType": "string",
          "name": "location",
          "type": "string"
        }
      ],
      "stateMutability": "view",
      "type": "function"
    },
    {
      "inputs": [],
      "name": "slaughterhouseCount",
      "outputs": [
        {
          "internalType": "uint256",
          "name": "",
          "type": "uint256"
        }
      ],
      "stateMutability": "view",
      "type": "function"
    },
    {
      "inputs": [
        {
          "internalType": "uint256",
          "name": "",
          "type": "uint256"
        }
      ],
      "name": "slaughterhouseInfo",
      "outputs": [
        {
          "internalType": "address",
          "name": "addr",
          "type": "address"
        },
        {
          "internalType": "uint256",
          "name": "id",
          "type": "uint256"
        },
        {
          "internalType": "string",
          "name": "name",
          "type": "string"
        },
        {
          "internalType": "string",
          "name": "location",
          "type": "string"
        }
      ],
      "stateMutability": "view",
      "type": "function"
    },
    {
      "inputs": [],
      "name": "verifierCount",
      "outputs": [
        {
          "internalType": "uint256",
          "name": "",
          "type": "uint256"
        }
      ],
      "stateMutability": "view",
      "type": "function"
    },
    {
      "inputs": [
        {
          "internalType": "uint256",
          "name": "",
          "type": "uint256"
        }
      ],
      "name": "verifierInfo",
      "outputs": [
        {
          "internalType": "address",
          "name": "addr",
          "type": "address"
        },
        {
          "internalType": "uint256",
          "name": "id",
          "type": "uint256"
        },
        {
          "internalType": "string",
          "name": "name",
          "type": "string"
        },
        {
          "internalType": "string",
          "name": "location",
          "type": "string"
        }
      ],
      "stateMutability": "view",
      "type": "function"
    },
    {
      "inputs": [
        {
          "internalType": "uint256",
          "name": "_itemID",
          "type": "uint256"
        }
      ],
      "name": "Chronology",
      "outputs": [
        {
          "internalType": "string",
          "name": "",
          "type": "string"
        }
      ],
      "stateMutability": "view",
      "type": "function"
    },
    {
      "inputs": [
        {
          "internalType": "address",
          "name": "_address",
          "type": "address"
        },
        {
          "internalType": "string",
          "name": "_name",
          "type": "string"
        },
        {
          "internalType": "string",
          "name": "_location",
          "type": "string"
        }
      ],
      "name": "regFarmer",
      "outputs": [],
      "stateMutability": "nonpayable",
      "type": "function"
    },
    {
      "inputs": [
        {
          "internalType": "address",
          "name": "_address",
          "type": "address"
        },
        {
          "internalType": "string",
          "name": "_name",
          "type": "string"
        },
        {
          "internalType": "string",
          "name": "_location",
          "type": "string"
        }
      ],
      "name": "regMardi",
      "outputs": [],
      "stateMutability": "nonpayable",
      "type": "function"
    },
    {
      "inputs": [
        {
          "internalType": "address",
          "name": "_address",
          "type": "address"
        },
        {
          "internalType": "string",
          "name": "_name",
          "type": "string"
        },
        {
          "internalType": "string",
          "name": "_location",
          "type": "string"
        }
      ],
      "name": "regSlaughterhouse",
      "outputs": [],
      "stateMutability": "nonpayable",
      "type": "function"
    },
    {
      "inputs": [
        {
          "internalType": "address",
          "name": "_address",
          "type": "address"
        },
        {
          "internalType": "string",
          "name": "_name",
          "type": "string"
        },
        {
          "internalType": "string",
          "name": "_location",
          "type": "string"
        }
      ],
      "name": "regVerifier",
      "outputs": [],
      "stateMutability": "nonpayable",
      "type": "function"
    },
    {
      "inputs": [
        {
          "internalType": "address",
          "name": "_address",
          "type": "address"
        },
        {
          "internalType": "string",
          "name": "_name",
          "type": "string"
        },
        {
          "internalType": "string",
          "name": "_location",
          "type": "string"
        }
      ],
      "name": "regManufacturer",
      "outputs": [],
      "stateMutability": "nonpayable",
      "type": "function"
    },
    {
      "inputs": [
        {
          "internalType": "address",
          "name": "_address",
          "type": "address"
        },
        {
          "internalType": "string",
          "name": "_name",
          "type": "string"
        },
        {
          "internalType": "string",
          "name": "_location",
          "type": "string"
        }
      ],
      "name": "regDistributor",
      "outputs": [],
      "stateMutability": "nonpayable",
      "type": "function"
    },
    {
      "inputs": [
        {
          "internalType": "address",
          "name": "_address",
          "type": "address"
        },
        {
          "internalType": "string",
          "name": "_name",
          "type": "string"
        },
        {
          "internalType": "string",
          "name": "_location",
          "type": "string"
        }
      ],
      "name": "regRetailer",
      "outputs": [],
      "stateMutability": "nonpayable",
      "type": "function"
    },
    {
      "inputs": [
        {
          "internalType": "string",
          "name": "_name",
          "type": "string"
        },
        {
          "internalType": "string",
          "name": "_origin",
          "type": "string"
        },
        {
          "internalType": "string",
          "name": "_nutritionInfo",
          "type": "string"
        }
      ],
      "name": "orderItems",
      "outputs": [],
      "stateMutability": "nonpayable",
      "type": "function"
    },
    {
      "inputs": [
        {
          "internalType": "uint256",
          "name": "_itemID",
          "type": "uint256"
        }
      ],
      "name": "Farmering",
      "outputs": [],
      "stateMutability": "nonpayable",
      "type": "function"
    },
    {
      "inputs": [
        {
          "internalType": "uint256",
          "name": "_itemID",
          "type": "uint256"
        }
      ],
      "name": "Marding",
      "outputs": [],
      "stateMutability": "nonpayable",
      "type": "function"
    },
    {
      "inputs": [
        {
          "internalType": "uint256",
          "name": "_itemID",
          "type": "uint256"
        }
      ],
      "name": "Slaughtering",
      "outputs": [],
      "stateMutability": "nonpayable",
      "type": "function"
    },
    {
      "inputs": [
        {
          "internalType": "uint256",
          "name": "_itemID",
          "type": "uint256"
        }
      ],
      "name": "Verifying",
      "outputs": [],
      "stateMutability": "nonpayable",
      "type": "function"
    },
    {
      "inputs": [
        {
          "internalType": "uint256",
          "name": "_itemID",
          "type": "uint256"
        }
      ],
      "name": "Manufacturing",
      "outputs": [],
      "stateMutability": "nonpayable",
      "type": "function"
    },
    {
      "inputs": [
        {
          "internalType": "uint256",
          "name": "_itemID",
          "type": "uint256"
        }
      ],
      "name": "Distributing",
      "outputs": [],
      "stateMutability": "nonpayable",
      "type": "function"
    },
    {
      "inputs": [
        {
          "internalType": "uint256",
          "name": "_itemID",
          "type": "uint256"
        }
      ],
      "name": "Retailing",
      "outputs": [],
      "stateMutability": "nonpayable",
      "type": "function"
    },
    {
      "inputs": [
        {
          "internalType": "uint256",
          "name": "_itemID",
          "type": "uint256"
        }
      ],
      "name": "sold",
      "outputs": [],
      "stateMutability": "nonpayable",
      "type": "function"
    },
    {
      "inputs": [
        {
          "internalType": "uint256",
          "name": "_itemID",
          "type": "uint256"
        }
      ],
      "name": "info",
      "outputs": [
        {
          "internalType": "uint256",
          "name": "id",
          "type": "uint256"
        },
        {
          "internalType": "string",
          "name": "name",
          "type": "string"
        },
        {
          "internalType": "string",
          "name": "origin",
          "type": "string"
        },
        {
          "internalType": "string",
          "name": "nutritionInfo",
          "type": "string"
        },
        {
          "internalType": "uint256",
          "name": "farmerId",
          "type": "uint256"
        },
        {
          "internalType": "uint256",
          "name": "mardiId",
          "type": "uint256"
        },
        {
          "internalType": "uint256",
          "name": "slaughterhouseId",
          "type": "uint256"
        },
        {
          "internalType": "uint256",
          "name": "verifierId",
          "type": "uint256"
        },
        {
          "internalType": "uint256",
          "name": "manufacturerId",
          "type": "uint256"
        },
        {
          "internalType": "uint256",
          "name": "distributorId",
          "type": "uint256"
        },
        {
          "internalType": "uint256",
          "name": "retailerId",
          "type": "uint256"
        },
        {
          "internalType": "enum SupplyChain.PHASE",
          "name": "chronology",
          "type": "uint8"
        }
      ],
      "stateMutability": "view",
      "type": "function"
    },
    {
      "inputs": [
        {
          "internalType": "uint256",
          "name": "_itemID",
          "type": "uint256"
        }
      ],
      "name": "HalalStatus",
      "outputs": [
        {
          "internalType": "string",
          "name": "",
          "type": "string"
        }
      ],
      "stateMutability": "view",
      "type": "function"
    },
    {
      "inputs": [
        {
          "internalType": "uint256",
          "name": "_itemID",
          "type": "uint256"
        },
        {
          "internalType": "bool",
          "name": "_RawMaterialsHalalCompliant",
          "type": "bool"
        },
        {
          "internalType": "bool",
          "name": "_SupplierHasHalalCertification",
          "type": "bool"
        },
        {
          "internalType": "bool",
          "name": "_EquipmentFreeFromContamination",
          "type": "bool"
        },
        {
          "internalType": "bool",
          "name": "_CorrectSlaughteringMethods",
          "type": "bool"
        },
        {
          "internalType": "bool",
          "name": "_LabelingAndPackagingMeetsHalalStandards",
          "type": "bool"
        },
        {
          "internalType": "bool",
          "name": "_StaffProperlyTrainedInHalalProcedures",
          "type": "bool"
        }
      ],
      "name": "verifyTickChecklistItem",
      "outputs": [],
      "stateMutability": "nonpayable",
      "type": "function"
    },
    {
      "inputs": [
        {
          "internalType": "uint256",
          "name": "_itemID",
          "type": "uint256"
        }
      ],
      "name": "SlaughterStatus",
      "outputs": [
        {
          "internalType": "string",
          "name": "",
          "type": "string"
        }
      ],
      "stateMutability": "view",
      "type": "function"
    },
    {
      "inputs": [
        {
          "internalType": "uint256",
          "name": "_itemID",
          "type": "uint256"
        },
        {
          "internalType": "bool",
          "name": "_isPracticingMuslim",
          "type": "bool"
        },
        {
          "internalType": "bool",
          "name": "_isInvocationCorrect",
          "type": "bool"
        },
        {
          "internalType": "bool",
          "name": "_isCorrectSlaughterMethod",
          "type": "bool"
        },
        {
          "internalType": "bool",
          "name": "_isBloodDrained",
          "type": "bool"
        },
        {
          "internalType": "bool",
          "name": "_isPreventionOfContamination",
          "type": "bool"
        }
      ],
      "name": "slaughterTickChecklistItem",
      "outputs": [],
      "stateMutability": "nonpayable",
      "type": "function"
    },
    {
      "inputs": [
        {
          "internalType": "uint256",
          "name": "_itemID",
          "type": "uint256"
        }
      ],
      "name": "MardiStatus",
      "outputs": [
        {
          "internalType": "string",
          "name": "",
          "type": "string"
        }
      ],
      "stateMutability": "view",
      "type": "function"
    },
    {
      "inputs": [
        {
          "internalType": "uint256",
          "name": "_itemID",
          "type": "uint256"
        },
        {
          "internalType": "bool",
          "name": "_AnimalHealthScreening",
          "type": "bool"
        },
        {
          "internalType": "bool",
          "name": "_EquipmentSanitization",
          "type": "bool"
        },
        {
          "internalType": "bool",
          "name": "_MeatInspection",
          "type": "bool"
        },
        {
          "internalType": "bool",
          "name": "_DocumentationAndRecord",
          "type": "bool"
        }
      ],
      "name": "mardiTickChecklistItem",
      "outputs": [],
      "stateMutability": "nonpayable",
      "type": "function"
    },
    {
      "inputs": [
        {
          "internalType": "uint256",
          "name": "_itemID",
          "type": "uint256"
        }
      ],
      "name": "itemName",
      "outputs": [
        {
          "internalType": "uint256",
          "name": "id",
          "type": "uint256"
        },
        {
          "internalType": "string",
          "name": "name",
          "type": "string"
        }
      ],
      "stateMutability": "view",
      "type": "function"
    },
    {
      "inputs": [
        {
          "internalType": "uint256",
          "name": "_itemID",
          "type": "uint256"
        }
      ],
      "name": "itemOrigin",
      "outputs": [
        {
          "internalType": "uint256",
          "name": "id",
          "type": "uint256"
        },
        {
          "internalType": "string",
          "name": "origin",
          "type": "string"
        }
      ],
      "stateMutability": "view",
      "type": "function"
    },
    {
      "inputs": [
        {
          "internalType": "uint256",
          "name": "_itemID",
          "type": "uint256"
        }
      ],
      "name": "itemNutrition",
      "outputs": [
        {
          "internalType": "uint256",
          "name": "id",
          "type": "uint256"
        },
        {
          "internalType": "string",
          "name": "nutritionInfo",
          "type": "string"
        }
      ],
      "stateMutability": "view",
      "type": "function"
    },
    {
      "inputs": [
        {
          "internalType": "uint256",
          "name": "_itemID",
          "type": "uint256"
        }
      ],
      "name": "itemPhase",
      "outputs": [
        {
          "internalType": "uint256",
          "name": "id",
          "type": "uint256"
        },
        {
          "internalType": "enum SupplyChain.PHASE",
          "name": "chronology",
          "type": "uint8"
        }
      ],
      "stateMutability": "view",
      "type": "function"
    },
    {
      "inputs": [
        {
          "internalType": "uint256",
          "name": "_itemID",
          "type": "uint256"
        }
      ],
      "name": "getFarmerName",
      "outputs": [
        {
          "internalType": "string",
          "name": "",
          "type": "string"
        }
      ],
      "stateMutability": "view",
      "type": "function"
    },
    {
      "inputs": [
        {
          "internalType": "uint256",
          "name": "_itemID",
          "type": "uint256"
        }
      ],
      "name": "getFarmerLocation",
      "outputs": [
        {
          "internalType": "string",
          "name": "",
          "type": "string"
        }
      ],
      "stateMutability": "view",
      "type": "function"
    },
    {
      "inputs": [
        {
          "internalType": "uint256",
          "name": "_itemID",
          "type": "uint256"
        }
      ],
      "name": "getMardiName",
      "outputs": [
        {
          "internalType": "string",
          "name": "",
          "type": "string"
        }
      ],
      "stateMutability": "view",
      "type": "function"
    },
    {
      "inputs": [
        {
          "internalType": "uint256",
          "name": "_itemID",
          "type": "uint256"
        }
      ],
      "name": "getMardiLocation",
      "outputs": [
        {
          "internalType": "string",
          "name": "",
          "type": "string"
        }
      ],
      "stateMutability": "view",
      "type": "function"
    },
    {
      "inputs": [
        {
          "internalType": "uint256",
          "name": "_itemID",
          "type": "uint256"
        }
      ],
      "name": "getSlaughterhouseName",
      "outputs": [
        {
          "internalType": "string",
          "name": "",
          "type": "string"
        }
      ],
      "stateMutability": "view",
      "type": "function"
    },
    {
      "inputs": [
        {
          "internalType": "uint256",
          "name": "_itemID",
          "type": "uint256"
        }
      ],
      "name": "getSlaughterhouseLocation",
      "outputs": [
        {
          "internalType": "string",
          "name": "",
          "type": "string"
        }
      ],
      "stateMutability": "view",
      "type": "function"
    },
    {
      "inputs": [
        {
          "internalType": "uint256",
          "name": "_itemID",
          "type": "uint256"
        }
      ],
      "name": "getVerifierName",
      "outputs": [
        {
          "internalType": "string",
          "name": "",
          "type": "string"
        }
      ],
      "stateMutability": "view",
      "type": "function"
    },
    {
      "inputs": [
        {
          "internalType": "uint256",
          "name": "_itemID",
          "type": "uint256"
        }
      ],
      "name": "getVerifierLocation",
      "outputs": [
        {
          "internalType": "string",
          "name": "",
          "type": "string"
        }
      ],
      "stateMutability": "view",
      "type": "function"
    },
    {
      "inputs": [
        {
          "internalType": "uint256",
          "name": "_itemID",
          "type": "uint256"
        }
      ],
      "name": "getManufacturerName",
      "outputs": [
        {
          "internalType": "string",
          "name": "",
          "type": "string"
        }
      ],
      "stateMutability": "view",
      "type": "function"
    },
    {
      "inputs": [
        {
          "internalType": "uint256",
          "name": "_itemID",
          "type": "uint256"
        }
      ],
      "name": "getManufacturerLocation",
      "outputs": [
        {
          "internalType": "string",
          "name": "",
          "type": "string"
        }
      ],
      "stateMutability": "view",
      "type": "function"
    },
    {
      "inputs": [
        {
          "internalType": "uint256",
          "name": "_itemID",
          "type": "uint256"
        }
      ],
      "name": "getDistributorName",
      "outputs": [
        {
          "internalType": "string",
          "name": "",
          "type": "string"
        }
      ],
      "stateMutability": "view",
      "type": "function"
    },
    {
      "inputs": [
        {
          "internalType": "uint256",
          "name": "_itemID",
          "type": "uint256"
        }
      ],
      "name": "getDistributorLocation",
      "outputs": [
        {
          "internalType": "string",
          "name": "",
          "type": "string"
        }
      ],
      "stateMutability": "view",
      "type": "function"
    },
    {
      "inputs": [
        {
          "internalType": "uint256",
          "name": "_itemID",
          "type": "uint256"
        }
      ],
      "name": "getRetailerName",
      "outputs": [
        {
          "internalType": "string",
          "name": "",
          "type": "string"
        }
      ],
      "stateMutability": "view",
      "type": "function"
    },
    {
      "inputs": [
        {
          "internalType": "uint256",
          "name": "_itemID",
          "type": "uint256"
        }
      ],
      "name": "getRetailerLocation",
      "outputs": [
        {
          "internalType": "string",
          "name": "",
          "type": "string"
        }
      ],
      "stateMutability": "view",
      "type": "function"
    }
  ],
  "bytecode": "0x60806040526000600155600060025560006003556000600455600060055560006006556000600755600060085534801561003857600080fd5b50336000806101000a81548173ffffffffffffffffffffffffffffffffffffffff021916908373ffffffffffffffffffffffffffffffffffffffff160217905550615f6a80620000896000396000f3fe608060405234801561001057600080fd5b50600436106103ba5760003560e01c80637b495ec9116101f4578063b50aff6a1161011a578063e42cafa1116100ad578063f23e13e91161007c578063f23e13e914610cfc578063f60ec8a014610d1a578063fb4adf5214610d36578063feaf19df14610d54576103ba565b8063e42cafa114610c61578063ed6b6bcf14610c91578063eedfe43214610cad578063ef364c9c14610ce0576103ba565b8063c5ce360a116100e9578063c5ce360a14610bc4578063cb179b8c14610bf7578063de0ab25e14610c13578063e2c03ace14610c43576103ba565b8063b50aff6a14610b28578063b89cb9aa14610b58578063bd45b39714610b88578063be0c6f1c14610ba6576103ba565b80639d7a7bc611610192578063a724ddbd11610161578063a724ddbd14610aa4578063a792d71714610ac0578063ac718a0414610adc578063ad4ea0fb14610b0c576103ba565b80639d7a7bc6146109f8578063a167598414610a28578063a48d335a14610a58578063a5c8492414610a74576103ba565b806384c44e15116101ce57806384c44e151461095f5780638a1a74d914610990578063933089db146109c05780639c03facb146109dc576103ba565b80637b495ec9146108cc5780637db1365d146108ff578063825a05231461092f576103ba565b80633ac140e8116102e457806347c16a7f116102775780635e62d555116102465780635e62d555146108335780635f97bd211461084f5780636234bde91461087f5780637310dc8a1461089b576103ba565b806347c16a7f146107965780634ffa689c146107b4578063503380f1146107e75780635d41e32214610803576103ba565b8063406d8c5f116102b3578063406d8c5f146106f9578063408fbb2b146107295780634508bd5c1461075c57806347a3377d14610778576103ba565b80633ac140e8146106735780633b3b5b54146106915780633b45a6b9146106ad5780633e131be7146106c9576103ba565b80631b6139301161035c5780632857466f1161032b5780632857466f146105a55780632d5849c6146105d85780632e34059914610608578063393352b914610643576103ba565b80631b613930146104eb5780631e20b49f1461050757806320fd15f41461053757806325b1dc2714610572576103ba565b80631170bec2116103985780631170bec21461045057806316b4260414610481578063185c0c381461049d57806318bee97e146104cd576103ba565b8063028909c4146103bf57806308ca1b3c146103ef578063114ddbd414610420575b600080fd5b6103d960048036038101906103d4919061539f565b610d70565b6040516103e69190615465565b60405180910390f35b6104096004803603810190610404919061539f565b610e34565b604051610417929190615496565b60405180910390f35b61043a6004803603810190610435919061539f565b610f12565b604051610447919061553d565b60405180910390f35b61046a6004803603810190610465919061539f565b610f32565b604051610478929190615496565b60405180910390f35b61049b600480360381019061049691906156eb565b611010565b005b6104b760048036038101906104b2919061539f565b611161565b6040516104c49190615465565b60405180910390f35b6104d56112d7565b6040516104e29190615785565b60405180910390f35b6105056004803603810190610500919061539f565b6112fb565b005b610521600480360381019061051c919061539f565b6113e2565b60405161052e9190615465565b60405180910390f35b610551600480360381019061054c919061539f565b6114a6565b6040516105699c9b9a999897969594939291906157e8565b60405180910390f35b61058c6004803603810190610587919061539f565b6116ab565b60405161059c94939291906158b7565b60405180910390f35b6105bf60048036038101906105ba919061539f565b61180b565b6040516105cf94939291906158b7565b60405180910390f35b6105f260048036038101906105ed919061539f565b61196b565b6040516105ff9190615465565b60405180910390f35b610622600480360381019061061d919061539f565b611a2f565b60405161063a9c9b9a999897969594939291906157e8565b60405180910390f35b61065d6004803603810190610658919061539f565b611d3d565b60405161066a9190615465565b60405180910390f35b61067b611e01565b604051610688919061590a565b60405180910390f35b6106ab60048036038101906106a6919061539f565b611e07565b005b6106c760048036038101906106c291906156eb565b611f8d565b005b6106e360048036038101906106de919061539f565b6120de565b6040516106f09190615465565b60405180910390f35b610713600480360381019061070e919061539f565b612271565b6040516107209190615465565b60405180910390f35b610743600480360381019061073e919061539f565b612335565b60405161075394939291906158b7565b60405180910390f35b6107766004803603810190610771919061539f565b612495565b005b61078061257c565b60405161078d919061590a565b60405180910390f35b61079e612582565b6040516107ab919061590a565b60405180910390f35b6107ce60048036038101906107c9919061539f565b612588565b6040516107de94939291906158b7565b60405180910390f35b61080160048036038101906107fc91906156eb565b6126e8565b005b61081d6004803603810190610818919061539f565b612839565b60405161082a9190615465565b60405180910390f35b61084d6004803603810190610848919061595d565b6128fd565b005b6108696004803603810190610864919061539f565b612a3c565b6040516108769190615a20565b60405180910390f35b610899600480360381019061089491906156eb565b612a5c565b005b6108b560048036038101906108b0919061539f565b612bad565b6040516108c3929190615496565b60405180910390f35b6108e660048036038101906108e1919061539f565b612c8b565b6040516108f694939291906158b7565b60405180910390f35b6109196004803603810190610914919061539f565b612deb565b6040516109269190615465565b60405180910390f35b6109496004803603810190610944919061539f565b612eaf565b6040516109569190615465565b60405180910390f35b6109796004803603810190610974919061539f565b613042565b604051610987929190615a3b565b60405180910390f35b6109aa60048036038101906109a5919061539f565b6130a4565b6040516109b79190615465565b60405180910390f35b6109da60048036038101906109d591906156eb565b613168565b005b6109f660048036038101906109f1919061539f565b6132b9565b005b610a126004803603810190610a0d919061539f565b6133a7565b604051610a1f9190615465565b60405180910390f35b610a426004803603810190610a3d919061539f565b61346b565b604051610a4f9190615465565b60405180910390f35b610a726004803603810190610a6d919061539f565b61352f565b005b610a8e6004803603810190610a89919061539f565b6136b5565b604051610a9b9190615465565b60405180910390f35b610abe6004803603810190610ab991906156eb565b613779565b005b610ada6004803603810190610ad5919061539f565b6138ca565b005b610af66004803603810190610af1919061539f565b6139b1565b604051610b039190615465565b60405180910390f35b610b266004803603810190610b2191906156eb565b613a75565b005b610b426004803603810190610b3d919061539f565b613bc6565b604051610b4f9190615aac565b60405180910390f35b610b726004803603810190610b6d919061539f565b613be6565b604051610b7f9190615465565b60405180910390f35b610b90613caa565b604051610b9d919061590a565b60405180910390f35b610bae613cb0565b604051610bbb919061590a565b60405180910390f35b610bde6004803603810190610bd9919061539f565b613cb6565b604051610bee94939291906158b7565b60405180910390f35b610c116004803603810190610c0c919061539f565b613e16565b005b610c2d6004803603810190610c28919061539f565b613efd565b604051610c3a9190615465565b60405180910390f35b610c4b61436a565b604051610c58919061590a565b60405180910390f35b610c7b6004803603810190610c76919061539f565b614370565b604051610c889190615465565b60405180910390f35b610cab6004803603810190610ca6919061539f565b614434565b005b610cc76004803603810190610cc2919061539f565b6145ba565b604051610cd794939291906158b7565b60405180910390f35b610cfa6004803603810190610cf59190615ac7565b61471a565b005b610d04614a0d565b604051610d11919061590a565b60405180910390f35b610d346004803603810190610d2f9190615b6e565b614a13565b005b610d3e614b98565b604051610d4b919061590a565b60405180910390f35b610d6e6004803603810190610d699190615bfb565b614b9e565b005b60606000600c6000848152602001908152602001600020600701549050601060008281526020019081526020016000206003018054610dae90615ccc565b80601f0160208091040260200160405190810160405280929190818152602001828054610dda90615ccc565b8015610e275780601f10610dfc57610100808354040283529160200191610e27565b820191906000526020600020905b815481529060010190602001808311610e0a57829003601f168201915b5050505050915050919050565b60006060600083118015610e4a57506001548311155b610e5357600080fd5b600c6000848152602001908152602001600020600001549150600c60008481526020019081526020016000206002018054610e8d90615ccc565b80601f0160208091040260200160405190810160405280929190818152602001828054610eb990615ccc565b8015610f065780601f10610edb57610100808354040283529160200191610f06565b820191906000526020600020905b815481529060010190602001808311610ee957829003601f168201915b50505050509050915091565b60096020528060005260406000206000915054906101000a900460ff1681565b60006060600083118015610f4857506001548311155b610f5157600080fd5b600c6000848152602001908152602001600020600001549150600c60008481526020019081526020016000206003018054610f8b90615ccc565b80601f0160208091040260200160405190810160405280929190818152602001828054610fb790615ccc565b80156110045780601f10610fd957610100808354040283529160200191611004565b820191906000526020600020905b815481529060010190602001808311610fe757829003601f168201915b50505050509050915091565b60008054906101000a900473ffffffffffffffffffffffffffffffffffffffff1673ffffffffffffffffffffffffffffffffffffffff163373ffffffffffffffffffffffffffffffffffffffff161461106857600080fd5b6006600081548092919061107b90615d2c565b919050555060405180608001604052808473ffffffffffffffffffffffffffffffffffffffff16815260200160065481526020018381526020018281525060116000600654815260200190815260200160002060008201518160000160006101000a81548173ffffffffffffffffffffffffffffffffffffffff021916908373ffffffffffffffffffffffffffffffffffffffff16021790555060208201518160010155604082015181600201908051906020019061113b9291906152b2565b5060608201518160030190805190602001906111589291906152b2565b50905050505050565b60606000821161117057600080fd5b6000600b600084815260200190815260200160002060009054906101000a900460ff169050600060028111156111a9576111a86154c6565b5b8160028111156111bc576111bb6154c6565b5b036111e257604051806060016040528060228152602001615d75602291399150506112d2565b600160028111156111f6576111f56154c6565b5b816002811115611209576112086154c6565b5b0361124c576040518060400160405280601d81526020017f596f7572204974656d206973205175616c69747920436f6d706c6965640000008152509150506112d2565b60028081111561125f5761125e6154c6565b5b816002811115611272576112716154c6565b5b0361129857604051806060016040528060278152602001615f0e602791399150506112d2565b6040518060400160405280601681526020017f556e6b6e6f776e207175616c69747920737461747573000000000000000000008152509150505b919050565b60008054906101000a900473ffffffffffffffffffffffffffffffffffffffff1681565b600061130633614d48565b905060008211801561131a57506001548211155b61132357600080fd5b6000811161133057600080fd5b60056008811115611344576113436154c6565b5b600c6000848152602001908152602001600020600b0160009054906101000a900460ff16600881111561137a576113796154c6565b5b1461138457600080fd5b80600c6000848152602001908152602001600020600901819055506006600c6000848152602001908152602001600020600b0160006101000a81548160ff021916908360088111156113d9576113d86154c6565b5b02179055505050565b60606000600c600084815260200190815260200160002060090154905060126000828152602001908152602001600020600301805461142090615ccc565b80601f016020809104026020016040519081016040528092919081815260200182805461144c90615ccc565b80156114995780601f1061146e57610100808354040283529160200191611499565b820191906000526020600020905b81548152906001019060200180831161147c57829003601f168201915b5050505050915050919050565b600c6020528060005260406000206000915090508060000154908060010180546114cf90615ccc565b80601f01602080910402602001604051908101604052809291908181526020018280546114fb90615ccc565b80156115485780601f1061151d57610100808354040283529160200191611548565b820191906000526020600020905b81548152906001019060200180831161152b57829003601f168201915b50505050509080600201805461155d90615ccc565b80601f016020809104026020016040519081016040528092919081815260200182805461158990615ccc565b80156115d65780601f106115ab576101008083540402835291602001916115d6565b820191906000526020600020905b8154815290600101906020018083116115b957829003601f168201915b5050505050908060030180546115eb90615ccc565b80601f016020809104026020016040519081016040528092919081815260200182805461161790615ccc565b80156116645780601f1061163957610100808354040283529160200191611664565b820191906000526020600020905b81548152906001019060200180831161164757829003601f168201915b50505050509080600401549080600501549080600601549080600701549080600801549080600901549080600a01549080600b0160009054906101000a900460ff1690508c565b60116020528060005260406000206000915090508060000160009054906101000a900473ffffffffffffffffffffffffffffffffffffffff16908060010154908060020180546116fa90615ccc565b80601f016020809104026020016040519081016040528092919081815260200182805461172690615ccc565b80156117735780601f1061174857610100808354040283529160200191611773565b820191906000526020600020905b81548152906001019060200180831161175657829003601f168201915b50505050509080600301805461178890615ccc565b80601f01602080910402602001604051908101604052809291908181526020018280546117b490615ccc565b80156118015780601f106117d657610100808354040283529160200191611801565b820191906000526020600020905b8154815290600101906020018083116117e457829003601f168201915b5050505050905084565b60106020528060005260406000206000915090508060000160009054906101000a900473ffffffffffffffffffffffffffffffffffffffff169080600101549080600201805461185a90615ccc565b80601f016020809104026020016040519081016040528092919081815260200182805461188690615ccc565b80156118d35780601f106118a8576101008083540402835291602001916118d3565b820191906000526020600020905b8154815290600101906020018083116118b657829003601f168201915b5050505050908060030180546118e890615ccc565b80601f016020809104026020016040519081016040528092919081815260200182805461191490615ccc565b80156119615780601f1061193657610100808354040283529160200191611961565b820191906000526020600020905b81548152906001019060200180831161194457829003601f168201915b5050505050905084565b60606000600c6000848152602001908152602001600020600601549050600f600082815260200190815260200160002060020180546119a990615ccc565b80601f01602080910402602001604051908101604052809291908181526020018280546119d590615ccc565b8015611a225780601f106119f757610100808354040283529160200191611a22565b820191906000526020600020905b815481529060010190602001808311611a0557829003601f168201915b5050505050915050919050565b6000606080606060008060008060008060008060008d118015611a5457506001548d11155b611a5d57600080fd5b600c60008e8152602001908152602001600020600001549b50600c60008e81526020019081526020016000206001018054611a9790615ccc565b80601f0160208091040260200160405190810160405280929190818152602001828054611ac390615ccc565b8015611b105780601f10611ae557610100808354040283529160200191611b10565b820191906000526020600020905b815481529060010190602001808311611af357829003601f168201915b50505050509a50600c60008e81526020019081526020016000206002018054611b3890615ccc565b80601f0160208091040260200160405190810160405280929190818152602001828054611b6490615ccc565b8015611bb15780601f10611b8657610100808354040283529160200191611bb1565b820191906000526020600020905b815481529060010190602001808311611b9457829003601f168201915b50505050509950600c60008e81526020019081526020016000206003018054611bd990615ccc565b80601f0160208091040260200160405190810160405280929190818152602001828054611c0590615ccc565b8015611c525780601f10611c2757610100808354040283529160200191611c52565b820191906000526020600020905b815481529060010190602001808311611c3557829003601f168201915b50505050509850600c60008e8152602001908152602001600020600401549750600c60008e8152602001908152602001600020600501549650600c60008e8152602001908152602001600020600601549550600c60008e8152602001908152602001600020600701549450600c60008e8152602001908152602001600020600801549350600c60008e8152602001908152602001600020600901549250600c60008e8152602001908152602001600020600a01549150600c60008e8152602001908152602001600020600b0160009054906101000a900460ff16905091939597999b5091939597999b565b60606000600c6000848152602001908152602001600020600401549050600d60008281526020019081526020016000206003018054611d7b90615ccc565b80601f0160208091040260200160405190810160405280929190818152602001828054611da790615ccc565b8015611df45780601f10611dc957610100808354040283529160200191611df4565b820191906000526020600020905b815481529060010190602001808311611dd757829003601f168201915b5050505050915050919050565b60075481565b600081118015611e1957506001548111155b611e2257600080fd5b6000611e2d33614e0e565b905060008111611e3c57600080fd5b60016002811115611e5057611e4f6154c6565b5b600b600084815260200190815260200160002060009054906101000a900460ff166002811115611e8357611e826154c6565b5b1480611ed25750600280811115611e9d57611e9c6154c6565b5b600b600084815260200190815260200160002060009054906101000a900460ff166002811115611ed057611ecf6154c6565b5b145b611edb57600080fd5b60026008811115611eef57611eee6154c6565b5b600c6000848152602001908152602001600020600b0160009054906101000a900460ff166008811115611f2557611f246154c6565b5b14611f2f57600080fd5b80600c6000848152602001908152602001600020600601819055506003600c6000848152602001908152602001600020600b0160006101000a81548160ff02191690836008811115611f8457611f836154c6565b5b02179055505050565b60008054906101000a900473ffffffffffffffffffffffffffffffffffffffff1673ffffffffffffffffffffffffffffffffffffffff163373ffffffffffffffffffffffffffffffffffffffff1614611fe557600080fd5b60036000815480929190611ff890615d2c565b919050555060405180608001604052808473ffffffffffffffffffffffffffffffffffffffff168152602001600354815260200183815260200182815250600e6000600354815260200190815260200160002060008201518160000160006101000a81548173ffffffffffffffffffffffffffffffffffffffff021916908373ffffffffffffffffffffffffffffffffffffffff1602179055506020820151816001015560408201518160020190805190602001906120b89291906152b2565b5060608201518160030190805190602001906120d59291906152b2565b50905050505050565b6060600082116120ed57600080fd5b6000600a600084815260200190815260200160002060009054906101000a900460ff16905060006002811115612126576121256154c6565b5b816002811115612139576121386154c6565b5b0361217c576040518060400160405280601e81526020017f596f7572204974656d206973206e6f7420736c6175676874657220796574000081525091505061226c565b600160028111156121905761218f6154c6565b5b8160028111156121a3576121a26154c6565b5b036121e6576040518060400160405280601881526020017f596f7572204974656d20697320536c617567687465726564000000000000000081525091505061226c565b6002808111156121f9576121f86154c6565b5b81600281111561220c5761220b6154c6565b5b0361223257604051806060016040528060298152602001615d976029913991505061226c565b6040518060400160405280601881526020017f556e6b6e6f776e20736c617567687465722073746174757300000000000000008152509150505b919050565b60606000600c60008481526020019081526020016000206008015490506011600082815260200190815260200160002060030180546122af90615ccc565b80601f01602080910402602001604051908101604052809291908181526020018280546122db90615ccc565b80156123285780601f106122fd57610100808354040283529160200191612328565b820191906000526020600020905b81548152906001019060200180831161230b57829003601f168201915b5050505050915050919050565b60126020528060005260406000206000915090508060000160009054906101000a900473ffffffffffffffffffffffffffffffffffffffff169080600101549080600201805461238490615ccc565b80601f01602080910402602001604051908101604052809291908181526020018280546123b090615ccc565b80156123fd5780601f106123d2576101008083540402835291602001916123fd565b820191906000526020600020905b8154815290600101906020018083116123e057829003601f168201915b50505050509080600301805461241290615ccc565b80601f016020809104026020016040519081016040528092919081815260200182805461243e90615ccc565b801561248b5780601f106124605761010080835404028352916020019161248b565b820191906000526020600020905b81548152906001019060200180831161246e57829003601f168201915b5050505050905084565b60006124a033614ed4565b90506000821180156124b457506001548211155b6124bd57600080fd5b600081116124ca57600080fd5b600660088111156124de576124dd6154c6565b5b600c6000848152602001908152602001600020600b0160009054906101000a900460ff166008811115612514576125136154c6565b5b1461251e57600080fd5b80600c6000848152602001908152602001600020600a01819055506007600c6000848152602001908152602001600020600b0160006101000a81548160ff02191690836008811115612573576125726154c6565b5b02179055505050565b60045481565b60085481565b600d6020528060005260406000206000915090508060000160009054906101000a900473ffffffffffffffffffffffffffffffffffffffff16908060010154908060020180546125d790615ccc565b80601f016020809104026020016040519081016040528092919081815260200182805461260390615ccc565b80156126505780601f1061262557610100808354040283529160200191612650565b820191906000526020600020905b81548152906001019060200180831161263357829003601f168201915b50505050509080600301805461266590615ccc565b80601f016020809104026020016040519081016040528092919081815260200182805461269190615ccc565b80156126de5780601f106126b3576101008083540402835291602001916126de565b820191906000526020600020905b8154815290600101906020018083116126c157829003601f168201915b5050505050905084565b60008054906101000a900473ffffffffffffffffffffffffffffffffffffffff1673ffffffffffffffffffffffffffffffffffffffff163373ffffffffffffffffffffffffffffffffffffffff161461274057600080fd5b6004600081548092919061275390615d2c565b919050555060405180608001604052808473ffffffffffffffffffffffffffffffffffffffff168152602001600454815260200183815260200182815250600f6000600454815260200190815260200160002060008201518160000160006101000a81548173ffffffffffffffffffffffffffffffffffffffff021916908373ffffffffffffffffffffffffffffffffffffffff1602179055506020820151816001015560408201518160020190805190602001906128139291906152b2565b5060608201518160030190805190602001906128309291906152b2565b50905050505050565b60606000600c6000848152602001908152602001600020600401549050600d6000828152602001908152602001600020600201805461287790615ccc565b80601f01602080910402602001604051908101604052809291908181526020018280546128a390615ccc565b80156128f05780601f106128c5576101008083540402835291602001916128f0565b820191906000526020600020905b8154815290600101906020018083116128d357829003601f168201915b5050505050915050919050565b60008511801561290f57506001548511155b61291857600080fd5b6002600881111561292c5761292b6154c6565b5b600c6000878152602001908152602001600020600b0160009054906101000a900460ff166008811115612962576129616154c6565b5b1461296c57600080fd5b61297533614f9a565b600c6000878152602001908152602001600020600501541461299657600080fd5b8380156129a05750825b80156129a95750815b80156129b25750805b156129f8576001600b600087815260200190815260200160002060006101000a81548160ff021916908360028111156129ee576129ed6154c6565b5b0217905550612a35565b6002600b600087815260200190815260200160002060006101000a81548160ff02191690836002811115612a2f57612a2e6154c6565b5b02179055505b5050505050565b600b6020528060005260406000206000915054906101000a900460ff1681565b60008054906101000a900473ffffffffffffffffffffffffffffffffffffffff1673ffffffffffffffffffffffffffffffffffffffff163373ffffffffffffffffffffffffffffffffffffffff1614612ab457600080fd5b60076000815480929190612ac790615d2c565b919050555060405180608001604052808473ffffffffffffffffffffffffffffffffffffffff16815260200160075481526020018381526020018281525060126000600754815260200190815260200160002060008201518160000160006101000a81548173ffffffffffffffffffffffffffffffffffffffff021916908373ffffffffffffffffffffffffffffffffffffffff160217905550602082015181600101556040820151816002019080519060200190612b879291906152b2565b506060820151816003019080519060200190612ba49291906152b2565b50905050505050565b60006060600083118015612bc357506001548311155b612bcc57600080fd5b600c6000848152602001908152602001600020600001549150600c60008481526020019081526020016000206001018054612c0690615ccc565b80601f0160208091040260200160405190810160405280929190818152602001828054612c3290615ccc565b8015612c7f5780601f10612c5457610100808354040283529160200191612c7f565b820191906000526020600020905b815481529060010190602001808311612c6257829003601f168201915b50505050509050915091565b600f6020528060005260406000206000915090508060000160009054906101000a900473ffffffffffffffffffffffffffffffffffffffff1690806001015490806002018054612cda90615ccc565b80601f0160208091040260200160405190810160405280929190818152602001828054612d0690615ccc565b8015612d535780601f10612d2857610100808354040283529160200191612d53565b820191906000526020600020905b815481529060010190602001808311612d3657829003601f168201915b505050505090806003018054612d6890615ccc565b80601f0160208091040260200160405190810160405280929190818152602001828054612d9490615ccc565b8015612de15780601f10612db657610100808354040283529160200191612de1565b820191906000526020600020905b815481529060010190602001808311612dc457829003601f168201915b5050505050905084565b60606000600c6000848152602001908152602001600020600601549050600f60008281526020019081526020016000206003018054612e2990615ccc565b80601f0160208091040260200160405190810160405280929190818152602001828054612e5590615ccc565b8015612ea25780601f10612e7757610100808354040283529160200191612ea2565b820191906000526020600020905b815481529060010190602001808311612e8557829003601f168201915b5050505050915050919050565b606060008211612ebe57600080fd5b60006009600084815260200190815260200160002060009054906101000a900460ff16905060006002811115612ef757612ef66154c6565b5b816002811115612f0a57612f096154c6565b5b03612f3057604051806060016040528060238152602001615ebf6023913991505061303d565b60016002811115612f4457612f436154c6565b5b816002811115612f5757612f566154c6565b5b03612f9a576040518060400160405280601b81526020017f596f7572204974656d2069732048616c616c205665726966696564000000000081525091505061303d565b600280811115612fad57612fac6154c6565b5b816002811115612fc057612fbf6154c6565b5b03613003576040518060400160405280601681526020017f596f7572204974656d206973206e6f6e2d48616c616c0000000000000000000081525091505061303d565b6040518060400160405280601481526020017f556e6b6e6f776e2068616c616c207374617475730000000000000000000000008152509150505b919050565b60008060008311801561305757506001548311155b61306057600080fd5b600c6000848152602001908152602001600020600001549150600c6000848152602001908152602001600020600b0160009054906101000a900460ff169050915091565b60606000600c60008481526020019081526020016000206008015490506011600082815260200190815260200160002060020180546130e290615ccc565b80601f016020809104026020016040519081016040528092919081815260200182805461310e90615ccc565b801561315b5780601f106131305761010080835404028352916020019161315b565b820191906000526020600020905b81548152906001019060200180831161313e57829003601f168201915b5050505050915050919050565b60008054906101000a900473ffffffffffffffffffffffffffffffffffffffff1673ffffffffffffffffffffffffffffffffffffffff163373ffffffffffffffffffffffffffffffffffffffff16146131c057600080fd5b600860008154809291906131d390615d2c565b919050555060405180608001604052808473ffffffffffffffffffffffffffffffffffffffff16815260200160085481526020018381526020018281525060136000600854815260200190815260200160002060008201518160000160006101000a81548173ffffffffffffffffffffffffffffffffffffffff021916908373ffffffffffffffffffffffffffffffffffffffff1602179055506020820151816001015560408201518160020190805190602001906132939291906152b2565b5060608201518160030190805190602001906132b09291906152b2565b50905050505050565b60006132c433614ed4565b90506000821180156132d857506001548211155b6132e157600080fd5b600081116132ee57600080fd5b600c6000838152602001908152602001600020600a0154811461331057600080fd5b60076008811115613324576133236154c6565b5b600c6000848152602001908152602001600020600b0160009054906101000a900460ff16600881111561335a576133596154c6565b5b1461336457600080fd5b6008600c6000848152602001908152602001600020600b0160006101000a81548160ff0219169083600881111561339e5761339d6154c6565b5b02179055505050565b60606000600c60008481526020019081526020016000206007015490506010600082815260200190815260200160002060020180546133e590615ccc565b80601f016020809104026020016040519081016040528092919081815260200182805461341190615ccc565b801561345e5780601f106134335761010080835404028352916020019161345e565b820191906000526020600020905b81548152906001019060200180831161344157829003601f168201915b5050505050915050919050565b60606000600c6000848152602001908152602001600020600501549050600e600082815260200190815260200160002060020180546134a990615ccc565b80601f01602080910402602001604051908101604052809291908181526020018280546134d590615ccc565b80156135225780601f106134f757610100808354040283529160200191613522565b820191906000526020600020905b81548152906001019060200180831161350557829003601f168201915b5050505050915050919050565b600061353a33615060565b905060008211801561354e57506001548211155b61355757600080fd5b6000811161356457600080fd5b60016002811115613578576135776154c6565b5b6009600084815260200190815260200160002060009054906101000a900460ff1660028111156135ab576135aa6154c6565b5b14806135fa57506002808111156135c5576135c46154c6565b5b6009600084815260200190815260200160002060009054906101000a900460ff1660028111156135f8576135f76154c6565b5b145b61360357600080fd5b60046008811115613617576136166154c6565b5b600c6000848152602001908152602001600020600b0160009054906101000a900460ff16600881111561364d5761364c6154c6565b5b1461365757600080fd5b80600c6000848152602001908152602001600020600801819055506005600c6000848152602001908152602001600020600b0160006101000a81548160ff021916908360088111156136ac576136ab6154c6565b5b02179055505050565b60606000600c60008481526020019081526020016000206009015490506012600082815260200190815260200160002060020180546136f390615ccc565b80601f016020809104026020016040519081016040528092919081815260200182805461371f90615ccc565b801561376c5780601f106137415761010080835404028352916020019161376c565b820191906000526020600020905b81548152906001019060200180831161374f57829003601f168201915b5050505050915050919050565b60008054906101000a900473ffffffffffffffffffffffffffffffffffffffff1673ffffffffffffffffffffffffffffffffffffffff163373ffffffffffffffffffffffffffffffffffffffff16146137d157600080fd5b600560008154809291906137e490615d2c565b919050555060405180608001604052808473ffffffffffffffffffffffffffffffffffffffff16815260200160055481526020018381526020018281525060106000600554815260200190815260200160002060008201518160000160006101000a81548173ffffffffffffffffffffffffffffffffffffffff021916908373ffffffffffffffffffffffffffffffffffffffff1602179055506020820151816001015560408201518160020190805190602001906138a49291906152b2565b5060608201518160030190805190602001906138c19291906152b2565b50905050505050565b6000811180156138dc57506001548111155b6138e557600080fd5b60006138f033614f9a565b9050600081116138ff57600080fd5b60016008811115613913576139126154c6565b5b600c6000848152602001908152602001600020600b0160009054906101000a900460ff166008811115613949576139486154c6565b5b1461395357600080fd5b80600c6000848152602001908152602001600020600501819055506002600c6000848152602001908152602001600020600b0160006101000a81548160ff021916908360088111156139a8576139a76154c6565b5b02179055505050565b60606000600c6000848152602001908152602001600020600a015490506013600082815260200190815260200160002060030180546139ef90615ccc565b80601f0160208091040260200160405190810160405280929190818152602001828054613a1b90615ccc565b8015613a685780601f10613a3d57610100808354040283529160200191613a68565b820191906000526020600020905b815481529060010190602001808311613a4b57829003601f168201915b5050505050915050919050565b60008054906101000a900473ffffffffffffffffffffffffffffffffffffffff1673ffffffffffffffffffffffffffffffffffffffff163373ffffffffffffffffffffffffffffffffffffffff1614613acd57600080fd5b60026000815480929190613ae090615d2c565b919050555060405180608001604052808473ffffffffffffffffffffffffffffffffffffffff168152602001600254815260200183815260200182815250600d6000600254815260200190815260200160002060008201518160000160006101000a81548173ffffffffffffffffffffffffffffffffffffffff021916908373ffffffffffffffffffffffffffffffffffffffff160217905550602082015181600101556040820151816002019080519060200190613ba09291906152b2565b506060820151816003019080519060200190613bbd9291906152b2565b50905050505050565b600a6020528060005260406000206000915054906101000a900460ff1681565b60606000600c6000848152602001908152602001600020600501549050600e60008281526020019081526020016000206003018054613c2490615ccc565b80601f0160208091040260200160405190810160405280929190818152602001828054613c5090615ccc565b8015613c9d5780601f10613c7257610100808354040283529160200191613c9d565b820191906000526020600020905b815481529060010190602001808311613c8057829003601f168201915b5050505050915050919050565b60025481565b60065481565b60136020528060005260406000206000915090508060000160009054906101000a900473ffffffffffffffffffffffffffffffffffffffff1690806001015490806002018054613d0590615ccc565b80601f0160208091040260200160405190810160405280929190818152602001828054613d3190615ccc565b8015613d7e5780601f10613d5357610100808354040283529160200191613d7e565b820191906000526020600020905b815481529060010190602001808311613d6157829003601f168201915b505050505090806003018054613d9390615ccc565b80601f0160208091040260200160405190810160405280929190818152602001828054613dbf90615ccc565b8015613e0c5780601f10613de157610100808354040283529160200191613e0c565b820191906000526020600020905b815481529060010190602001808311613def57829003601f168201915b5050505050905084565b600081118015613e2857506001548111155b613e3157600080fd5b6000613e3c33615126565b905060008111613e4b57600080fd5b60006008811115613e5f57613e5e6154c6565b5b600c6000848152602001908152602001600020600b0160009054906101000a900460ff166008811115613e9557613e946154c6565b5b14613e9f57600080fd5b80600c6000848152602001908152602001600020600401819055506001600c6000848152602001908152602001600020600b0160006101000a81548160ff02191690836008811115613ef457613ef36154c6565b5b02179055505050565b606060008211613f0c57600080fd5b60006008811115613f2057613f1f6154c6565b5b600c6000848152602001908152602001600020600b0160009054906101000a900460ff166008811115613f5657613f556154c6565b5b03613f7b57604051806060016040528060258152602001615e6d602591399050614365565b60016008811115613f8f57613f8e6154c6565b5b600c6000848152602001908152602001600020600b0160009054906101000a900460ff166008811115613fc557613fc46154c6565b5b03613fea576040518060600160405280602f8152602001615e0e602f91399050614365565b60026008811115613ffe57613ffd6154c6565b5b600c6000848152602001908152602001600020600b0160009054906101000a900460ff166008811115614034576140336154c6565b5b0361405957604051806060016040528060298152602001615dc0602991399050614365565b6003600881111561406d5761406c6154c6565b5b600c6000848152602001908152602001600020600b0160009054906101000a900460ff1660088111156140a3576140a26154c6565b5b036140c857604051806060016040528060258152602001615de9602591399050614365565b600460088111156140dc576140db6154c6565b5b600c6000848152602001908152602001600020600b0160009054906101000a900460ff166008811115614112576141116154c6565b5b0361413757604051806060016040528060308152602001615e3d603091399050614365565b6005600881111561414b5761414a6154c6565b5b600c6000848152602001908152602001600020600b0160009054906101000a900460ff166008811115614181576141806154c6565b5b036141a6576040518060600160405280602d8152602001615e92602d91399050614365565b600660088111156141ba576141b96154c6565b5b600c6000848152602001908152602001600020600b0160009054906101000a900460ff1660088111156141f0576141ef6154c6565b5b03614215576040518060600160405280602c8152602001615ee2602c91399050614365565b60076008811115614229576142286154c6565b5b600c6000848152602001908152602001600020600b0160009054906101000a900460ff16600881111561425f5761425e6154c6565b5b036142a1576040518060400160405280601981526020017f4974656d20736166656c79206174207468652073746f72652e000000000000008152509050614365565b6008808111156142b4576142b36154c6565b5b600c6000848152602001908152602001600020600b0160009054906101000a900460ff1660088111156142ea576142e96154c6565b5b0361432c576040518060400160405280601281526020017f4974656d20616c726561647920736f6c642e00000000000000000000000000008152509050614365565b6040518060400160405280601781526020017f556e6b6e6f776e206974656d206368726f6e6f6c6f677900000000000000000081525090505b919050565b60015481565b60606000600c6000848152602001908152602001600020600a015490506013600082815260200190815260200160002060020180546143ae90615ccc565b80601f01602080910402602001604051908101604052809291908181526020018280546143da90615ccc565b80156144275780601f106143fc57610100808354040283529160200191614427565b820191906000526020600020905b81548152906001019060200180831161440a57829003601f168201915b5050505050915050919050565b600061443f336151ec565b905060008211801561445357506001548211155b61445c57600080fd5b6000811161446957600080fd5b6001600281111561447d5761447c6154c6565b5b600a600084815260200190815260200160002060009054906101000a900460ff1660028111156144b0576144af6154c6565b5b14806144ff57506002808111156144ca576144c96154c6565b5b600a600084815260200190815260200160002060009054906101000a900460ff1660028111156144fd576144fc6154c6565b5b145b61450857600080fd5b6003600881111561451c5761451b6154c6565b5b600c6000848152602001908152602001600020600b0160009054906101000a900460ff166008811115614552576145516154c6565b5b1461455c57600080fd5b80600c6000848152602001908152602001600020600701819055506004600c6000848152602001908152602001600020600b0160006101000a81548160ff021916908360088111156145b1576145b06154c6565b5b02179055505050565b600e6020528060005260406000206000915090508060000160009054906101000a900473ffffffffffffffffffffffffffffffffffffffff169080600101549080600201805461460990615ccc565b80601f016020809104026020016040519081016040528092919081815260200182805461463590615ccc565b80156146825780601f1061465757610100808354040283529160200191614682565b820191906000526020600020905b81548152906001019060200180831161466557829003601f168201915b50505050509080600301805461469790615ccc565b80601f01602080910402602001604051908101604052809291908181526020018280546146c390615ccc565b80156147105780601f106146e557610100808354040283529160200191614710565b820191906000526020600020905b8154815290600101906020018083116146f357829003601f168201915b5050505050905084565b60008054906101000a900473ffffffffffffffffffffffffffffffffffffffff1673ffffffffffffffffffffffffffffffffffffffff163373ffffffffffffffffffffffffffffffffffffffff161461477257600080fd5b600060025411801561478657506000600354115b801561479457506000600454115b80156147a257506000600554115b80156147b057506000600654115b80156147be57506000600754115b80156147cc57506000600854115b6147d557600080fd5b600160008154809291906147e890615d2c565b919050555060405180610180016040528060015481526020018481526020018381526020018281526020016000815260200160008152602001600081526020016000815260200160008152602001600081526020016000815260200160006008811115614858576148576154c6565b5b815250600c600060015481526020019081526020016000206000820151816000015560208201518160010190805190602001906148969291906152b2565b5060408201518160020190805190602001906148b39291906152b2565b5060608201518160030190805190602001906148d09291906152b2565b506080820151816004015560a0820151816005015560c0820151816006015560e082015181600701556101008201518160080155610120820151816009015561014082015181600a015561016082015181600b0160006101000a81548160ff02191690836008811115614946576149456154c6565b5b02179055509050506000600b6000600154815260200190815260200160002060006101000a81548160ff02191690836002811115614987576149866154c6565b5b02179055506000600a6000600154815260200190815260200160002060006101000a81548160ff021916908360028111156149c5576149c46154c6565b5b0217905550600060096000600154815260200190815260200160002060006101000a81548160ff02191690836002811115614a0357614a026154c6565b5b0217905550505050565b60035481565b600086118015614a2557506001548611155b614a2e57600080fd5b60036008811115614a4257614a416154c6565b5b600c6000888152602001908152602001600020600b0160009054906101000a900460ff166008811115614a7857614a776154c6565b5b14614a8257600080fd5b614a8b33614e0e565b600c60008881526020019081526020016000206006015414614aac57600080fd5b848015614ab65750835b8015614abf5750825b8015614ac85750815b8015614ad15750805b15614b17576001600a600088815260200190815260200160002060006101000a81548160ff02191690836002811115614b0d57614b0c6154c6565b5b0217905550614b90565b6002600a600088815260200190815260200160002060006101000a81548160ff02191690836002811115614b4e57614b4d6154c6565b5b021790555060026009600088815260200190815260200160002060006101000a81548160ff02191690836002811115614b8a57614b896154c6565b5b02179055505b505050505050565b60055481565b6000600a600089815260200190815260200160002060009054906101000a900460ff169050600088118015614bd557506001548811155b614bde57600080fd5b60046008811115614bf257614bf16154c6565b5b600c60008a8152602001908152602001600020600b0160009054906101000a900460ff166008811115614c2857614c276154c6565b5b14614c3257600080fd5b614c3b336151ec565b600c60008a81526020019081526020016000206007015414614c5c57600080fd5b868015614c665750855b8015614c6f5750845b8015614c785750835b8015614c815750825b8015614c8a5750815b15614d015760016002811115614ca357614ca26154c6565b5b816002811115614cb657614cb56154c6565b5b14614cc057600080fd5b6001600960008a815260200190815260200160002060006101000a81548160ff02191690836002811115614cf757614cf66154c6565b5b0217905550614d3e565b6002600960008a815260200190815260200160002060006101000a81548160ff02191690836002811115614d3857614d376154c6565b5b02179055505b5050505050505050565b60008060075411614d5857600080fd5b6000600190505b6007548111614e03578273ffffffffffffffffffffffffffffffffffffffff166012600083815260200190815260200160002060000160009054906101000a900473ffffffffffffffffffffffffffffffffffffffff1673ffffffffffffffffffffffffffffffffffffffff1603614df0576012600082815260200190815260200160002060010154915050614e09565b8080614dfb90615d2c565b915050614d5f565b50600090505b919050565b60008060045411614e1e57600080fd5b6000600190505b6004548111614ec9578273ffffffffffffffffffffffffffffffffffffffff16600f600083815260200190815260200160002060000160009054906101000a900473ffffffffffffffffffffffffffffffffffffffff1673ffffffffffffffffffffffffffffffffffffffff1603614eb657600f600082815260200190815260200160002060010154915050614ecf565b8080614ec190615d2c565b915050614e25565b50600090505b919050565b60008060085411614ee457600080fd5b6000600190505b6008548111614f8f578273ffffffffffffffffffffffffffffffffffffffff166013600083815260200190815260200160002060000160009054906101000a900473ffffffffffffffffffffffffffffffffffffffff1673ffffffffffffffffffffffffffffffffffffffff1603614f7c576013600082815260200190815260200160002060010154915050614f95565b8080614f8790615d2c565b915050614eeb565b50600090505b919050565b60008060035411614faa57600080fd5b6000600190505b6003548111615055578273ffffffffffffffffffffffffffffffffffffffff16600e600083815260200190815260200160002060000160009054906101000a900473ffffffffffffffffffffffffffffffffffffffff1673ffffffffffffffffffffffffffffffffffffffff160361504257600e60008281526020019081526020016000206001015491505061505b565b808061504d90615d2c565b915050614fb1565b50600090505b919050565b6000806006541161507057600080fd5b6000600190505b600654811161511b578273ffffffffffffffffffffffffffffffffffffffff166011600083815260200190815260200160002060000160009054906101000a900473ffffffffffffffffffffffffffffffffffffffff1673ffffffffffffffffffffffffffffffffffffffff1603615108576011600082815260200190815260200160002060010154915050615121565b808061511390615d2c565b915050615077565b50600090505b919050565b6000806002541161513657600080fd5b6000600190505b60025481116151e1578273ffffffffffffffffffffffffffffffffffffffff16600d600083815260200190815260200160002060000160009054906101000a900473ffffffffffffffffffffffffffffffffffffffff1673ffffffffffffffffffffffffffffffffffffffff16036151ce57600d6000828152602001908152602001600020600101549150506151e7565b80806151d990615d2c565b91505061513d565b50600090505b919050565b600080600554116151fc57600080fd5b6000600190505b60055481116152a7578273ffffffffffffffffffffffffffffffffffffffff166010600083815260200190815260200160002060000160009054906101000a900473ffffffffffffffffffffffffffffffffffffffff1673ffffffffffffffffffffffffffffffffffffffff16036152945760106000828152602001908152602001600020600101549150506152ad565b808061529f90615d2c565b915050615203565b50600090505b919050565b8280546152be90615ccc565b90600052602060002090601f0160209004810192826152e05760008555615327565b82601f106152f957805160ff1916838001178555615327565b82800160010185558215615327579182015b8281111561532657825182559160200191906001019061530b565b5b5090506153349190615338565b5090565b5b80821115615351576000816000905550600101615339565b5090565b6000604051905090565b600080fd5b600080fd5b6000819050919050565b61537c81615369565b811461538757600080fd5b50565b60008135905061539981615373565b92915050565b6000602082840312156153b5576153b461535f565b5b60006153c38482850161538a565b91505092915050565b600081519050919050565b600082825260208201905092915050565b60005b838110156154065780820151818401526020810190506153eb565b83811115615415576000848401525b50505050565b6000601f19601f8301169050919050565b6000615437826153cc565b61544181856153d7565b93506154518185602086016153e8565b61545a8161541b565b840191505092915050565b6000602082019050818103600083015261547f818461542c565b905092915050565b61549081615369565b82525050565b60006040820190506154ab6000830185615487565b81810360208301526154bd818461542c565b90509392505050565b7f4e487b7100000000000000000000000000000000000000000000000000000000600052602160045260246000fd5b60038110615506576155056154c6565b5b50565b6000819050615517826154f5565b919050565b600061552782615509565b9050919050565b6155378161551c565b82525050565b6000602082019050615552600083018461552e565b92915050565b600073ffffffffffffffffffffffffffffffffffffffff82169050919050565b600061558382615558565b9050919050565b61559381615578565b811461559e57600080fd5b50565b6000813590506155b08161558a565b92915050565b600080fd5b600080fd5b7f4e487b7100000000000000000000000000000000000000000000000000000000600052604160045260246000fd5b6155f88261541b565b810181811067ffffffffffffffff82111715615617576156166155c0565b5b80604052505050565b600061562a615355565b905061563682826155ef565b919050565b600067ffffffffffffffff821115615656576156556155c0565b5b61565f8261541b565b9050602081019050919050565b82818337600083830152505050565b600061568e6156898461563b565b615620565b9050828152602081018484840111156156aa576156a96155bb565b5b6156b584828561566c565b509392505050565b600082601f8301126156d2576156d16155b6565b5b81356156e284826020860161567b565b91505092915050565b6000806000606084860312156157045761570361535f565b5b6000615712868287016155a1565b935050602084013567ffffffffffffffff81111561573357615732615364565b5b61573f868287016156bd565b925050604084013567ffffffffffffffff8111156157605761575f615364565b5b61576c868287016156bd565b9150509250925092565b61577f81615578565b82525050565b600060208201905061579a6000830184615776565b92915050565b600981106157b1576157b06154c6565b5b50565b60008190506157c2826157a0565b919050565b60006157d2826157b4565b9050919050565b6157e2816157c7565b82525050565b6000610180820190506157fe600083018f615487565b8181036020830152615810818e61542c565b90508181036040830152615824818d61542c565b90508181036060830152615838818c61542c565b9050615847608083018b615487565b61585460a083018a615487565b61586160c0830189615487565b61586e60e0830188615487565b61587c610100830187615487565b61588a610120830186615487565b615898610140830185615487565b6158a66101608301846157d9565b9d9c50505050505050505050505050565b60006080820190506158cc6000830187615776565b6158d96020830186615487565b81810360408301526158eb818561542c565b905081810360608301526158ff818461542c565b905095945050505050565b600060208201905061591f6000830184615487565b92915050565b60008115159050919050565b61593a81615925565b811461594557600080fd5b50565b60008135905061595781615931565b92915050565b600080600080600060a086880312156159795761597861535f565b5b60006159878882890161538a565b955050602061599888828901615948565b94505060406159a988828901615948565b93505060606159ba88828901615948565b92505060806159cb88828901615948565b9150509295509295909350565b600381106159e9576159e86154c6565b5b50565b60008190506159fa826159d8565b919050565b6000615a0a826159ec565b9050919050565b615a1a816159ff565b82525050565b6000602082019050615a356000830184615a11565b92915050565b6000604082019050615a506000830185615487565b615a5d60208301846157d9565b9392505050565b60038110615a7557615a746154c6565b5b50565b6000819050615a8682615a64565b919050565b6000615a9682615a78565b9050919050565b615aa681615a8b565b82525050565b6000602082019050615ac16000830184615a9d565b92915050565b600080600060608486031215615ae057615adf61535f565b5b600084013567ffffffffffffffff811115615afe57615afd615364565b5b615b0a868287016156bd565b935050602084013567ffffffffffffffff811115615b2b57615b2a615364565b5b615b37868287016156bd565b925050604084013567ffffffffffffffff811115615b5857615b57615364565b5b615b64868287016156bd565b9150509250925092565b60008060008060008060c08789031215615b8b57615b8a61535f565b5b6000615b9989828a0161538a565b9650506020615baa89828a01615948565b9550506040615bbb89828a01615948565b9450506060615bcc89828a01615948565b9350506080615bdd89828a01615948565b92505060a0615bee89828a01615948565b9150509295509295509295565b600080600080600080600060e0888a031215615c1a57615c1961535f565b5b6000615c288a828b0161538a565b9750506020615c398a828b01615948565b9650506040615c4a8a828b01615948565b9550506060615c5b8a828b01615948565b9450506080615c6c8a828b01615948565b93505060a0615c7d8a828b01615948565b92505060c0615c8e8a828b01615948565b91505092959891949750929550565b7f4e487b7100000000000000000000000000000000000000000000000000000000600052602260045260246000fd5b60006002820490506001821680615ce457607f821691505b602082108103615cf757615cf6615c9d565b5b50919050565b7f4e487b7100000000000000000000000000000000000000000000000000000000600052601160045260246000fd5b6000615d3782615369565b91507fffffffffffffffffffffffffffffffffffffffffffffffffffffffffffffffff8203615d6957615d68615cfd565b5b60018201905091905056fe596f7572204974656d206973206e6f74207175616c69747920636865636b20796574596f7572204974656d206973206e6f742066756c6c7920736c6175676874657220636f6d706c6965644974656d206973206265696e67207175616c69747920636865636b2c20706c6561736520776169742e4974656d206973206265696e6720736c617567687465722c20706c6561736520776169742e4974656d20636f6c6c656374656420627920506f756c7472792c206177616974696e672070726f63657373696e672e4974656d206265696e6720766572696679207468652068616c616c207374617475732c20706c6561736520776169742e4974656d20526567697374657265642c206177616974696e672070726f63657373696e672e4974656d206265696e67206d616e7566616374757265642c206177616974696e672070726f63657373696e672e596f7572204974656d206973206e6f742048616c616c205665726966696564207965744974656d206265696e672064697374726962757465642c206177616974696e672070726f63657373696e672e596f7572204974656d206973206e6f742066756c6c79207175616c69747920636f6d706c696564a264697066735822122065b3864a282a12f648b2a3f8601445d6f499ba494bb53329624f916034a7596b64736f6c634300080d0033",
  "immutableReferences": {},
  "source": "// SPDX-License-Identifier: MIT\npragma solidity >=0.4.22 <0.9.0;\n\n\ncontract SupplyChain {\n\n     address public Creator;  // msg.sender - whoever deploy this contract (creator)\n\n     constructor(){\n        Creator = msg.sender;\n    }\n\n    /* MODIFIER\n      \n      Notes: https://solidity-by-example.org/function-modifier/\n\n      - Let's say that there's a lot of function that we want it to be only can be access by Owner\n\n      - Normaly we add this line:\n        require(msg.sender == owner, \"Sender is not owner!\");\n\n      - However, we dont want this line to be in all function right?\n\n      - That's where Modifier comes in.\n\n\n      The \" _; \"\n      - If you put it under, it will tell the function to do the modifier first\n      - If you put it above, it will tell the function to do the function first \n       */\n    modifier onlyCreator() {   // This modifier is to esatblish certain function that can only be run by Creator\n        require(msg.sender == Creator);  \n        _;\n    }\n\n    /* Supply Chain Flow\n\n            Poultry ==> Slaughterhouse ==> Verifier ==> Manufacturer ==> Distributor ==> Retailer ==> Sold \n\n\n        Farmer         - This is where the Manufacturer get their raw material \n\n        Slaughterhouse - This is where the item being slaughtered before verifying the halal status\n\n        Verifier       - This is where the item being verified the halal status \n\n        Manufacturer   - Several manufacture will process the raw material \n\n        Distributor    - This is where we distribute the processed item to numerous store\n\n        Supermarket    - Jaya Grocer for example will receive the processed item from the distributor and will be sold\n                       in the store \n\n\n        Objectives:\n\n        - Develop decentralized food supply chain management that implementing blockchain technology, smart contract and consensus algorithm \n          which could monitor food quality and safety resulting in improvement on traceability, transparency of food products.       \n\n        - Enable real-time surveillance and monitoring of food product, providing stakeholder with accurate information about quality, \n          safety and origin of the product.\n\n\n        3 Functions:\n        - Register each flow\n        - Adding items to the chain\n        - Track the items                   \n\n     */\n\n    \n    // Establish count for each flow \n    uint256 public itemsCount = 0;\n    uint256 public farmerCount = 0;\n    uint256 public mardiCount = 0;\n    uint256 public slaughterhouseCount = 0;\n    uint256 public verifierCount = 0;\n    uint256 public manufacturerCount = 0;\n    uint256 public distributorCount = 0;\n    uint256 public retailerCount = 0;\n  \n\n\n    \n\n     /* ENUM\n        \n        Notes: https://solidity-by-example.org/enum/\n\n        - Enum is user-defined data type that allows you to define a set of named values. \n        - Enums are often used when you have a fixed set of values that a variable can take.\n\n        - Let's say you're making a game about different animals. \n        - You might want to keep track of what kind of animal a player has chosen. \n        - You could use an enum to do this. \n\n        Example: \n\n        contract AnimalGame {\n            enum Animal { Dog, Cat, Bird, Fish }\n\n            Animal public player1Choice;\n            Animal public player2Choice;\n\n            function player1ChooseDog() public {\n                player1Choice = Animal.Dog;\n            }\n\n            function player1ChooseCat() public {\n                player1Choice = Animal.Cat;\n            }\n\n            function player2ChooseBird() public {\n                player2Choice = Animal.Bird;\n            }\n\n            function player2ChooseFish() public {\n                player2Choice = Animal.Fish;\n            }\n        }\n\n        - In this example, we have a game where two players can choose between four different animals: Dog, Cat, Bird, and Fish. We use an enum called Animal to define these options.\n\n        - The AnimalGame contract has two variables, player1Choice and player2Choice, to keep track of the choices made by the players. \n        - We also have functions like player1ChooseDog, player1ChooseCat, player2ChooseBird, and player2ChooseFish to allow the players to make their choices.\n      */\n\n     /* PHASE\n        The Phase is going to be like this:-\n\n        Order ==> Farmer ==> Manufacturer ==> Distributor ==> Retailer ==> Sold\n\n        - 1) Item Ordered                     (Plugin)\n        - 2) Item are collected by Farmer     (Farmer)\n        - 3) Item are being manufactured      (Manufacturer)\n        - 4) Item are being Distribute        (Distribution)\n        - 5) Item are safely arrived at store (Retail)\n        - 6) Item sold                        (Sold)\n\n        */\n\n\n    \n    \n    enum PHASE {   \n        Plugin,\n        Farmer,\n        Mardi,\n        Slaughterhouse,\n        Verifier,\n        Manufacturer,\n        Distribution,\n        Retail,\n        Sold\n    }\n\n    enum HALALSTATUS  {\n        NonHalalVerified,\n        HalalVerified,\n        NotFullyHalalComplied\n        \n    }\n    mapping(uint256 => HALALSTATUS) public ItemsHalalStatus;\n\n    // Enum to represent the checklist items for HALAL VERIFICATION\n    enum ChecklistVerifier {\n        RawMaterialsHalalCompliant,\n        SupplierHasHalalCertification,\n        EquipmentFreeFromContamination,\n        CorrectSlaughteringMethods,\n        LabelingAndPackagingMeetsHalalStandards,\n        StaffProperlyTrainedInHalalProcedures\n    }\n\n\n    enum SLAUGHTER {\n        NonSlaughter,\n        Slaughter,\n        NotFullySlaughterComplied\n    }\n     mapping(uint256 => SLAUGHTER) public ItemsSlaughter;\n\n\n    // Enum to represent the checklist items for SLAUGHTERHOUSE\n    enum ChecklistSlaughter {\n        isPracticingMuslim,             // Verify that the slaughterer is a practicing Muslim of sound mind.\n        isInvocationCorrect,            // Confirm the correct invocation of Allah's name during slaughter.\n        isCorrectSlaughterMethod,       // Ensure the correct method of slaughter was followed.\n        isBloodDrained,                 // Verify that the blood was thoroughly drained from the carcass after slaughter.\n        isPreventionOfContamination     // Implement strict measures to prevent cross-contamination.\n    }\n\n    enum MARDI  {\n        NonComplied,\n        Complied,\n        NotFullyComplied\n        \n    }\n    mapping(uint256 => MARDI) public ItemsMardiComplied;\n\n    enum ChecklistMardi {\n        AnimalHealthScreening,\n        EquipmentSanitization,\n        MeatInspection,\n        DocumentationAndRecord\n    }\n    \n\n    \n    /* STRUCT \n\n        Notes: https://www.tutorialspoint.com/solidity/solidity_structs.htm\n\n        - Structs are used to group variables of different data types under a single name\n\n        - Struct also are used to represent a record\n\n        - Suppose you want to keep track of your books in a library. You might want to track the following attributes about each book\n\n        -> Title\n        -> Author\n        -> Subject\n        -> Book ID\n\n        struct Book { \n            string title;\n            string author;\n            string subject;\n            uint256 book_id;\n\n        }\n        mapping(uint256 => Book) public BookInfo;\n\n     */\n\n    struct items {\n        uint256 id;\n        string name;\n        string origin;\n        string nutritionInfo;\n\n        uint256 farmerId;\n        uint256 mardiId;\n        uint256 slaughterhouseId;  \n        uint256 verifierId;\n        uint256 manufacturerId;\n        uint256 distributorId;\n        uint256 retailerId;\n\n        PHASE chronology; \n    }\n\n    mapping(uint256 => items) public ItemsInfo;   //mapping is like you stuff everything into 1 variable.\n\n    \n\n\n    function Chronology(\n        uint256 _itemID\n    ) public view returns (string memory) {\n\n        require(_itemID > 0);  // Ensure that the provided item ID is valid (greater than 0) well which is you have to order item first\n\n        // Check the current phase of the item using its ID\n        if (ItemsInfo[_itemID].chronology == PHASE.Plugin)\n            return \"Item Registered, awaiting processing.\";\n        else if (ItemsInfo[_itemID].chronology == PHASE.Farmer)\n            return \"Item collected by Poultry, awaiting processing.\"; \n        else if (ItemsInfo[_itemID].chronology == PHASE.Mardi)\n            return \"Item is being quality check, please wait.\"; \n        else if (ItemsInfo[_itemID].chronology == PHASE.Slaughterhouse)\n            return \"Item is being slaughter, please wait.\"; \n        else if (ItemsInfo[_itemID].chronology == PHASE.Verifier)\n            return \"Item being verify the halal status, please wait.\";     \n        else if (ItemsInfo[_itemID].chronology == PHASE.Manufacturer)\n            return \"Item being manufactured, awaiting processing.\"; \n        else if (ItemsInfo[_itemID].chronology == PHASE.Distribution)\n            return \"Item being distributed, awaiting processing.\";  \n        else if (ItemsInfo[_itemID].chronology == PHASE.Retail)\n            return \"Item safely at the store.\";  \n        else if (ItemsInfo[_itemID].chronology == PHASE.Sold)\n            return \"Item already sold.\";  \n\n        return \"Unknown item chronology\";\n    }\n\n    /* MAPPING\n\n        Notes: https://www.tutorialspoint.com/solidity/solidity_mappings.htm\n\n        - It's like storing a state variable\n        - string items = \"meat\"\n\n        However, in this case we store a struct:\n\n            mapping(uint256 => farmer) public myFarmer\n\n        We store struct \"farmer\" into the myFarmer that will be used in the future\n\n     */\n\n   \n\n\n    struct farmer {\n        address addr;\n        uint256 id;\n        string name; \n        string location; \n    }\n\n    mapping(uint256 => farmer) public farmerInfo;  // You can call this variable and it'll show all the admin's attributes\n\n    struct mardi{\n        address addr;\n        uint256 id; \n        string name; \n        string location; \n    }\n\n    mapping(uint256 => mardi) public mardiInfo;\n\n    struct slaughterhouse{\n        address addr;\n        uint256 id; \n        string name; \n        string location; \n    }\n\n    mapping(uint256 => slaughterhouse) public slaughterhouseInfo;\n\n\n    struct verifier{\n        address addr;\n        uint256 id; \n        string name; \n        string location; \n    }\n\n    mapping(uint256 => verifier) public verifierInfo;\n\n    struct manufacturer {\n        address addr;\n        uint256 id;\n        string name; \n        string location; \n    }\n\n    mapping(uint256 => manufacturer) public manufacturerInfo;\n   \n\n    struct distributor {\n        address addr;\n        uint256 id;\n        string name; \n        string location;\n    }\n\n    mapping(uint256 => distributor) public distributorInfo;\n\n\n    struct retailer{\n        address addr;\n        uint256 id; \n        string name; \n        string location; \n    }\n\n    mapping(uint256 => retailer) public retailerInfo;\n\n\n   \n    /*-----------------STAKEHOLDER REGISTRATION----------------------\n\n     Poultry ==> Slaughterhouse ==> Verifier ==> Manufacturer ==> Distributor ==> Retailer ==> Sold \n\n\n        Poultry         - This is where the Manufacturer get their raw material \n        \n        Slaughterhouse - This is where the item being slaughtered before verifying the halal status\n\n        Verifier       - This is where the item being verified the halal status \n\n        Manufacturer   - Several manufacture will process the raw material \n\n        Distributor    - This is where we distribute the processed item to numerous store\n\n        Supermarket    - Jaya Grocer for example will receive the processed item from the distributor and will be sold\n                         in the store \n\n\n\n        OnlyOwner:                       \n        - So the onlyOwner is to make sure only Owner can register the flow\n        - This ensure that the system is secure and being handled by authorize person\n\n        The count will increase. The Owner will register 3 attributes occupied with the flow.\n\n    /* Data Location\n\n        Notes: https://solidity-by-example.org/data-locations/\n\n        Variables are declared as either storage, memory or calldata to explicitly specify the location of the data.\n\n        storage  - variable is a state variable (store on blockchain)\n        memory   - variable is in memory and it exists while a function is being called\n        calldata - special data location that contains function arguments\n\n\n     */\n    /* Underscore in function's attributes\n\n        - In Solidity, using an underscore before a parameter name, like \"address _address\", \n          is a common convention to distinguish between function parameters and state variables. \n\n        - This convention helps avoid naming conflicts and makes the code more readable.\n     */\n\n  \n\n    \n\n\n    function regFarmer(\n        address _address,         // This is wallet address \n        string memory _name,      // Name of the Poultry\n        string memory _location   // Where's the Poultry based in?\n    ) public onlyCreator {        // Only creator/owner can register all the stakeholder\n        farmerCount++;\n        farmerInfo[farmerCount] = farmer(_address, farmerCount, _name, _location);  // All this attributes will be stored in farmerInfo\n    }\n\n    function regMardi(\n        address _address,  \n        string memory _name, \n        string memory _location  \n    ) public onlyCreator {  \n        mardiCount++;\n        mardiInfo[mardiCount] = mardi(_address, mardiCount, _name, _location);  // All this attributes will be stored in slaughterhouseInfo\n    }\n\n\n    function regSlaughterhouse(\n        address _address,  \n        string memory _name, \n        string memory _location  \n    ) public onlyCreator {  \n        slaughterhouseCount++;\n        slaughterhouseInfo[slaughterhouseCount] = slaughterhouse(_address, slaughterhouseCount, _name, _location);  // All this attributes will be stored in slaughterhouseInfo\n    }\n\n\n    function regVerifier(\n        address _address,\n        string memory _name,\n        string memory _location\n    ) public onlyCreator {\n        verifierCount++;\n        verifierInfo[verifierCount] = verifier(_address, verifierCount, _name, _location);  // All this attributes will be stored in verifierInfo\n    }\n\n\n    function regManufacturer(\n        address _address,\n        string memory _name,\n        string memory _location\n    ) public onlyCreator {\n        manufacturerCount++;\n        manufacturerInfo[manufacturerCount] = manufacturer(_address, manufacturerCount, _name, _location);  // All this attributes will be stored in manufacturerInfo\n    }\n    \n    function regDistributor(\n        address _address,\n        string memory _name,\n        string memory _location\n    ) public onlyCreator {\n        distributorCount++;\n        distributorInfo[distributorCount] = distributor(_address, distributorCount, _name, _location); // All this attributes will be stored in distributorInfo\n    }\n\n     //To add retailer. Only contract owner can add a new retailer\n    function regRetailer(\n        address _address,\n        string memory _name,\n        string memory _location\n    ) public onlyCreator {\n        retailerCount++;\n        retailerInfo[retailerCount] = retailer(_address, retailerCount, _name, _location); // All this attributes will be stored in retailerInfo\n    }\n\n    /*-----------------PRODUCT REGISTRATION----------------------\n      \n     So the function will going to consists with approximately 3 attributes (Well for now):\n        => Origin - Where this items come from\n        => Nutrition Information - net weight, how many carbs, fat, sodium , and etc\n        => Name - Chicken\n        => As well as the id of each flow since we going to track the\n           progress of food items through the supply chain.\n\n     function orderItems{\n        string name\n        string origin \n        string nutritionInfo\n    \n        uint256 id\n        uint256 farmerId\n        uint256 slaughterhouseId\n        uint256 verifierId\n        uint256 manufacturerId\n        uint256 distributorId\n        uint256 retailerId\n\n     }\n\n     struct items{\n         uint256 Id;\n         string name;\n         string origin;\n         string nutritionInfo;\n        \n         uint256 farmerId;\n         uint256 slaughterhouseId\n         uint256 verifierId\n         uint256 manufacturerId;\n         uint256 distributorId;\n         uint256 retailerId;\n         PHASE chronology;\n     } \n     */\n\n   \n\n    function orderItems(\n        string memory _name,\n        string memory _origin,\n        string memory _nutritionInfo\n\n    ) public onlyCreator {\n        require((farmerCount > 0) && (mardiCount > 0) && (slaughterhouseCount > 0) && (verifierCount > 0) && (manufacturerCount > 0) && (distributorCount > 0) && (retailerCount > 0));   // Before order, Creator have to register all the admin\n        itemsCount++;\n        ItemsInfo[itemsCount] = items(itemsCount, _name, _origin, _nutritionInfo, 0, 0, 0, 0, 0, 0, 0, PHASE.Plugin); // All this attributes will be stored in ItemsInfo\n        ItemsMardiComplied[itemsCount] = MARDI.NonComplied;\n        ItemsSlaughter[itemsCount] = SLAUGHTER.NonSlaughter;\n        ItemsHalalStatus[itemsCount] = HALALSTATUS.NonHalalVerified;\n    }  \n\n\n\n    /*-----------------Administration------------------\n\n     Admin is where each admin of the flow establish the status of item.\n\n     Alright let's give an example:\n\n     - Let's say we already ordered an item. It PHASE would be \"Ordered\"\n     - So to change the PHASE from Ordered-to-Poultry, The poultry have to established the status of the item\n     - So Poultry will establish the item as their responsibility\n\n     The Flow is going to be like this:-\n\n     Poultry ==> Slaughterhouse ==> Verifier ==> Manufacturer ==> Distributor ==> Retailer ==> Sold \n\n     - 1) Item Ordered                                 (Punch In)\n     - 2) Item are being slaughter                     (Slaughterhouse)\n     - 3) Item are being verified the halal status     (Verifier)\n     - 4) Item are collected by Poultry                (Poultry)\n     - 5) Item are being manufactured                  (Manufacturer)\n     - 6) Item are being Distribute                    (Distribution)\n     - 7) Item are safely arrived at store             (Retail)\n     - 8) Item sold                                    (Sold)\n\n\n     */\n\n    /* ----------------Tracking------------------\n      \n     The Flow is going to be like this:-\n\n     Poultry ==> Slaughterhouse ==> Verifier ==> Manufacturer ==> Distributor ==> Retailer ==> Sold\n    \n     We going to track the items through Supply Chain\n\n     uint256 public farmerCount = 0;\n     uint256 public slaughterhouseCount = 0;\n     uint256 public verifierCount = 0;\n     uint256 public manufacturerCount = 0;\n     uint256 public distributorCount = 0;\n     uint256 public retailerCount = 0;\n     uint256 public itemsCount = 0;\n\n     struct items{\n        uint256 Id;\n        string name;\n        string origin;\n        string nutritionInfo;\n\n        uint256 farmerId;\n        uint256 slaughterhouseId;\n        uint256 verifierId;\n        uint256 manufacturerId;\n        uint256 distributorId;\n        uint256 retailerId;\n        PHASE chronology;\n     } \n\n     enum PHASE{\n        Plugin,  \n        Farmer,\n        Slaughterhouse,\n        Verifier,\n        Manufacturer,\n        Distribution,\n        Retail,\n        Sold\n     }\n     */\n      \n     \n    // To change the flow from Ordered ==> Farmer\n    function Farmering(uint256 _itemID) public {\n        require(_itemID > 0 && _itemID <= itemsCount);          // Ensure that we already order an Item and  \n        uint256 _id = trackFarmer(msg.sender);                  // Get the ID of the calling farmer\n        require(_id > 0);                                       // Ensure the farmer ID is valid\n        require(ItemsInfo[_itemID].chronology == PHASE.Plugin); // Ensure the item is in the Plugin phase\n        ItemsInfo[_itemID].farmerId = _id;                      // Assign the farmer ID to the item\n        ItemsInfo[_itemID].chronology = PHASE.Farmer;           // Update the item's chronology to Farmer\n        \n    }\n\n    // To track \n    function trackFarmer(address _address) private view returns (uint256) {\n        require(farmerCount > 0);                                       // Ensure that there is at least one registered farmer\n\n        for (uint256 i = 1; i <= farmerCount; i++) {\n            if (farmerInfo[i].addr == _address)   // Ensure that farmer's address same with the farmer's address that we registered \n            return farmerInfo[i].id;              // if all went well, it'll return ID\n        }\n        return 0;\n\n    }\n\n    function Marding(uint256 _itemID) public {\n        require(_itemID > 0 && _itemID <= itemsCount);          \n        uint256 _id = trackMardi(msg.sender);                  \n        require(_id > 0);                  \n        require(ItemsInfo[_itemID].chronology == PHASE.Farmer); \n        ItemsInfo[_itemID].mardiId = _id;                      \n        ItemsInfo[_itemID].chronology = PHASE.Mardi;           \n        \n    }\n\n    // To track \n    function trackMardi(address _address) private view returns (uint256) {\n        require(mardiCount > 0);                                       \n\n        for (uint256 i = 1; i <= mardiCount; i++) {\n            if (mardiInfo[i].addr == _address)   \n            return mardiInfo[i].id;             \n        }\n        return 0;\n\n    }\n\n    // To change the flow from Farmer ==> Slaughterhouse\n    function Slaughtering(uint256 _itemID) public {\n        require(_itemID > 0 && _itemID <= itemsCount);          \n        uint256 _id = trackSlaughterhouse(msg.sender);                  \n        require(_id > 0);                                      \n        require(ItemsMardiComplied[_itemID] == MARDI.Complied || ItemsMardiComplied[_itemID] == MARDI.NotFullyComplied); \n        require(ItemsInfo[_itemID].chronology == PHASE.Mardi); \n        ItemsInfo[_itemID].slaughterhouseId = _id;                      \n        ItemsInfo[_itemID].chronology = PHASE.Slaughterhouse;           \n        \n    }\n\n    // To track \n    function trackSlaughterhouse(address _address) private view returns (uint256) {\n        require(slaughterhouseCount > 0);                                       \n\n        for (uint256 i = 1; i <= slaughterhouseCount; i++) {\n            if (slaughterhouseInfo[i].addr == _address)   \n            return slaughterhouseInfo[i].id;             \n        }\n        return 0;\n\n    }\n\n\n    //To change the flow from Slaughterhouse ==> Verifier\n     function Verifying(uint256 _itemID) public {\n        uint256 _id = trackVerifier(msg.sender);   \n        require(_itemID > 0 && _itemID <= itemsCount);           \n        require(_id > 0);       \n        require(ItemsSlaughter[_itemID] == SLAUGHTER.Slaughter || ItemsSlaughter[_itemID] == SLAUGHTER.NotFullySlaughterComplied);     \n        require(ItemsInfo[_itemID].chronology == PHASE.Slaughterhouse);\n        ItemsInfo[_itemID].verifierId = _id;                     \n        ItemsInfo[_itemID].chronology = PHASE.Verifier;    \n         \n    }\n\n    // To verify \n    function trackVerifier(address _address) private view returns (uint256) {\n        require(verifierCount > 0);                                       \n\n        for (uint256 i = 1; i <= verifierCount; i++) {\n            if (verifierInfo[i].addr == _address)   \n            return verifierInfo[i].id;              \n        }\n        return 0;\n\n    }\n\n\n    // To change the flow from Verifier ==> Manufacturer\n    function Manufacturing(uint256 _itemID) public {\n        uint256 _id = trackManufacture(msg.sender);\n\n        require(_itemID > 0 && _itemID <= itemsCount);\n        require(_id > 0);\n        require(ItemsHalalStatus[_itemID] == HALALSTATUS.HalalVerified || ItemsHalalStatus[_itemID] == HALALSTATUS.NotFullyHalalComplied);     \n        require(ItemsInfo[_itemID].chronology == PHASE.Verifier);\n\n        ItemsInfo[_itemID].manufacturerId = _id;\n        ItemsInfo[_itemID].chronology = PHASE.Manufacturer;\n    }\n\n    // To track \n    function trackManufacture(address _address) private view returns (uint256) {\n        require(manufacturerCount > 0);\n        for (uint256 i = 1; i <= manufacturerCount; i++) {\n            if (manufacturerInfo[i].addr == _address) \n            return manufacturerInfo[i].id;\n        }\n        return 0;\n    }\n\n\n\n    // To change the flow from Manufacturer ==> Distributor\n    function Distributing(uint256 _itemID) public {\n        uint256 _id = trackDistribution(msg.sender);\n\n        require(_itemID > 0 && _itemID <= itemsCount);\n        require(_id > 0);\n        require(ItemsInfo[_itemID].chronology == PHASE.Manufacturer);\n\n        ItemsInfo[_itemID].distributorId = _id;\n        ItemsInfo[_itemID].chronology = PHASE.Distribution;\n    }\n\n    // To track \n    function trackDistribution(address _address) private view returns (uint256) {\n        require(distributorCount > 0);\n        for (uint256 i = 1; i <= distributorCount; i++) {\n            if (distributorInfo[i].addr == _address) \n            return distributorInfo[i].id;\n        }\n        return 0;\n    }\n\n\n    // To change the flow from Distributor ==> Retail\n    function Retailing(uint256 _itemID) public {\n         uint256 _id = trackRetailer(msg.sender);\n\n        require(_itemID > 0 && _itemID <= itemsCount);\n        require(_id > 0);\n        require(ItemsInfo[_itemID].chronology == PHASE.Distribution);\n\n        ItemsInfo[_itemID].retailerId = _id;\n        ItemsInfo[_itemID].chronology = PHASE.Retail;\n    }\n\n    // To track \n    function trackRetailer(address _address) private view returns (uint256) {\n        require(retailerCount > 0);\n        for (uint256 i = 1; i <= retailerCount; i++) {\n            if (retailerInfo[i].addr == _address) \n            return retailerInfo[i].id;\n        }\n        return 0;\n    }\n\n    // To change the flow from Retail ==> Sold\n    function sold(uint256 _itemID) public {\n        uint256 _id = trackRetailer(msg.sender);\n\n        require(_itemID > 0 && _itemID <= itemsCount);\n        require(_id > 0);\n        require(_id == ItemsInfo[_itemID].retailerId); //Only correct retailer can mark medicine as sold\n        require(ItemsInfo[_itemID].chronology == PHASE.Retail);\n\n        ItemsInfo[_itemID].chronology = PHASE.Sold;\n    }\n\n    /* ----------------ITEM INFORMATION--------------------\n        - This section is to see all of the product information\n        - The user will key in the itemID to retrieve the info\n        */ \n    \n\n    // To view the product information\n    function info(uint256 _itemID) public view returns (\n\n    uint256 id,\n    string memory name,\n    string memory origin,\n    string memory nutritionInfo,\n    uint256 farmerId,\n    uint256 mardiId,\n    uint256 slaughterhouseId,\n    uint256 verifierId,\n    uint256 manufacturerId,\n    uint256 distributorId,\n    uint256 retailerId,\n    PHASE chronology\n     \n    ) {\n    require(_itemID > 0 && _itemID <= itemsCount);\n\n    // Retrieve information from the specified item\n    id = ItemsInfo[_itemID].id;\n    name = ItemsInfo[_itemID].name;\n    origin = ItemsInfo[_itemID].origin;\n    nutritionInfo = ItemsInfo[_itemID].nutritionInfo;\n\n\n\n    farmerId = ItemsInfo[_itemID].farmerId;\n    mardiId = ItemsInfo[_itemID].mardiId;\n    slaughterhouseId = ItemsInfo[_itemID].slaughterhouseId;\n    verifierId = ItemsInfo[_itemID].verifierId;\n    manufacturerId = ItemsInfo[_itemID].manufacturerId;\n    distributorId = ItemsInfo[_itemID].distributorId;\n    retailerId = ItemsInfo[_itemID].retailerId;\n\n\n    chronology = ItemsInfo[_itemID].chronology;\n    }\n\n    ////////////////////////////////////////////////////////////////\n\n    \n\n\n    \n\n    //-------------HALAL VERIFICATION PROCESS---------------------\n\n\n    function HalalStatus(uint256 _itemID) public view returns (string memory) {\n            require(_itemID > 0);\n            HALALSTATUS halalstatus = ItemsHalalStatus[_itemID];\n\n            if (halalstatus == HALALSTATUS.NonHalalVerified) {\n                return \"Your Item is not Halal Verified yet\";\n            } else if (halalstatus == HALALSTATUS.HalalVerified) {\n                return \"Your Item is Halal Verified\";\n            } else if (halalstatus == HALALSTATUS.NotFullyHalalComplied) {\n                return \"Your Item is non-Halal\";\n            }\n            return \"Unknown halal status\";\n    }\n\n\n    // Function for the verifier to tick off checklist items\n    function verifyTickChecklistItem(\n        uint _itemID,\n        bool _RawMaterialsHalalCompliant,\n        bool _SupplierHasHalalCertification,\n        bool _EquipmentFreeFromContamination,\n        bool _CorrectSlaughteringMethods,\n        bool _LabelingAndPackagingMeetsHalalStandards,\n        bool _StaffProperlyTrainedInHalalProcedures\n    ) public {\n        SLAUGHTER slaughter = ItemsSlaughter[_itemID];\n        require(_itemID > 0 && _itemID <= itemsCount);\n        require(ItemsInfo[_itemID].chronology == PHASE.Verifier);\n        require(ItemsInfo[_itemID].verifierId == trackVerifier(msg.sender));\n      \n        // If All the checklist are being ticked, the Halal Status is Verified\n        if (_RawMaterialsHalalCompliant && _SupplierHasHalalCertification && _EquipmentFreeFromContamination && _CorrectSlaughteringMethods && _LabelingAndPackagingMeetsHalalStandards && _StaffProperlyTrainedInHalalProcedures) {\n            require(slaughter == SLAUGHTER.Slaughter);\n            ItemsHalalStatus[_itemID] = HALALSTATUS.HalalVerified;\n\n        }\n        else { //If the checklist is ticked BUT not all of it, the Halal Status is not fully Complied\n            ItemsHalalStatus[_itemID] = HALALSTATUS.NotFullyHalalComplied;\n        }\n\n    }\n\n    \n\n    \n\n\n    //-------------SLAUGHTERING VERIFICATION PROCESS---------------------\n\n\n    function SlaughterStatus(uint256 _itemID) public view returns (string memory) {\n        require(_itemID > 0);\n        SLAUGHTER slaughter = ItemsSlaughter[_itemID];\n\n        if (slaughter == SLAUGHTER.NonSlaughter) {\n            return \"Your Item is not slaughter yet\";\n        } else if (slaughter == SLAUGHTER.Slaughter) {\n            return \"Your Item is Slaughtered\";\n        } else if (slaughter == SLAUGHTER.NotFullySlaughterComplied) {\n            return \"Your Item is not fully slaughter complied\";\n        }\n        return \"Unknown slaughter status\";\n    }\n\n\n    // Modify the function to update HalalStatus based on the checklist\n    function slaughterTickChecklistItem(\n        uint _itemID,\n        bool _isPracticingMuslim,\n        bool _isInvocationCorrect,\n        bool _isCorrectSlaughterMethod,\n        bool _isBloodDrained,\n        bool _isPreventionOfContamination\n    ) public {\n         require(_itemID > 0 && _itemID <= itemsCount);\n         require(ItemsInfo[_itemID].chronology == PHASE.Slaughterhouse);\n         require (ItemsInfo[_itemID].slaughterhouseId == trackSlaughterhouse(msg.sender));\n        \n    \n        // Update SlaughterStatus based on the checklist\n        if (_isPracticingMuslim && _isInvocationCorrect && _isCorrectSlaughterMethod && _isBloodDrained && _isPreventionOfContamination) {\n            ItemsSlaughter[_itemID] = SLAUGHTER.Slaughter;\n        } else {\n            ItemsSlaughter[_itemID] = SLAUGHTER.NotFullySlaughterComplied;\n            ItemsHalalStatus[_itemID] = HALALSTATUS.NotFullyHalalComplied;\n        }\n    }\n\n    //-------------MARDI VERIFICATION PROCESS---------------------\n\n    function MardiStatus(uint256 _itemID) public view returns (string memory) {\n        require(_itemID > 0);\n        MARDI quality = ItemsMardiComplied[_itemID];\n\n        if (quality == MARDI.NonComplied) {\n            return \"Your Item is not quality check yet\";\n        } else if (quality == MARDI.Complied) {\n            return \"Your Item is Quality Complied\";\n        } else if (quality == MARDI.NotFullyComplied) {\n            return \"Your Item is not fully quality complied\";\n        }\n        return \"Unknown quality status\";\n    }\n\n    function mardiTickChecklistItem(\n        uint _itemID,\n        bool _AnimalHealthScreening,\n        bool _EquipmentSanitization,\n        bool _MeatInspection,\n        bool _DocumentationAndRecord\n      \n    ) public {\n         require(_itemID > 0 && _itemID <= itemsCount);\n         require(ItemsInfo[_itemID].chronology == PHASE.Mardi);\n         require(ItemsInfo[_itemID].mardiId == trackMardi(msg.sender));\n        \n    \n        // Update SlaughterStatus based on the checklist\n        if (_AnimalHealthScreening && _EquipmentSanitization && _MeatInspection && _DocumentationAndRecord) {\n            ItemsMardiComplied[_itemID] = MARDI.Complied;\n        } else {\n            ItemsMardiComplied[_itemID] = MARDI.NotFullyComplied;\n          \n        }\n    }\n\n\n\n\n\n\n    //-------------------------DAUS's PART---------------------------------------\n\n    //----------------RETRIEVE PARTICULAR INFORMATION-----------------------------\n\n\n    //----------------------Item Info---------------------------------\n\n    // Retrieve Name from the specific item\n    function itemName(uint256 _itemID) public view returns (uint256 id, string memory name) {  \n    require(_itemID > 0 && _itemID <= itemsCount);\n    \n    id = ItemsInfo[_itemID].id;\n    name = ItemsInfo[_itemID].name;\n   \n    }\n\n    // Retrieve Origin from the specific item\n    function itemOrigin(uint256 _itemID) public view returns (uint256 id, string memory origin) {\n    require(_itemID > 0 && _itemID <= itemsCount);\n    \n    id = ItemsInfo[_itemID].id;\n    origin = ItemsInfo[_itemID].origin;\n    }\n\n    // Retrieve Nutrition from the specific item\n    function itemNutrition(uint256 _itemID) public view returns (uint256 id, string memory nutritionInfo) {\n    require(_itemID > 0 && _itemID <= itemsCount);\n   \n    id = ItemsInfo[_itemID].id;\n    nutritionInfo = ItemsInfo[_itemID].nutritionInfo;\n    }\n\n    // Retrieve Phase from the specific item\n    function itemPhase(uint256 _itemID) public view returns (uint256 id, PHASE chronology) {\n        require(_itemID > 0 && _itemID <= itemsCount);\n    \n        id = ItemsInfo[_itemID].id;\n        chronology = ItemsInfo[_itemID].chronology;\n    }\n\n    //------------------------Poultry Info---------------------------------\n\n\n    function getFarmerName(uint256 _itemID) public view returns (string memory) {\n        uint256 farmerId = ItemsInfo[_itemID].farmerId;\n        return farmerInfo[farmerId].name;\n    }\n\n    function getFarmerLocation(uint256 _itemID) public view returns (string memory) {\n        uint256 farmerId = ItemsInfo[_itemID].farmerId;\n        return farmerInfo[farmerId].location;\n    }\n\n\n    //------------------------Mardi Info---------------------------------\n\n    function getMardiName(uint256 _itemID) public view returns (string memory) {\n        uint256 mardiId = ItemsInfo[_itemID].mardiId;\n        return mardiInfo[mardiId].name;\n    }\n\n    function getMardiLocation(uint256 _itemID) public view returns (string memory) {\n        uint256 mardiId = ItemsInfo[_itemID].mardiId;\n        return mardiInfo[mardiId].location;\n    }\n\n\n     //------------------------Slaughterhouse Info---------------------------------\n\n    function getSlaughterhouseName(uint256 _itemID) public view returns (string memory) {\n        uint256 slaughterhouseId = ItemsInfo[_itemID].slaughterhouseId;\n        return slaughterhouseInfo[slaughterhouseId].name;\n    }\n\n    function getSlaughterhouseLocation(uint256 _itemID) public view returns (string memory) {\n        uint256 slaughterhouseId = ItemsInfo[_itemID].slaughterhouseId;\n        return slaughterhouseInfo[slaughterhouseId].location;\n    }\n\n\n\n     //------------------------Verifier Info---------------------------------\n\n\n    function getVerifierName(uint256 _itemID) public view returns (string memory) {\n        uint256 verifierId = ItemsInfo[_itemID].verifierId;\n        return verifierInfo[verifierId].name;\n    }\n\n    function getVerifierLocation(uint256 _itemID) public view returns (string memory) {\n        uint256 verifierId = ItemsInfo[_itemID].verifierId;\n        return verifierInfo[verifierId].location;\n    }\n\n\n    //------------------------Manufacturer Info---------------------------------\n\n\n    function getManufacturerName(uint256 _itemID) public view returns (string memory) {\n        uint256 manufacturerId = ItemsInfo[_itemID].manufacturerId;\n        return manufacturerInfo[manufacturerId].name;\n    }\n\n    function getManufacturerLocation(uint256 _itemID) public view returns (string memory) {\n        uint256 manufacturerId = ItemsInfo[_itemID].manufacturerId;\n        return manufacturerInfo[manufacturerId].location;\n    }\n\n\n      //------------------------Distributor Info---------------------------------\n\n    function getDistributorName(uint256 _itemID) public view returns (string memory) {\n        uint256 distributorId = ItemsInfo[_itemID].distributorId;\n        return distributorInfo[distributorId].name;\n    }\n\n    function getDistributorLocation(uint256 _itemID) public view returns (string memory) {\n        uint256 distributorId = ItemsInfo[_itemID].distributorId;\n        return distributorInfo[distributorId].location;\n    }\n\n     //------------------------Retailer Info---------------------------------\n\n    function getRetailerName(uint256 _itemID) public view returns (string memory) {\n        uint256 retailerId = ItemsInfo[_itemID].retailerId;\n        return retailerInfo[retailerId].name;\n    }\n\n    function getRetailerLocation(uint256 _itemID) public view returns (string memory) {\n        uint256 retailerId = ItemsInfo[_itemID].retailerId;\n        return retailerInfo[retailerId].location;\n    }\n\n}",
  "sourcePath": "/home/alifzwan/Documents/React/React-Supply-Chain/contracts/SupplyChain.sol",
  "compiler": {
    "name": "solc",
    "version": "0.8.13+commit.abaa5c0e.Emscripten.clang"
  },
  "schemaVersion": "3.4.16",
  "updatedAt": "2024-01-20T02:49:11.244Z",
  "devdoc": {
    "kind": "dev",
    "methods": {},
    "version": 1
  },
  "userdoc": {
    "kind": "user",
    "methods": {},
    "version": 1
  }
}