{
  "contractName": "SupplyChain",
  "abi": [
    {
      "inputs": [],
      "stateMutability": "nonpayable",
      "type": "constructor"
    },
    {
      "inputs": [],
      "name": "Creator",
      "outputs": [
        {
          "internalType": "address",
          "name": "",
          "type": "address"
        }
      ],
      "stateMutability": "view",
      "type": "function",
      "constant": true
    },
    {
      "inputs": [
        {
          "internalType": "uint256",
          "name": "",
          "type": "uint256"
        }
      ],
      "name": "ItemsInfo",
      "outputs": [
        {
          "internalType": "uint256",
          "name": "id",
          "type": "uint256"
        },
        {
          "internalType": "string",
          "name": "name",
          "type": "string"
        },
        {
          "internalType": "string",
          "name": "origin",
          "type": "string"
        },
        {
          "internalType": "string",
          "name": "nutritionInfo",
          "type": "string"
        },
        {
          "internalType": "uint256",
          "name": "farmerId",
          "type": "uint256"
        },
        {
          "internalType": "uint256",
          "name": "slaughterhouseId",
          "type": "uint256"
        },
        {
          "internalType": "uint256",
          "name": "verifierId",
          "type": "uint256"
        },
        {
          "internalType": "uint256",
          "name": "manufacturerId",
          "type": "uint256"
        },
        {
          "internalType": "uint256",
          "name": "distributorId",
          "type": "uint256"
        },
        {
          "internalType": "uint256",
          "name": "retailerId",
          "type": "uint256"
        },
        {
          "internalType": "enum SupplyChain.PHASE",
          "name": "chronology",
          "type": "uint8"
        }
      ],
      "stateMutability": "view",
      "type": "function",
      "constant": true
    },
    {
      "inputs": [
        {
          "internalType": "uint256",
          "name": "",
          "type": "uint256"
        }
      ],
      "name": "ItemsSlaughter",
      "outputs": [
        {
          "internalType": "enum SupplyChain.SLAUGHTER",
          "name": "",
          "type": "uint8"
        }
      ],
      "stateMutability": "view",
      "type": "function",
      "constant": true
    },
    {
      "inputs": [
        {
          "internalType": "uint256",
          "name": "",
          "type": "uint256"
        }
      ],
      "name": "ItemsStatus",
      "outputs": [
        {
          "internalType": "enum SupplyChain.STATUS",
          "name": "",
          "type": "uint8"
        }
      ],
      "stateMutability": "view",
      "type": "function",
      "constant": true
    },
    {
      "inputs": [],
      "name": "distributorCount",
      "outputs": [
        {
          "internalType": "uint256",
          "name": "",
          "type": "uint256"
        }
      ],
      "stateMutability": "view",
      "type": "function",
      "constant": true
    },
    {
      "inputs": [
        {
          "internalType": "uint256",
          "name": "",
          "type": "uint256"
        }
      ],
      "name": "distributorInfo",
      "outputs": [
        {
          "internalType": "address",
          "name": "addr",
          "type": "address"
        },
        {
          "internalType": "uint256",
          "name": "id",
          "type": "uint256"
        },
        {
          "internalType": "string",
          "name": "name",
          "type": "string"
        },
        {
          "internalType": "string",
          "name": "location",
          "type": "string"
        }
      ],
      "stateMutability": "view",
      "type": "function",
      "constant": true
    },
    {
      "inputs": [],
      "name": "farmerCount",
      "outputs": [
        {
          "internalType": "uint256",
          "name": "",
          "type": "uint256"
        }
      ],
      "stateMutability": "view",
      "type": "function",
      "constant": true
    },
    {
      "inputs": [
        {
          "internalType": "uint256",
          "name": "",
          "type": "uint256"
        }
      ],
      "name": "farmerInfo",
      "outputs": [
        {
          "internalType": "address",
          "name": "addr",
          "type": "address"
        },
        {
          "internalType": "uint256",
          "name": "id",
          "type": "uint256"
        },
        {
          "internalType": "string",
          "name": "name",
          "type": "string"
        },
        {
          "internalType": "string",
          "name": "location",
          "type": "string"
        }
      ],
      "stateMutability": "view",
      "type": "function",
      "constant": true
    },
    {
      "inputs": [],
      "name": "itemsCount",
      "outputs": [
        {
          "internalType": "uint256",
          "name": "",
          "type": "uint256"
        }
      ],
      "stateMutability": "view",
      "type": "function",
      "constant": true
    },
    {
      "inputs": [],
      "name": "manufacturerCount",
      "outputs": [
        {
          "internalType": "uint256",
          "name": "",
          "type": "uint256"
        }
      ],
      "stateMutability": "view",
      "type": "function",
      "constant": true
    },
    {
      "inputs": [
        {
          "internalType": "uint256",
          "name": "",
          "type": "uint256"
        }
      ],
      "name": "manufacturerInfo",
      "outputs": [
        {
          "internalType": "address",
          "name": "addr",
          "type": "address"
        },
        {
          "internalType": "uint256",
          "name": "id",
          "type": "uint256"
        },
        {
          "internalType": "string",
          "name": "name",
          "type": "string"
        },
        {
          "internalType": "string",
          "name": "location",
          "type": "string"
        }
      ],
      "stateMutability": "view",
      "type": "function",
      "constant": true
    },
    {
      "inputs": [],
      "name": "retailerCount",
      "outputs": [
        {
          "internalType": "uint256",
          "name": "",
          "type": "uint256"
        }
      ],
      "stateMutability": "view",
      "type": "function",
      "constant": true
    },
    {
      "inputs": [
        {
          "internalType": "uint256",
          "name": "",
          "type": "uint256"
        }
      ],
      "name": "retailerInfo",
      "outputs": [
        {
          "internalType": "address",
          "name": "addr",
          "type": "address"
        },
        {
          "internalType": "uint256",
          "name": "id",
          "type": "uint256"
        },
        {
          "internalType": "string",
          "name": "name",
          "type": "string"
        },
        {
          "internalType": "string",
          "name": "location",
          "type": "string"
        }
      ],
      "stateMutability": "view",
      "type": "function",
      "constant": true
    },
    {
      "inputs": [],
      "name": "slaughterhouseCount",
      "outputs": [
        {
          "internalType": "uint256",
          "name": "",
          "type": "uint256"
        }
      ],
      "stateMutability": "view",
      "type": "function",
      "constant": true
    },
    {
      "inputs": [
        {
          "internalType": "uint256",
          "name": "",
          "type": "uint256"
        }
      ],
      "name": "slaughterhouseInfo",
      "outputs": [
        {
          "internalType": "address",
          "name": "addr",
          "type": "address"
        },
        {
          "internalType": "uint256",
          "name": "id",
          "type": "uint256"
        },
        {
          "internalType": "string",
          "name": "name",
          "type": "string"
        },
        {
          "internalType": "string",
          "name": "location",
          "type": "string"
        }
      ],
      "stateMutability": "view",
      "type": "function",
      "constant": true
    },
    {
      "inputs": [],
      "name": "verifierCount",
      "outputs": [
        {
          "internalType": "uint256",
          "name": "",
          "type": "uint256"
        }
      ],
      "stateMutability": "view",
      "type": "function",
      "constant": true
    },
    {
      "inputs": [
        {
          "internalType": "uint256",
          "name": "",
          "type": "uint256"
        }
      ],
      "name": "verifierInfo",
      "outputs": [
        {
          "internalType": "address",
          "name": "addr",
          "type": "address"
        },
        {
          "internalType": "uint256",
          "name": "id",
          "type": "uint256"
        },
        {
          "internalType": "string",
          "name": "name",
          "type": "string"
        },
        {
          "internalType": "string",
          "name": "location",
          "type": "string"
        }
      ],
      "stateMutability": "view",
      "type": "function",
      "constant": true
    },
    {
      "inputs": [
        {
          "internalType": "uint256",
          "name": "_itemID",
          "type": "uint256"
        }
      ],
      "name": "Chronology",
      "outputs": [
        {
          "internalType": "string",
          "name": "",
          "type": "string"
        }
      ],
      "stateMutability": "view",
      "type": "function",
      "constant": true
    },
    {
      "inputs": [
        {
          "internalType": "address",
          "name": "_address",
          "type": "address"
        },
        {
          "internalType": "string",
          "name": "_name",
          "type": "string"
        },
        {
          "internalType": "string",
          "name": "_location",
          "type": "string"
        }
      ],
      "name": "regFarmer",
      "outputs": [],
      "stateMutability": "nonpayable",
      "type": "function"
    },
    {
      "inputs": [
        {
          "internalType": "address",
          "name": "_address",
          "type": "address"
        },
        {
          "internalType": "string",
          "name": "_name",
          "type": "string"
        },
        {
          "internalType": "string",
          "name": "_location",
          "type": "string"
        }
      ],
      "name": "regSlaughterhouse",
      "outputs": [],
      "stateMutability": "nonpayable",
      "type": "function"
    },
    {
      "inputs": [
        {
          "internalType": "address",
          "name": "_address",
          "type": "address"
        },
        {
          "internalType": "string",
          "name": "_name",
          "type": "string"
        },
        {
          "internalType": "string",
          "name": "_location",
          "type": "string"
        }
      ],
      "name": "regVerifier",
      "outputs": [],
      "stateMutability": "nonpayable",
      "type": "function"
    },
    {
      "inputs": [
        {
          "internalType": "address",
          "name": "_address",
          "type": "address"
        },
        {
          "internalType": "string",
          "name": "_name",
          "type": "string"
        },
        {
          "internalType": "string",
          "name": "_location",
          "type": "string"
        }
      ],
      "name": "regManufacturer",
      "outputs": [],
      "stateMutability": "nonpayable",
      "type": "function"
    },
    {
      "inputs": [
        {
          "internalType": "address",
          "name": "_address",
          "type": "address"
        },
        {
          "internalType": "string",
          "name": "_name",
          "type": "string"
        },
        {
          "internalType": "string",
          "name": "_location",
          "type": "string"
        }
      ],
      "name": "regDistributor",
      "outputs": [],
      "stateMutability": "nonpayable",
      "type": "function"
    },
    {
      "inputs": [
        {
          "internalType": "address",
          "name": "_address",
          "type": "address"
        },
        {
          "internalType": "string",
          "name": "_name",
          "type": "string"
        },
        {
          "internalType": "string",
          "name": "_location",
          "type": "string"
        }
      ],
      "name": "regRetailer",
      "outputs": [],
      "stateMutability": "nonpayable",
      "type": "function"
    },
    {
      "inputs": [
        {
          "internalType": "string",
          "name": "_name",
          "type": "string"
        },
        {
          "internalType": "string",
          "name": "_origin",
          "type": "string"
        },
        {
          "internalType": "string",
          "name": "_nutritionInfo",
          "type": "string"
        }
      ],
      "name": "orderItems",
      "outputs": [],
      "stateMutability": "nonpayable",
      "type": "function"
    },
    {
      "inputs": [
        {
          "internalType": "uint256",
          "name": "_itemID",
          "type": "uint256"
        }
      ],
      "name": "Farmering",
      "outputs": [],
      "stateMutability": "nonpayable",
      "type": "function"
    },
    {
      "inputs": [
        {
          "internalType": "uint256",
          "name": "_itemID",
          "type": "uint256"
        }
      ],
      "name": "Slaughtering",
      "outputs": [],
      "stateMutability": "nonpayable",
      "type": "function"
    },
    {
      "inputs": [
        {
          "internalType": "uint256",
          "name": "_itemID",
          "type": "uint256"
        }
      ],
      "name": "Verifying",
      "outputs": [],
      "stateMutability": "nonpayable",
      "type": "function"
    },
    {
      "inputs": [
        {
          "internalType": "uint256",
          "name": "_itemID",
          "type": "uint256"
        }
      ],
      "name": "Manufacturing",
      "outputs": [],
      "stateMutability": "nonpayable",
      "type": "function"
    },
    {
      "inputs": [
        {
          "internalType": "uint256",
          "name": "_itemID",
          "type": "uint256"
        }
      ],
      "name": "Distributing",
      "outputs": [],
      "stateMutability": "nonpayable",
      "type": "function"
    },
    {
      "inputs": [
        {
          "internalType": "uint256",
          "name": "_itemID",
          "type": "uint256"
        }
      ],
      "name": "Retailing",
      "outputs": [],
      "stateMutability": "nonpayable",
      "type": "function"
    },
    {
      "inputs": [
        {
          "internalType": "uint256",
          "name": "_itemID",
          "type": "uint256"
        }
      ],
      "name": "sold",
      "outputs": [],
      "stateMutability": "nonpayable",
      "type": "function"
    },
    {
      "inputs": [
        {
          "internalType": "uint256",
          "name": "_itemID",
          "type": "uint256"
        }
      ],
      "name": "info",
      "outputs": [
        {
          "internalType": "uint256",
          "name": "id",
          "type": "uint256"
        },
        {
          "internalType": "string",
          "name": "name",
          "type": "string"
        },
        {
          "internalType": "string",
          "name": "origin",
          "type": "string"
        },
        {
          "internalType": "string",
          "name": "nutritionInfo",
          "type": "string"
        },
        {
          "internalType": "uint256",
          "name": "farmerId",
          "type": "uint256"
        },
        {
          "internalType": "uint256",
          "name": "slaughterhouseId",
          "type": "uint256"
        },
        {
          "internalType": "uint256",
          "name": "verifierId",
          "type": "uint256"
        },
        {
          "internalType": "uint256",
          "name": "manufacturerId",
          "type": "uint256"
        },
        {
          "internalType": "uint256",
          "name": "distributorId",
          "type": "uint256"
        },
        {
          "internalType": "uint256",
          "name": "retailerId",
          "type": "uint256"
        },
        {
          "internalType": "enum SupplyChain.PHASE",
          "name": "chronology",
          "type": "uint8"
        }
      ],
      "stateMutability": "view",
      "type": "function",
      "constant": true
    },
    {
      "inputs": [
        {
          "internalType": "enum SupplyChain.ChecklistVerifier",
          "name": "_checklistVerifier",
          "type": "uint8"
        }
      ],
      "name": "verifyTickChecklistItem",
      "outputs": [],
      "stateMutability": "nonpayable",
      "type": "function"
    },
    {
      "inputs": [
        {
          "internalType": "uint256",
          "name": "_itemID",
          "type": "uint256"
        }
      ],
      "name": "HalalStatus",
      "outputs": [
        {
          "internalType": "string",
          "name": "",
          "type": "string"
        }
      ],
      "stateMutability": "view",
      "type": "function",
      "constant": true
    },
    {
      "inputs": [
        {
          "internalType": "enum SupplyChain.ChecklistSlaughter",
          "name": "_checklistSlaughter",
          "type": "uint8"
        }
      ],
      "name": "slaughterTickChecklistItem",
      "outputs": [],
      "stateMutability": "nonpayable",
      "type": "function"
    },
    {
      "inputs": [
        {
          "internalType": "uint256",
          "name": "_itemID",
          "type": "uint256"
        }
      ],
      "name": "SlaughterStatus",
      "outputs": [
        {
          "internalType": "string",
          "name": "",
          "type": "string"
        }
      ],
      "stateMutability": "view",
      "type": "function",
      "constant": true
    }
  ],
  "bytecode": "0x6080604052600060015560006002556000600355600060045560006005556000600655600060075534801561003357600080fd5b50336000806101000a81548173ffffffffffffffffffffffffffffffffffffffff021916908373ffffffffffffffffffffffffffffffffffffffff160217905550614599806100836000396000f3fe608060405234801561001057600080fd5b50600436106102275760003560e01c80637b632d5d11610130578063b50aff6a116100b8578063de0ab25e1161007c578063de0ab25e146106ce578063e2c03ace146106fe578063ed6b6bcf1461071c578063ef364c9c14610738578063fb4adf521461075457610227565b8063b50aff6a14610613578063bd45b39714610643578063be0c6f1c14610661578063c5ce360a1461067f578063cb179b8c146106b257610227565b8063933089db116100ff578063933089db146105875780639c03facb146105a3578063a48d335a146105bf578063a724ddbd146105db578063ad4ea0fb146105f757610227565b80637b632d5d146104ef578063825a05231461050b57806384b2e8021461053b57806389b81d961461055757610227565b80633e131be7116101b357806347c16a7f1161018257806347c16a7f146104335780634ffa689c14610451578063503380f1146104845780636234bde9146104a05780637b495ec9146104bc57610227565b80633e131be714610396578063408fbb2b146103c65780634508bd5c146103f957806347a3377d1461041557610227565b806325b1dc27116101fa57806325b1dc27146102bc5780632857466f146102ef5780632e340599146103225780633ac140e81461035c5780633b3b5b541461037a57610227565b806316b426041461022c57806318bee97e146102485780631b6139301461026657806320fd15f414610282575b600080fd5b610246600480360381019061024191906139d5565b610772565b005b6102506108f9565b60405161025d9190613a6f565b60405180910390f35b610280600480360381019061027b9190613ac0565b61091d565b005b61029c60048036038101906102979190613ac0565b610a04565b6040516102b39b9a99989796959493929190613bfb565b60405180910390f35b6102d660048036038101906102d19190613ac0565b610c03565b6040516102e69493929190613cbb565b60405180910390f35b61030960048036038101906103049190613ac0565b610d63565b6040516103199493929190613cbb565b60405180910390f35b61033c60048036038101906103379190613ac0565b610ec3565b6040516103539b9a99989796959493929190613bfb565b60405180910390f35b6103646111b6565b6040516103719190613d0e565b60405180910390f35b610394600480360381019061038f9190613ac0565b6111bc565b005b6103b060048036038101906103ab9190613ac0565b6112a3565b6040516103bd9190613d29565b60405180910390f35b6103e060048036038101906103db9190613ac0565b6113e9565b6040516103f09493929190613cbb565b60405180910390f35b610413600480360381019061040e9190613ac0565b611549565b005b61041d611630565b60405161042a9190613d0e565b60405180910390f35b61043b611636565b6040516104489190613d0e565b60405180910390f35b61046b60048036038101906104669190613ac0565b61163c565b60405161047b9493929190613cbb565b60405180910390f35b61049e600480360381019061049991906139d5565b61179c565b005b6104ba60048036038101906104b591906139d5565b611923565b005b6104d660048036038101906104d19190613ac0565b611aaa565b6040516104e69493929190613cbb565b60405180910390f35b61050960048036038101906105049190613d70565b611c0a565b005b61052560048036038101906105209190613ac0565b611d40565b6040516105329190613d29565b60405180910390f35b61055560048036038101906105509190613dc2565b611e69565b005b610571600480360381019061056c9190613ac0565b611f9f565b60405161057e9190613e37565b60405180910390f35b6105a1600480360381019061059c91906139d5565b611fbf565b005b6105bd60048036038101906105b89190613ac0565b612146565b005b6105d960048036038101906105d49190613ac0565b612234565b005b6105f560048036038101906105f091906139d5565b6122d9565b005b610611600480360381019061060c91906139d5565b612460565b005b61062d60048036038101906106289190613ac0565b6125e7565b60405161063a9190613e9a565b60405180910390f35b61064b612607565b6040516106589190613d0e565b60405180910390f35b61066961260d565b6040516106769190613d0e565b60405180910390f35b61069960048036038101906106949190613ac0565b612613565b6040516106a99493929190613cbb565b60405180910390f35b6106cc60048036038101906106c79190613ac0565b612773565b005b6106e860048036038101906106e39190613ac0565b61285a565b6040516106f59190613d29565b60405180910390f35b610706612c58565b6040516107139190613d0e565b60405180910390f35b61073660048036038101906107319190613ac0565b612c5e565b005b610752600480360381019061074d9190613eb5565b612d03565b005b61075c612fce565b6040516107699190613d0e565b60405180910390f35b60008054906101000a900473ffffffffffffffffffffffffffffffffffffffff1673ffffffffffffffffffffffffffffffffffffffff163373ffffffffffffffffffffffffffffffffffffffff1614610800576040517f08c379a00000000000000000000000000000000000000000000000000000000081526004016107f790613fa8565b60405180910390fd5b6005600081548092919061081390613ff7565b919050555060405180608001604052808473ffffffffffffffffffffffffffffffffffffffff168152602001600554815260200183815260200182815250600e6000600554815260200190815260200160002060008201518160000160006101000a81548173ffffffffffffffffffffffffffffffffffffffff021916908373ffffffffffffffffffffffffffffffffffffffff1602179055506020820151816001015560408201518160020190805190602001906108d392919061377a565b5060608201518160030190805190602001906108f092919061377a565b50905050505050565b60008054906101000a900473ffffffffffffffffffffffffffffffffffffffff1681565b60008111801561092f57506001548111155b61093857600080fd5b600061094333612fd4565b90506000811161095257600080fd5b6004600781111561096657610965613b84565b5b600a6000848152602001908152602001600020600a0160009054906101000a900460ff16600781111561099c5761099b613b84565b5b146109a657600080fd5b80600a6000848152602001908152602001600020600801819055506005600a6000848152602001908152602001600020600a0160006101000a81548160ff021916908360078111156109fb576109fa613b84565b5b02179055505050565b600a602052806000526040600020600091509050806000015490806001018054610a2d9061406e565b80601f0160208091040260200160405190810160405280929190818152602001828054610a599061406e565b8015610aa65780601f10610a7b57610100808354040283529160200191610aa6565b820191906000526020600020905b815481529060010190602001808311610a8957829003601f168201915b505050505090806002018054610abb9061406e565b80601f0160208091040260200160405190810160405280929190818152602001828054610ae79061406e565b8015610b345780601f10610b0957610100808354040283529160200191610b34565b820191906000526020600020905b815481529060010190602001808311610b1757829003601f168201915b505050505090806003018054610b499061406e565b80601f0160208091040260200160405190810160405280929190818152602001828054610b759061406e565b8015610bc25780601f10610b9757610100808354040283529160200191610bc2565b820191906000526020600020905b815481529060010190602001808311610ba557829003601f168201915b50505050509080600401549080600501549080600601549080600701549080600801549080600901549080600a0160009054906101000a900460ff1690508b565b600e6020528060005260406000206000915090508060000160009054906101000a900473ffffffffffffffffffffffffffffffffffffffff1690806001015490806002018054610c529061406e565b80601f0160208091040260200160405190810160405280929190818152602001828054610c7e9061406e565b8015610ccb5780601f10610ca057610100808354040283529160200191610ccb565b820191906000526020600020905b815481529060010190602001808311610cae57829003601f168201915b505050505090806003018054610ce09061406e565b80601f0160208091040260200160405190810160405280929190818152602001828054610d0c9061406e565b8015610d595780601f10610d2e57610100808354040283529160200191610d59565b820191906000526020600020905b815481529060010190602001808311610d3c57829003601f168201915b5050505050905084565b600d6020528060005260406000206000915090508060000160009054906101000a900473ffffffffffffffffffffffffffffffffffffffff1690806001015490806002018054610db29061406e565b80601f0160208091040260200160405190810160405280929190818152602001828054610dde9061406e565b8015610e2b5780601f10610e0057610100808354040283529160200191610e2b565b820191906000526020600020905b815481529060010190602001808311610e0e57829003601f168201915b505050505090806003018054610e409061406e565b80601f0160208091040260200160405190810160405280929190818152602001828054610e6c9061406e565b8015610eb95780601f10610e8e57610100808354040283529160200191610eb9565b820191906000526020600020905b815481529060010190602001808311610e9c57829003601f168201915b5050505050905084565b600060608060606000806000806000806000808c118015610ee657506001548c11155b610eef57600080fd5b600a60008d8152602001908152602001600020600001549a50600a60008d81526020019081526020016000206001018054610f299061406e565b80601f0160208091040260200160405190810160405280929190818152602001828054610f559061406e565b8015610fa25780601f10610f7757610100808354040283529160200191610fa2565b820191906000526020600020905b815481529060010190602001808311610f8557829003601f168201915b50505050509950600a60008d81526020019081526020016000206002018054610fca9061406e565b80601f0160208091040260200160405190810160405280929190818152602001828054610ff69061406e565b80156110435780601f1061101857610100808354040283529160200191611043565b820191906000526020600020905b81548152906001019060200180831161102657829003601f168201915b50505050509850600a60008d8152602001908152602001600020600301805461106b9061406e565b80601f01602080910402602001604051908101604052809291908181526020018280546110979061406e565b80156110e45780601f106110b9576101008083540402835291602001916110e4565b820191906000526020600020905b8154815290600101906020018083116110c757829003601f168201915b50505050509750600a60008d8152602001908152602001600020600401549650600a60008d8152602001908152602001600020600501549550600a60008d8152602001908152602001600020600601549450600a60008d8152602001908152602001600020600701549350600a60008d8152602001908152602001600020600801549250600a60008d8152602001908152602001600020600901549150600a60008d8152602001908152602001600020600a0160009054906101000a900460ff16905091939597999b90929496989a50565b60065481565b6000811180156111ce57506001548111155b6111d757600080fd5b60006111e23361309a565b9050600081116111f157600080fd5b6001600781111561120557611204613b84565b5b600a6000848152602001908152602001600020600a0160009054906101000a900460ff16600781111561123b5761123a613b84565b5b1461124557600080fd5b80600a6000848152602001908152602001600020600501819055506002600a6000848152602001908152602001600020600a0160006101000a81548160ff0219169083600781111561129a57611299613b84565b5b02179055505050565b6060600082116112b257600080fd5b60006009600084815260200190815260200160002060009054906101000a900460ff169050600060018111156112eb576112ea613b84565b5b8160018111156112fe576112fd613b84565b5b03611341576040518060400160405280601e81526020017f596f7572204974656d206973206e6f7420736c617567687465722079657400008152509150506113e4565b60018081111561135457611353613b84565b5b81600181111561136757611366613b84565b5b036113aa576040518060400160405280601881526020017f596f7572204974656d20697320536c61756768746572656400000000000000008152509150506113e4565b6040518060400160405280601881526020017f556e6b6e6f776e20736c617567687465722073746174757300000000000000008152509150505b919050565b600f6020528060005260406000206000915090508060000160009054906101000a900473ffffffffffffffffffffffffffffffffffffffff16908060010154908060020180546114389061406e565b80601f01602080910402602001604051908101604052809291908181526020018280546114649061406e565b80156114b15780601f10611486576101008083540402835291602001916114b1565b820191906000526020600020905b81548152906001019060200180831161149457829003601f168201915b5050505050908060030180546114c69061406e565b80601f01602080910402602001604051908101604052809291908181526020018280546114f29061406e565b801561153f5780601f106115145761010080835404028352916020019161153f565b820191906000526020600020905b81548152906001019060200180831161152257829003601f168201915b5050505050905084565b60008111801561155b57506001548111155b61156457600080fd5b600061156f33613160565b90506000811161157e57600080fd5b6005600781111561159257611591613b84565b5b600a6000848152602001908152602001600020600a0160009054906101000a900460ff1660078111156115c8576115c7613b84565b5b146115d257600080fd5b80600a6000848152602001908152602001600020600901819055506006600a6000848152602001908152602001600020600a0160006101000a81548160ff0219169083600781111561162757611626613b84565b5b02179055505050565b60035481565b60075481565b600b6020528060005260406000206000915090508060000160009054906101000a900473ffffffffffffffffffffffffffffffffffffffff169080600101549080600201805461168b9061406e565b80601f01602080910402602001604051908101604052809291908181526020018280546116b79061406e565b80156117045780601f106116d957610100808354040283529160200191611704565b820191906000526020600020905b8154815290600101906020018083116116e757829003601f168201915b5050505050908060030180546117199061406e565b80601f01602080910402602001604051908101604052809291908181526020018280546117459061406e565b80156117925780601f1061176757610100808354040283529160200191611792565b820191906000526020600020905b81548152906001019060200180831161177557829003601f168201915b5050505050905084565b60008054906101000a900473ffffffffffffffffffffffffffffffffffffffff1673ffffffffffffffffffffffffffffffffffffffff163373ffffffffffffffffffffffffffffffffffffffff161461182a576040517f08c379a000000000000000000000000000000000000000000000000000000000815260040161182190613fa8565b60405180910390fd5b6003600081548092919061183d90613ff7565b919050555060405180608001604052808473ffffffffffffffffffffffffffffffffffffffff168152602001600354815260200183815260200182815250600c6000600354815260200190815260200160002060008201518160000160006101000a81548173ffffffffffffffffffffffffffffffffffffffff021916908373ffffffffffffffffffffffffffffffffffffffff1602179055506020820151816001015560408201518160020190805190602001906118fd92919061377a565b50606082015181600301908051906020019061191a92919061377a565b50905050505050565b60008054906101000a900473ffffffffffffffffffffffffffffffffffffffff1673ffffffffffffffffffffffffffffffffffffffff163373ffffffffffffffffffffffffffffffffffffffff16146119b1576040517f08c379a00000000000000000000000000000000000000000000000000000000081526004016119a890613fa8565b60405180910390fd5b600660008154809291906119c490613ff7565b919050555060405180608001604052808473ffffffffffffffffffffffffffffffffffffffff168152602001600654815260200183815260200182815250600f6000600654815260200190815260200160002060008201518160000160006101000a81548173ffffffffffffffffffffffffffffffffffffffff021916908373ffffffffffffffffffffffffffffffffffffffff160217905550602082015181600101556040820151816002019080519060200190611a8492919061377a565b506060820151816003019080519060200190611aa192919061377a565b50905050505050565b600c6020528060005260406000206000915090508060000160009054906101000a900473ffffffffffffffffffffffffffffffffffffffff1690806001015490806002018054611af99061406e565b80601f0160208091040260200160405190810160405280929190818152602001828054611b259061406e565b8015611b725780601f10611b4757610100808354040283529160200191611b72565b820191906000526020600020905b815481529060010190602001808311611b5557829003601f168201915b505050505090806003018054611b879061406e565b80601f0160208091040260200160405190810160405280929190818152602001828054611bb39061406e565b8015611c005780601f10611bd557610100808354040283529160200191611c00565b820191906000526020600020905b815481529060010190602001808311611be357829003601f168201915b5050505050905084565b6000611c14613226565b905060026007811115611c2a57611c29613b84565b5b600a6000838152602001908152602001600020600a0160009054906101000a900460ff166007811115611c6057611c5f613b84565b5b14611ca0576040517f08c379a0000000000000000000000000000000000000000000000000000000008152600401611c9790614111565b60405180910390fd5b611ca93361309a565b600a60008381526020019081526020016000206005015414611d00576040517f08c379a0000000000000000000000000000000000000000000000000000000008152600401611cf7906141a3565b60405180910390fd5b60016009600083815260200190815260200160002060006101000a81548160ff02191690836001811115611d3757611d36613b84565b5b02179055505050565b606060008211611d4f57600080fd5b60006008600084815260200190815260200160002060009054906101000a900460ff16905060006001811115611d8857611d87613b84565b5b816001811115611d9b57611d9a613b84565b5b03611dc15760405180606001604052806023815260200161451560239139915050611e64565b600180811115611dd457611dd3613b84565b5b816001811115611de757611de6613b84565b5b03611e2a576040518060400160405280601b81526020017f596f7572204974656d2069732048616c616c2056657269666965640000000000815250915050611e64565b6040518060400160405280601481526020017f556e6b6e6f776e2068616c616c207374617475730000000000000000000000008152509150505b919050565b6000611e7361330b565b905060036007811115611e8957611e88613b84565b5b600a6000838152602001908152602001600020600a0160009054906101000a900460ff166007811115611ebf57611ebe613b84565b5b14611eff576040517f08c379a0000000000000000000000000000000000000000000000000000000008152600401611ef690614235565b60405180910390fd5b611f08336133f0565b600a60008381526020019081526020016000206006015414611f5f576040517f08c379a0000000000000000000000000000000000000000000000000000000008152600401611f56906142c7565b60405180910390fd5b60016008600083815260200190815260200160002060006101000a81548160ff02191690836001811115611f9657611f95613b84565b5b02179055505050565b60086020528060005260406000206000915054906101000a900460ff1681565b60008054906101000a900473ffffffffffffffffffffffffffffffffffffffff1673ffffffffffffffffffffffffffffffffffffffff163373ffffffffffffffffffffffffffffffffffffffff161461204d576040517f08c379a000000000000000000000000000000000000000000000000000000000815260040161204490613fa8565b60405180910390fd5b6007600081548092919061206090613ff7565b919050555060405180608001604052808473ffffffffffffffffffffffffffffffffffffffff16815260200160075481526020018381526020018281525060106000600754815260200190815260200160002060008201518160000160006101000a81548173ffffffffffffffffffffffffffffffffffffffff021916908373ffffffffffffffffffffffffffffffffffffffff16021790555060208201518160010155604082015181600201908051906020019061212092919061377a565b50606082015181600301908051906020019061213d92919061377a565b50905050505050565b60008111801561215857506001548111155b61216157600080fd5b600061216c33613160565b90506000811161217b57600080fd5b600a600083815260200190815260200160002060090154811461219d57600080fd5b600660078111156121b1576121b0613b84565b5b600a6000848152602001908152602001600020600a0160009054906101000a900460ff1660078111156121e7576121e6613b84565b5b146121f157600080fd5b6007600a6000848152602001908152602001600020600a0160006101000a81548160ff0219169083600781111561222b5761222a613b84565b5b02179055505050565b60008111801561224657506001548111155b61224f57600080fd5b600061225a336134b6565b90506000811161226957600080fd5b6122728261357c565b61227b57600080fd5b80600a6000848152602001908152602001600020600701819055506004600a6000848152602001908152602001600020600a0160006101000a81548160ff021916908360078111156122d0576122cf613b84565b5b02179055505050565b60008054906101000a900473ffffffffffffffffffffffffffffffffffffffff1673ffffffffffffffffffffffffffffffffffffffff163373ffffffffffffffffffffffffffffffffffffffff1614612367576040517f08c379a000000000000000000000000000000000000000000000000000000000815260040161235e90613fa8565b60405180910390fd5b6004600081548092919061237a90613ff7565b919050555060405180608001604052808473ffffffffffffffffffffffffffffffffffffffff168152602001600454815260200183815260200182815250600d6000600454815260200190815260200160002060008201518160000160006101000a81548173ffffffffffffffffffffffffffffffffffffffff021916908373ffffffffffffffffffffffffffffffffffffffff16021790555060208201518160010155604082015181600201908051906020019061243a92919061377a565b50606082015181600301908051906020019061245792919061377a565b50905050505050565b60008054906101000a900473ffffffffffffffffffffffffffffffffffffffff1673ffffffffffffffffffffffffffffffffffffffff163373ffffffffffffffffffffffffffffffffffffffff16146124ee576040517f08c379a00000000000000000000000000000000000000000000000000000000081526004016124e590613fa8565b60405180910390fd5b6002600081548092919061250190613ff7565b919050555060405180608001604052808473ffffffffffffffffffffffffffffffffffffffff168152602001600254815260200183815260200182815250600b6000600254815260200190815260200160002060008201518160000160006101000a81548173ffffffffffffffffffffffffffffffffffffffff021916908373ffffffffffffffffffffffffffffffffffffffff1602179055506020820151816001015560408201518160020190805190602001906125c192919061377a565b5060608201518160030190805190602001906125de92919061377a565b50905050505050565b60096020528060005260406000206000915054906101000a900460ff1681565b60025481565b60055481565b60106020528060005260406000206000915090508060000160009054906101000a900473ffffffffffffffffffffffffffffffffffffffff16908060010154908060020180546126629061406e565b80601f016020809104026020016040519081016040528092919081815260200182805461268e9061406e565b80156126db5780601f106126b0576101008083540402835291602001916126db565b820191906000526020600020905b8154815290600101906020018083116126be57829003601f168201915b5050505050908060030180546126f09061406e565b80601f016020809104026020016040519081016040528092919081815260200182805461271c9061406e565b80156127695780601f1061273e57610100808354040283529160200191612769565b820191906000526020600020905b81548152906001019060200180831161274c57829003601f168201915b5050505050905084565b60008111801561278557506001548111155b61278e57600080fd5b600061279933613618565b9050600081116127a857600080fd5b600060078111156127bc576127bb613b84565b5b600a6000848152602001908152602001600020600a0160009054906101000a900460ff1660078111156127f2576127f1613b84565b5b146127fc57600080fd5b80600a6000848152602001908152602001600020600401819055506001600a6000848152602001908152602001600020600a0160006101000a81548160ff0219169083600781111561285157612850613b84565b5b02179055505050565b60606000821161286957600080fd5b6000600781111561287d5761287c613b84565b5b600a6000848152602001908152602001600020600a0160009054906101000a900460ff1660078111156128b3576128b2613b84565b5b036128d857604051806060016040528060228152602001614496602291399050612c53565b600160078111156128ec576128eb613b84565b5b600a6000848152602001908152602001600020600a0160009054906101000a900460ff16600781111561292257612921613b84565b5b03612947576040518060600160405280602f8152602001614442602f91399050612c53565b6002600781111561295b5761295a613b84565b5b600a6000848152602001908152602001600020600a0160009054906101000a900460ff16600781111561299157612990613b84565b5b036129b657604051806060016040528060258152602001614471602591399050612c53565b600360078111156129ca576129c9613b84565b5b600a6000848152602001908152602001600020600a0160009054906101000a900460ff166007811115612a00576129ff613b84565b5b03612a25576040518060600160405280603081526020016144b8603091399050612c53565b60046007811115612a3957612a38613b84565b5b600a6000848152602001908152602001600020600a0160009054906101000a900460ff166007811115612a6f57612a6e613b84565b5b03612a94576040518060600160405280602d81526020016144e8602d91399050612c53565b60056007811115612aa857612aa7613b84565b5b600a6000848152602001908152602001600020600a0160009054906101000a900460ff166007811115612ade57612add613b84565b5b03612b03576040518060600160405280602c8152602001614538602c91399050612c53565b60066007811115612b1757612b16613b84565b5b600a6000848152602001908152602001600020600a0160009054906101000a900460ff166007811115612b4d57612b4c613b84565b5b03612b8f576040518060400160405280601981526020017f4974656d20736166656c79206174207468652073746f72652e000000000000008152509050612c53565b600780811115612ba257612ba1613b84565b5b600a6000848152602001908152602001600020600a0160009054906101000a900460ff166007811115612bd857612bd7613b84565b5b03612c1a576040518060400160405280601281526020017f4974656d20616c726561647920736f6c642e00000000000000000000000000008152509050612c53565b6040518060400160405280601781526020017f556e6b6e6f776e206974656d206368726f6e6f6c6f677900000000000000000081525090505b919050565b60015481565b600081118015612c7057506001548111155b612c7957600080fd5b6000612c84336133f0565b905060008111612c9357600080fd5b612c9c826136de565b612ca557600080fd5b80600a6000848152602001908152602001600020600601819055506003600a6000848152602001908152602001600020600a0160006101000a81548160ff02191690836007811115612cfa57612cf9613b84565b5b02179055505050565b60008054906101000a900473ffffffffffffffffffffffffffffffffffffffff1673ffffffffffffffffffffffffffffffffffffffff163373ffffffffffffffffffffffffffffffffffffffff1614612d91576040517f08c379a0000000000000000000000000000000000000000000000000000000008152600401612d8890613fa8565b60405180910390fd5b6000600254118015612da557506000600354115b8015612db357506000600454115b8015612dc157506000600554115b8015612dcf57506000600654115b8015612ddd57506000600754115b612de657600080fd5b60016000815480929190612df990613ff7565b9190505550604051806101600160405280600154815260200184815260200183815260200182815260200160008152602001600081526020016000815260200160008152602001600081526020016000815260200160006007811115612e6257612e61613b84565b5b815250600a60006001548152602001908152602001600020600082015181600001556020820151816001019080519060200190612ea092919061377a565b506040820151816002019080519060200190612ebd92919061377a565b506060820151816003019080519060200190612eda92919061377a565b506080820151816004015560a0820151816005015560c0820151816006015560e082015181600701556101008201518160080155610120820151816009015561014082015181600a0160006101000a81548160ff02191690836007811115612f4557612f44613b84565b5b0217905550905050600060096000600154815260200190815260200160002060006101000a81548160ff02191690836001811115612f8657612f85613b84565b5b0217905550600060086000600154815260200190815260200160002060006101000a81548160ff02191690836001811115612fc457612fc3613b84565b5b0217905550505050565b60045481565b60008060065411612fe457600080fd5b6000600190505b600654811161308f578273ffffffffffffffffffffffffffffffffffffffff16600f600083815260200190815260200160002060000160009054906101000a900473ffffffffffffffffffffffffffffffffffffffff1673ffffffffffffffffffffffffffffffffffffffff160361307c57600f600082815260200190815260200160002060010154915050613095565b808061308790613ff7565b915050612feb565b50600090505b919050565b600080600354116130aa57600080fd5b6000600190505b6003548111613155578273ffffffffffffffffffffffffffffffffffffffff16600c600083815260200190815260200160002060000160009054906101000a900473ffffffffffffffffffffffffffffffffffffffff1673ffffffffffffffffffffffffffffffffffffffff160361314257600c60008281526020019081526020016000206001015491505061315b565b808061314d90613ff7565b9150506130b1565b50600090505b919050565b6000806007541161317057600080fd5b6000600190505b600754811161321b578273ffffffffffffffffffffffffffffffffffffffff166010600083815260200190815260200160002060000160009054906101000a900473ffffffffffffffffffffffffffffffffffffffff1673ffffffffffffffffffffffffffffffffffffffff1603613208576010600082815260200190815260200160002060010154915050613221565b808061321390613ff7565b915050613177565b50600090505b919050565b600080600190505b60015481116132cc576132403361309a565b600a6000838152602001908152602001600020600501541480156132ab57506002600781111561327357613272613b84565b5b600a6000838152602001908152602001600020600a0160009054906101000a900460ff1660078111156132a9576132a8613b84565b5b145b156132b95780915050613308565b80806132c490613ff7565b91505061322e565b506040517f08c379a00000000000000000000000000000000000000000000000000000000081526004016132ff90614359565b60405180910390fd5b90565b600080600190505b60015481116133b157613325336133f0565b600a60008381526020019081526020016000206006015414801561339057506003600781111561335857613357613b84565b5b600a6000838152602001908152602001600020600a0160009054906101000a900460ff16600781111561338e5761338d613b84565b5b145b1561339e57809150506133ed565b80806133a990613ff7565b915050613313565b506040517f08c379a00000000000000000000000000000000000000000000000000000000081526004016133e4906143eb565b60405180910390fd5b90565b6000806004541161340057600080fd5b6000600190505b60045481116134ab578273ffffffffffffffffffffffffffffffffffffffff16600d600083815260200190815260200160002060000160009054906101000a900473ffffffffffffffffffffffffffffffffffffffff1673ffffffffffffffffffffffffffffffffffffffff160361349857600d6000828152602001908152602001600020600101549150506134b1565b80806134a390613ff7565b915050613407565b50600090505b919050565b600080600554116134c657600080fd5b6000600190505b6005548111613571578273ffffffffffffffffffffffffffffffffffffffff16600e600083815260200190815260200160002060000160009054906101000a900473ffffffffffffffffffffffffffffffffffffffff1673ffffffffffffffffffffffffffffffffffffffff160361355e57600e600082815260200190815260200160002060010154915050613577565b808061356990613ff7565b9150506134cd565b50600090505b919050565b600080600090505b6004600581111561359857613597613b84565b5b60ff168160ff16101561360d576001808111156135b8576135b7613b84565b5b6008600085815260200190815260200160002060009054906101000a900460ff1660018111156135eb576135ea613b84565b5b146135fa576000915050613613565b808061360590614418565b915050613584565b50600190505b919050565b6000806002541161362857600080fd5b6000600190505b60025481116136d3578273ffffffffffffffffffffffffffffffffffffffff16600b600083815260200190815260200160002060000160009054906101000a900473ffffffffffffffffffffffffffffffffffffffff1673ffffffffffffffffffffffffffffffffffffffff16036136c057600b6000828152602001908152602001600020600101549150506136d9565b80806136cb90613ff7565b91505061362f565b50600090505b919050565b600080600090505b600460058111156136fa576136f9613b84565b5b60ff168160ff16101561376f5760018081111561371a57613719613b84565b5b6009600085815260200190815260200160002060009054906101000a900460ff16600181111561374d5761374c613b84565b5b1461375c576000915050613775565b808061376790614418565b9150506136e6565b50600190505b919050565b8280546137869061406e565b90600052602060002090601f0160209004810192826137a857600085556137ef565b82601f106137c157805160ff19168380011785556137ef565b828001600101855582156137ef579182015b828111156137ee5782518255916020019190600101906137d3565b5b5090506137fc9190613800565b5090565b5b80821115613819576000816000905550600101613801565b5090565b6000604051905090565b600080fd5b600080fd5b600073ffffffffffffffffffffffffffffffffffffffff82169050919050565b600061385c82613831565b9050919050565b61386c81613851565b811461387757600080fd5b50565b60008135905061388981613863565b92915050565b600080fd5b600080fd5b6000601f19601f8301169050919050565b7f4e487b7100000000000000000000000000000000000000000000000000000000600052604160045260246000fd5b6138e282613899565b810181811067ffffffffffffffff82111715613901576139006138aa565b5b80604052505050565b600061391461381d565b905061392082826138d9565b919050565b600067ffffffffffffffff8211156139405761393f6138aa565b5b61394982613899565b9050602081019050919050565b82818337600083830152505050565b600061397861397384613925565b61390a565b90508281526020810184848401111561399457613993613894565b5b61399f848285613956565b509392505050565b600082601f8301126139bc576139bb61388f565b5b81356139cc848260208601613965565b91505092915050565b6000806000606084860312156139ee576139ed613827565b5b60006139fc8682870161387a565b935050602084013567ffffffffffffffff811115613a1d57613a1c61382c565b5b613a29868287016139a7565b925050604084013567ffffffffffffffff811115613a4a57613a4961382c565b5b613a56868287016139a7565b9150509250925092565b613a6981613851565b82525050565b6000602082019050613a846000830184613a60565b92915050565b6000819050919050565b613a9d81613a8a565b8114613aa857600080fd5b50565b600081359050613aba81613a94565b92915050565b600060208284031215613ad657613ad5613827565b5b6000613ae484828501613aab565b91505092915050565b613af681613a8a565b82525050565b600081519050919050565b600082825260208201905092915050565b60005b83811015613b36578082015181840152602081019050613b1b565b83811115613b45576000848401525b50505050565b6000613b5682613afc565b613b608185613b07565b9350613b70818560208601613b18565b613b7981613899565b840191505092915050565b7f4e487b7100000000000000000000000000000000000000000000000000000000600052602160045260246000fd5b60088110613bc457613bc3613b84565b5b50565b6000819050613bd582613bb3565b919050565b6000613be582613bc7565b9050919050565b613bf581613bda565b82525050565b600061016082019050613c11600083018e613aed565b8181036020830152613c23818d613b4b565b90508181036040830152613c37818c613b4b565b90508181036060830152613c4b818b613b4b565b9050613c5a608083018a613aed565b613c6760a0830189613aed565b613c7460c0830188613aed565b613c8160e0830187613aed565b613c8f610100830186613aed565b613c9d610120830185613aed565b613cab610140830184613bec565b9c9b505050505050505050505050565b6000608082019050613cd06000830187613a60565b613cdd6020830186613aed565b8181036040830152613cef8185613b4b565b90508181036060830152613d038184613b4b565b905095945050505050565b6000602082019050613d236000830184613aed565b92915050565b60006020820190508181036000830152613d438184613b4b565b905092915050565b60068110613d5857600080fd5b50565b600081359050613d6a81613d4b565b92915050565b600060208284031215613d8657613d85613827565b5b6000613d9484828501613d5b565b91505092915050565b60068110613daa57600080fd5b50565b600081359050613dbc81613d9d565b92915050565b600060208284031215613dd857613dd7613827565b5b6000613de684828501613dad565b91505092915050565b60028110613e0057613dff613b84565b5b50565b6000819050613e1182613def565b919050565b6000613e2182613e03565b9050919050565b613e3181613e16565b82525050565b6000602082019050613e4c6000830184613e28565b92915050565b60028110613e6357613e62613b84565b5b50565b6000819050613e7482613e52565b919050565b6000613e8482613e66565b9050919050565b613e9481613e79565b82525050565b6000602082019050613eaf6000830184613e8b565b92915050565b600080600060608486031215613ece57613ecd613827565b5b600084013567ffffffffffffffff811115613eec57613eeb61382c565b5b613ef8868287016139a7565b935050602084013567ffffffffffffffff811115613f1957613f1861382c565b5b613f25868287016139a7565b925050604084013567ffffffffffffffff811115613f4657613f4561382c565b5b613f52868287016139a7565b9150509250925092565b7f4e6f74206f776e65720000000000000000000000000000000000000000000000600082015250565b6000613f92600983613b07565b9150613f9d82613f5c565b602082019050919050565b60006020820190508181036000830152613fc181613f85565b9050919050565b7f4e487b7100000000000000000000000000000000000000000000000000000000600052601160045260246000fd5b600061400282613a8a565b91507fffffffffffffffffffffffffffffffffffffffffffffffffffffffffffffffff820361403457614033613fc8565b5b600182019050919050565b7f4e487b7100000000000000000000000000000000000000000000000000000000600052602260045260246000fd5b6000600282049050600182168061408657607f821691505b6020821081036140995761409861403f565b5b50919050565b7f4974656d206973206e6f7420696e20736c61756768746572686f75736520706860008201527f6173650000000000000000000000000000000000000000000000000000000000602082015250565b60006140fb602383613b07565b91506141068261409f565b604082019050919050565b6000602082019050818103600083015261412a816140ee565b9050919050565b7f4f6e6c79207468652061737369676e656420736c61756768746572686f75736560008201527f2063616e207469636b20636865636b6c697374206974656d7300000000000000602082015250565b600061418d603983613b07565b915061419882614131565b604082019050919050565b600060208201905081810360008301526141bc81614180565b9050919050565b7f4974656d206973206e6f7420696e20766572696669636174696f6e207068617360008201527f6500000000000000000000000000000000000000000000000000000000000000602082015250565b600061421f602183613b07565b915061422a826141c3565b604082019050919050565b6000602082019050818103600083015261424e81614212565b9050919050565b7f4f6e6c79207468652061737369676e65642076657269666965722063616e207460008201527f69636b20636865636b6c697374206974656d7300000000000000000000000000602082015250565b60006142b1603383613b07565b91506142bc82614255565b604082019050919050565b600060208201905081810360008301526142e0816142a4565b9050919050565b7f43616c6c6572206973206e6f74206173736f636961746564207769746820616e60008201527f79206974656d20696e20536c61756768746572686f7573652070686173650000602082015250565b6000614343603e83613b07565b915061434e826142e7565b604082019050919050565b6000602082019050818103600083015261437281614336565b9050919050565b7f43616c6c6572206973206e6f74206173736f636961746564207769746820616e60008201527f79206974656d20696e20766572696669636174696f6e20706861736500000000602082015250565b60006143d5603c83613b07565b91506143e082614379565b604082019050919050565b60006020820190508181036000830152614404816143c8565b9050919050565b600060ff82169050919050565b60006144238261440b565b915060ff820361443657614435613fc8565b5b60018201905091905056fe4974656d20636f6c6c6563746564206279206661726d6572732c206177616974696e672070726f63657373696e672e4974656d206973206265696e6720736c617567687465722c20706c6561736520776169742e4974656d204f7264657265642c206177616974696e672070726f63657373696e672e4974656d206265696e6720766572696679207468652068616c616c207374617475732c20706c6561736520776169742e4974656d206265696e67206d616e7566616374757265642c206177616974696e672070726f63657373696e672e596f7572204974656d206973206e6f742048616c616c205665726966696564207965744974656d206265696e672064697374726962757465642c206177616974696e672070726f63657373696e672ea2646970667358221220db9213d68c497d7fbe8aad820d491e38cbf917f87f9234db130b4f124b064d2164736f6c634300080d0033",
  "immutableReferences": {},
  "source": "// SPDX-License-Identifier: MIT\npragma solidity >=0.4.22 <0.9.0;\n\ncontract SupplyChain {\n\n     address public Creator;  // msg.sender - whoever deploy this contract (creator)\n\n     constructor(){\n        Creator = msg.sender;\n    }\n\n    /* MODIFIER\n      \n      Notes: https://solidity-by-example.org/function-modifier/\n\n      - Let's say that there's a lot of function that we want it to be only can be access by Owner\n\n      - Normaly we add this line:\n        require(msg.sender == owner, \"Sender is not owner!\");\n\n      - However, we dont want this line to be in all function right?\n\n      - That's where Modifier comes in.\n\n\n      The \" _; \"\n      - If you put it under, it will tell the function to do the modifier first\n      - If you put it above, it will tell the function to do the function first \n       */\n    modifier onlyCreator() {   // This modifier is to esatblish certain function that can only be run by Creator\n        require(msg.sender == Creator , \"Not owner\");  \n        _;\n    }\n\n    /* Supply Chain Flow\n\n            Farmer ---> Manufacturer ---> Distributor --> Retailer\n\n\n        Farmer       - This is where the Manufacturer get their raw material \n\n        Manufacturer - Several manufacture will process the raw material \n\n        Distributor  - This is where we distribute the processed item to numerous store\n\n        Supermarket  - Jaya Grocer for example will receive the processed item from the distributor and will be sold\n                       in the store \n\n\n        Objectives:\n\n        - Develop decentralized food supply chain management that implementing blockchain technology, smart contract and consensus algorithm \n          which could monitor food quality and safety resulting in improvement on traceability, transparency of food products.       \n\n        - Enable real-time surveillance and monitoring of food product, providing stakeholder with accurate information about quality, \n          safety and origin of the product.\n\n\n        3 Functions:\n        - Register each flow\n        - Adding items to the chain\n        - Track the items                   \n\n     */\n\n    \n    // Establish count for each flow \n    uint256 public itemsCount = 0;\n    uint256 public farmerCount = 0;\n    uint256 public slaughterhouseCount = 0;\n    uint256 public verifierCount = 0;\n    uint256 public manufacturerCount = 0;\n    uint256 public distributorCount = 0;\n    uint256 public retailerCount = 0;\n  \n\n\n    \n\n     /* ENUM\n        \n        Notes: https://solidity-by-example.org/enum/\n\n        - Enum is user-defined data type that allows you to define a set of named values. \n        - Enums are often used when you have a fixed set of values that a variable can take.\n\n        - Let's say you're making a game about different animals. \n        - You might want to keep track of what kind of animal a player has chosen. \n        - You could use an enum to do this. \n\n        Example: \n\n        contract AnimalGame {\n            enum Animal { Dog, Cat, Bird, Fish }\n\n            Animal public player1Choice;\n            Animal public player2Choice;\n\n            function player1ChooseDog() public {\n                player1Choice = Animal.Dog;\n            }\n\n            function player1ChooseCat() public {\n                player1Choice = Animal.Cat;\n            }\n\n            function player2ChooseBird() public {\n                player2Choice = Animal.Bird;\n            }\n\n            function player2ChooseFish() public {\n                player2Choice = Animal.Fish;\n            }\n        }\n\n        - In this example, we have a game where two players can choose between four different animals: Dog, Cat, Bird, and Fish. We use an enum called Animal to define these options.\n\n        - The AnimalGame contract has two variables, player1Choice and player2Choice, to keep track of the choices made by the players. \n        - We also have functions like player1ChooseDog, player1ChooseCat, player2ChooseBird, and player2ChooseFish to allow the players to make their choices.\n      */\n\n     /* PHASE\n        The Phase is going to be like this:-\n\n        Order ==> Farmer ==> Manufacturer ==> Distributor ==> Retailer ==> Sold\n\n        - 1) Item Ordered                     (Plugin)\n        - 2) Item are collected by Farmer     (Farmer)\n        - 3) Item are being manufactured      (Manufacturer)\n        - 4) Item are being Distribute        (Distribution)\n        - 5) Item are safely arrived at store (Retail)\n        - 6) Item sold                        (Sold)\n\n        */\n\n\n    \n    \n    enum PHASE {   \n        Plugin,\n        Farmer,\n        Slaughterhouse,\n        Verifier,\n        Manufacturer,\n        Distribution,\n        Retail,\n        Sold\n    }\n\n    enum STATUS {\n        NonVerified,\n        Verified\n    }\n    mapping(uint256 => STATUS) public ItemsStatus;\n\n    // Enum to represent the checklist items for HALAL VERIFICATION\n    enum ChecklistVerifier {\n        RawMaterialsHalalCompliant,\n        SupplierHasHalalCertification,\n        EquipmentFreeFromContamination,\n        CorrectSlaughteringMethods,\n        LabelingAndPackagingMeetsHalalStandards,\n        StaffProperlyTrainedInHalalProcedures\n    }\n\n\n    enum SLAUGHTER {\n        NonSlaughter,\n        Slaughter\n    }\n     mapping(uint256 => SLAUGHTER) public ItemsSlaughter;\n\n\n    // Enum to represent the checklist items for SLAUGHTERHOUSE\n    enum ChecklistSlaughter {\n        isPracticingMuslim,             // Verify that the slaughterer is a practicing Muslim of sound mind.\n        isInvocationCorrect,            // Confirm the correct invocation of Allah's name during slaughter.\n        isCorrectSlaughterMethod,       // Ensure the correct method of slaughter was followed.\n        isBloodDrained,                 // Verify that the blood was thoroughly drained from the carcass after slaughter.\n        isPreventionOfContamination,    // Implement strict measures to prevent cross-contamination.\n        hasHalalCertification           // Display and regularly renew a valid halal certification.\n    }\n    \n    /* STRUCT \n\n        Notes: https://www.tutorialspoint.com/solidity/solidity_structs.htm\n\n        - Structs are used to group variables of different data types under a single name\n\n        - Struct also are used to represent a record\n\n        - Suppose you want to keep track of your books in a library. You might want to track the following attributes about each book\n\n        -> Title\n        -> Author\n        -> Subject\n        -> Book ID\n\n        struct Book { \n            string title;\n            string author;\n            string subject;\n            uint256 book_id;\n\n        }\n        mapping(uint256 => Book) public BookInfo;\n\n     */\n\n    struct items {\n        uint256 id;\n        string name;\n        string origin;\n        string nutritionInfo;\n\n        uint256 farmerId;\n        uint256 slaughterhouseId;  \n        uint256 verifierId;\n        uint256 manufacturerId;\n        uint256 distributorId;\n        uint256 retailerId;\n\n        PHASE chronology; \n    }\n\n    mapping(uint256 => items) public ItemsInfo;   //mapping is like you stuff everything into 1 variable.\n\n    \n\n\n    function Chronology(\n        uint256 _itemID\n    ) public view returns (string memory) {\n\n        require(_itemID > 0);  // Ensure that the provided item ID is valid (greater than 0) well which is you have to order item first\n\n        // Check the current phase of the item using its ID\n        if (ItemsInfo[_itemID].chronology == PHASE.Plugin)\n            return \"Item Ordered, awaiting processing.\";\n        else if (ItemsInfo[_itemID].chronology == PHASE.Farmer)\n            return \"Item collected by farmers, awaiting processing.\"; \n        else if (ItemsInfo[_itemID].chronology == PHASE.Slaughterhouse)\n            return \"Item is being slaughter, please wait.\"; \n        else if (ItemsInfo[_itemID].chronology == PHASE.Verifier)\n            return \"Item being verify the halal status, please wait.\";     \n        else if (ItemsInfo[_itemID].chronology == PHASE.Manufacturer)\n            return \"Item being manufactured, awaiting processing.\"; \n        else if (ItemsInfo[_itemID].chronology == PHASE.Distribution)\n            return \"Item being distributed, awaiting processing.\";  \n        else if (ItemsInfo[_itemID].chronology == PHASE.Retail)\n            return \"Item safely at the store.\";  \n        else if (ItemsInfo[_itemID].chronology == PHASE.Sold)\n            return \"Item already sold.\";  \n\n        return \"Unknown item chronology\";\n    }\n\n\n    /* MAPPING\n\n        Notes: https://www.tutorialspoint.com/solidity/solidity_mappings.htm\n\n        - It's like storing a state variable\n        - string items = \"meat\"\n\n        However, in this case we store a struct:\n\n            mapping(uint256 => farmer) public myFarmer\n\n        We store struct \"farmer\" into the myFarmer that will be used in the future\n\n     */\n\n\n    struct farmer {\n        address addr;\n        uint256 id;\n        string name; \n        string location; \n    }\n\n    mapping(uint256 => farmer) public farmerInfo;  // You can call this variable and it'll show all the admin's attributes\n\n\n    struct slaughterhouse{\n        address addr;\n        uint256 id; \n        string name; \n        string location; \n    }\n\n    mapping(uint256 => slaughterhouse) public slaughterhouseInfo;\n\n\n    struct verifier{\n        address addr;\n        uint256 id; \n        string name; \n        string location; \n    }\n\n    mapping(uint256 => verifier) public verifierInfo;\n\n    struct manufacturer {\n        address addr;\n        uint256 id;\n        string name; \n        string location; \n    }\n\n    mapping(uint256 => manufacturer) public manufacturerInfo;\n   \n\n    struct distributor {\n        address addr;\n        uint256 id;\n        string name; \n        string location;\n    }\n\n    mapping(uint256 => distributor) public distributorInfo;\n\n\n    struct retailer{\n        address addr;\n        uint256 id; \n        string name; \n        string location; \n    }\n\n    mapping(uint256 => retailer) public retailerInfo;\n\n\n   \n\n\n    /*-----------------Register Each Flow----------------------\n     Farmer ---> Manufacturer ---> Distributor --> Retailer\n\n\n        Farmer       - This is where the Manufacturer get their raw material \n\n        Manufacturer - Several manufacture will process the raw material \n\n        Distributor  - This is where we distribute the processed item to numerous store\n\n        Supermarket  - Jaya Grocer for example will receive the processed item from the distributor and will be sold\n                       in the store \n\n\n\n        OnlyOwner:                       \n        - So the onlyOwner is to make sure only Owner can register the flow\n        - This ensure that the system is secure and being handled by authorize person\n\n        The count will increase. The Owner will register 3 attributes occupied with the flow.\n\n\n\n\n\n     \n\n    /* Data Location\n\n        Notes: https://solidity-by-example.org/data-locations/\n\n        Variables are declared as either storage, memory or calldata to explicitly specify the location of the data.\n\n        storage  - variable is a state variable (store on blockchain)\n        memory   - variable is in memory and it exists while a function is being called\n        calldata - special data location that contains function arguments\n\n\n     */\n    /* Underscore in function's attributes\n\n        - In Solidity, using an underscore before a parameter name, like \"address _address\", \n          is a common convention to distinguish between function parameters and state variables. \n\n        - This convention helps avoid naming conflicts and makes the code more readable.\n     */\n\n\n    function regFarmer(\n        address _address,  // This is wallet address \n        string memory _name,  // Name of the farmer\n        string memory _location  // Where's the farmer based in?\n    ) public onlyCreator {  // Only creator/owner can register all the admin\n        farmerCount++;\n        farmerInfo[farmerCount] = farmer(_address, farmerCount, _name, _location);  // All this attributes will be stored in farmerInfo\n    }\n\n\n    function regSlaughterhouse(\n        address _address,  \n        string memory _name, \n        string memory _location  \n    ) public onlyCreator {  \n        slaughterhouseCount++;\n        slaughterhouseInfo[slaughterhouseCount] = slaughterhouse(_address, slaughterhouseCount, _name, _location);  // All this attributes will be stored in slaughterhouseInfo\n    }\n\n\n    function regVerifier(\n        address _address,\n        string memory _name,\n        string memory _location\n    ) public onlyCreator {\n        verifierCount++;\n        verifierInfo[verifierCount] = verifier(_address, verifierCount, _name, _location);  // All this attributes will be stored in verifierInfo\n    }\n\n\n    function regManufacturer(\n        address _address,\n        string memory _name,\n        string memory _location\n    ) public onlyCreator {\n        manufacturerCount++;\n        manufacturerInfo[manufacturerCount] = manufacturer(_address, manufacturerCount, _name, _location);  // All this attributes will be stored in manufacturerInfo\n    }\n    \n    function regDistributor(\n        address _address,\n        string memory _name,\n        string memory _location\n    ) public onlyCreator {\n        distributorCount++;\n        distributorInfo[distributorCount] = distributor(_address, distributorCount, _name, _location); // All this attributes will be stored in distributorInfo\n    }\n\n     //To add retailer. Only contract owner can add a new retailer\n    function regRetailer(\n        address _address,\n        string memory _name,\n        string memory _location\n    ) public onlyCreator {\n        retailerCount++;\n        retailerInfo[retailerCount] = retailer(_address, retailerCount, _name, _location); // All this attributes will be stored in retailerInfo\n    }\n\n\n\n    /*-----------------Ordering----------------------\n      \n     So the function will going to consists with approximately 3 attributes (Well for now):\n        => Origin - Where this items come from\n        => Nutrition Information - net weight, how many carbs, fat, sodium , and etc\n        => Name - Mister Potato\n        => As well as the id of each flow since we going to track the\n           progress of food items through the supply chain.\n\n     function orderItems{\n        string name\n        string origin \n        string nutritionInfo\n    \n        uint256 id\n        uint256 farmerId\n        uint256 manufacturerId\n        uint256 distributorId\n        uint256 retailerId\n\n     }\n\n     struct items{\n         uint256 Id;\n         string name;\n         string origin;\n         string nutritionInfo;\n        \n         uint256 farmerId;\n         uint256 manufacturerId;\n         uint256 distributorId;\n         uint256 retailerId;\n         PHASE chronology;\n     } \n     */\n\n    function orderItems(\n        string memory _name,\n        string memory _origin,\n        string memory _nutritionInfo\n\n    ) public onlyCreator {\n        require((farmerCount > 0) && (slaughterhouseCount > 0) && (verifierCount > 0) && (manufacturerCount > 0) && (distributorCount > 0) && (retailerCount > 0));   // Before order, Creator have to register all the admin\n        itemsCount++;\n        ItemsInfo[itemsCount] = items(itemsCount, _name, _origin, _nutritionInfo, 0, 0, 0, 0, 0, 0, PHASE.Plugin); // All this attributes will be stored in ItemsInfo\n        ItemsSlaughter[itemsCount] = SLAUGHTER.NonSlaughter;\n        ItemsStatus[itemsCount] = STATUS.NonVerified;\n    }  \n\n\n\n\n\n    /*-----------------Administration------------------\n\n     Admin is where each admin of the flow establish the status of item.\n\n     Alright let's give an example:\n\n     - Let's say we already ordered an item. It PHASE would be \"Ordered\"\n     - So to change the PHASE from Ordered-to-Farmer, The farmer have to established the status of the item\n     - So Farmer will establish the item as their responsibility\n\n     The Flow is going to be like this:-\n\n     Farmer ==> Manufacturer ==> Distributor ==> Retailer \n\n     - 1) Item Ordered                     (Punch In)\n     - 2) Item are collected by Farmer     (Farmer)\n     - 3) Item are being manufactured      (Manufacturer)\n     - 4) Item are being Distribute        (Distribution)\n     - 5) Item are safely arrived at store (Retail)\n     - 6) Item sold                        (Sold)\n\n\n     */\n\n    \n\n\n    /* ----------------Tracking------------------\n      \n     The Flow is going to be like this:-\n\n     Farmer ==> Manufacturer ==> Distributor ==> Retailer \n    \n     We going to track the items through Supply Chain\n\n     uint256 public farmerCount = 0;\n     uint256 public manufacturerCount = 0;\n     uint256 public distributorCount = 0;\n     uint256 public retailerCount = 0;\n     uint256 public itemsCount = 0;\n\n     struct items{\n        uint256 Id;\n        string name;\n        string origin;\n        string nutritionInfo;\n\n        uint256 farmerId;\n        uint256 manufacturerId;\n        uint256 distributorId;\n        uint256 retailerId;\n        PHASE chronology;\n     } \n\n     enum PHASE{\n        Plugin,  \n        Farmer,\n        Manufacturer,\n        Distribution,\n        Retail,\n        Sold\n     }\n     */\n\n    // To change the flow from Ordered ==> Farmer\n    function Farmering(uint256 _itemID) public {\n        require(_itemID > 0 && _itemID <= itemsCount);          // Ensure that we already order an Item and  \n        uint256 _id = trackFarmer(msg.sender);                  // Get the ID of the calling farmer\n        require(_id > 0);                                       // Ensure the farmer ID is valid\n        require(ItemsInfo[_itemID].chronology == PHASE.Plugin); // Ensure the item is in the Plugin phase\n        ItemsInfo[_itemID].farmerId = _id;                      // Assign the farmer ID to the item\n        ItemsInfo[_itemID].chronology = PHASE.Farmer;           // Update the item's chronology to Farmer\n        \n    }\n\n    // To track \n    function trackFarmer(address _address) private view returns (uint256) {\n        require(farmerCount > 0);                                       // Ensure that there is at least one registered farmer\n\n        for (uint256 i = 1; i <= farmerCount; i++) {\n            if (farmerInfo[i].addr == _address)   // Ensure that farmer's address same with the farmer's address that we registered \n            return farmerInfo[i].id;              // if all went well, it'll return ID\n        }\n        return 0;\n\n    }\n\n    // To change the flow from Farmer ==> Slaughterhouse\n    function Slaughtering(uint256 _itemID) public {\n        require(_itemID > 0 && _itemID <= itemsCount);          \n        uint256 _id = trackSlaughterhouse(msg.sender);                  \n        require(_id > 0);                                      \n        require(ItemsInfo[_itemID].chronology == PHASE.Farmer); \n        ItemsInfo[_itemID].slaughterhouseId = _id;                      \n        ItemsInfo[_itemID].chronology = PHASE.Slaughterhouse;           \n        \n    }\n\n    // To track \n    function trackSlaughterhouse(address _address) private view returns (uint256) {\n        require(slaughterhouseCount > 0);                                       \n\n        for (uint256 i = 1; i <= slaughterhouseCount; i++) {\n            if (slaughterhouseInfo[i].addr == _address)   \n            return slaughterhouseInfo[i].id;             \n        }\n        return 0;\n\n    }\n\n\n    //To change the flow from Slaughterhouse ==> Verifier\n     function Verifying(uint256 _itemID) public {\n        require(_itemID > 0 && _itemID <= itemsCount);           \n        uint256 _id = trackVerifier(msg.sender);                \n        require(_id > 0);       \n        require(slaughterVerify(_itemID));\n        ItemsInfo[_itemID].verifierId = _id;                     \n        ItemsInfo[_itemID].chronology = PHASE.Verifier;         \n    }\n\n    // To verify \n    function trackVerifier(address _address) private view returns (uint256) {\n        require(verifierCount > 0);                                       \n\n        for (uint256 i = 1; i <= verifierCount; i++) {\n            if (verifierInfo[i].addr == _address)   \n            return verifierInfo[i].id;              \n        }\n        return 0;\n\n    }\n\n\n    // To change the flow from Verifier ==> Manufacturer\n    function Manufacturing(uint256 _itemID) public {\n        require(_itemID > 0 && _itemID <= itemsCount);\n        uint256 _id = trackManufacture(msg.sender);\n        require(_id > 0);\n        require(halalVerify(_itemID));\n        ItemsInfo[_itemID].manufacturerId = _id;\n        ItemsInfo[_itemID].chronology = PHASE.Manufacturer;\n    }\n\n    // To track \n    function trackManufacture(address _address) private view returns (uint256) {\n        require(manufacturerCount > 0);\n        for (uint256 i = 1; i <= manufacturerCount; i++) {\n            if (manufacturerInfo[i].addr == _address) \n            return manufacturerInfo[i].id;\n        }\n        return 0;\n    }\n\n\n\n    // To change the flow from Manufacturer ==> Distributor\n    function Distributing(uint256 _itemID) public {\n        require(_itemID > 0 && _itemID <= itemsCount);\n        uint256 _id = trackDistribution(msg.sender);\n        require(_id > 0);\n        require(ItemsInfo[_itemID].chronology == PHASE.Manufacturer);\n        ItemsInfo[_itemID].distributorId = _id;\n        ItemsInfo[_itemID].chronology = PHASE.Distribution;\n    }\n\n    // To track \n    function trackDistribution(address _address) private view returns (uint256) {\n        require(distributorCount > 0);\n        for (uint256 i = 1; i <= distributorCount; i++) {\n            if (distributorInfo[i].addr == _address) \n            return distributorInfo[i].id;\n        }\n        return 0;\n    }\n\n\n    // To change the flow from Distributor ==> Retail\n    function Retailing(uint256 _itemID) public {\n        require(_itemID > 0 && _itemID <= itemsCount);\n        uint256 _id = trackRetailer(msg.sender);\n        require(_id > 0);\n        require(ItemsInfo[_itemID].chronology == PHASE.Distribution);\n        ItemsInfo[_itemID].retailerId = _id;\n        ItemsInfo[_itemID].chronology = PHASE.Retail;\n    }\n\n    // To track \n    function trackRetailer(address _address) private view returns (uint256) {\n        require(retailerCount > 0);\n        for (uint256 i = 1; i <= retailerCount; i++) {\n            if (retailerInfo[i].addr == _address) \n            return retailerInfo[i].id;\n        }\n        return 0;\n    }\n\n    // To change the flow from Retail ==> Sold\n    function sold(uint256 _itemID) public {\n        require(_itemID > 0 && _itemID <= itemsCount);\n        uint256 _id = trackRetailer(msg.sender);\n        require(_id > 0);\n        require(_id == ItemsInfo[_itemID].retailerId); //Only correct retailer can mark medicine as sold\n        require(ItemsInfo[_itemID].chronology == PHASE.Retail);\n        ItemsInfo[_itemID].chronology = PHASE.Sold;\n    }\n\n\n    /* ----------------Item Information--------------------\n        - This section is to see the product information\n        */ \n\n    // To view the product information\n    function info(uint256 _itemID) public view returns (\n    uint256 id,\n    string memory name,\n    string memory origin,\n    string memory nutritionInfo,\n    uint256 farmerId,\n    uint256 slaughterhouseId,\n    uint256 verifierId,\n    uint256 manufacturerId,\n    uint256 distributorId,\n    uint256 retailerId,\n    PHASE chronology\n     \n    ) {\n    require(_itemID > 0 && _itemID <= itemsCount);\n\n    // Retrieve information from the specified item\n    id = ItemsInfo[_itemID].id;\n    name = ItemsInfo[_itemID].name;\n    origin = ItemsInfo[_itemID].origin;\n    nutritionInfo = ItemsInfo[_itemID].nutritionInfo;\n\n\n\n    farmerId = ItemsInfo[_itemID].farmerId;\n    slaughterhouseId = ItemsInfo[_itemID].slaughterhouseId;\n    verifierId = ItemsInfo[_itemID].verifierId;\n    manufacturerId = ItemsInfo[_itemID].manufacturerId;\n    distributorId = ItemsInfo[_itemID].distributorId;\n    retailerId = ItemsInfo[_itemID].retailerId;\n\n\n    chronology = ItemsInfo[_itemID].chronology;\n    }\n\n    //-------------HALAL VERIFICATION PROCESS---------------------\n\n\n         // Function for the verifier to tick off checklist items\n    function verifyTickChecklistItem(ChecklistVerifier _checklistVerifier) public {\n        // Get the itemID associated with the calling user\n        uint256 _itemID = getVerifierItemID();\n\n        // Ensure the caller is the assigned verifier for the item\n        require(ItemsInfo[_itemID].chronology == PHASE.Verifier, \"Item is not in verification phase\");\n        require(ItemsInfo[_itemID].verifierId == trackVerifier(msg.sender), \"Only the assigned verifier can tick checklist items\");\n\n        ItemsStatus[_itemID] = STATUS.Verified;\n        \n\n    }\n\n    // Function to get the itemID associated with the calling user\n    function getVerifierItemID() private view returns (uint256) {\n        // Iterate through items and find the one associated with the caller\n        for (uint256 i = 1; i <= itemsCount; i++) {\n            if (ItemsInfo[i].verifierId == trackVerifier(msg.sender) && ItemsInfo[i].chronology == PHASE.Verifier) {\n                return i;\n            }\n        }\n        revert(\"Caller is not associated with any item in verification phase\");\n    }\n\n\n    function HalalStatus(\n        uint256 _itemID\n    ) public view returns (string memory) {\n        require(_itemID > 0);\n\n        // Retrieve halal status from the specified item\n        STATUS status = ItemsStatus[_itemID];\n\n        // Check the halal status and return the corresponding message\n        if (status == STATUS.NonVerified) {\n            return \"Your Item is not Halal Verified yet\";\n        } else if (status == STATUS.Verified) {\n            return \"Your Item is Halal Verified\";\n        }\n        return \"Unknown halal status\";\n    }\n\n\n\n    // Function to perform overall halal verification\n    function halalVerify(uint256 _itemID) private returns (bool) {\n    // Check if the item is in the verification phase\n    for (uint8 i = 0; i < uint8(ChecklistVerifier.LabelingAndPackagingMeetsHalalStandards); i++) {\n        if (ItemsStatus[_itemID] != STATUS.Verified) {\n            return false;\n        }\n    }\n    return true;\n\n    }\n\n\n\n\n\n    //-------------SLAUGHTERING VERIFICATION PROCESS---------------------\n\n     function slaughterTickChecklistItem(ChecklistSlaughter _checklistSlaughter) public {\n        uint256 _itemID = getSlaughterhouseItemID();\n\n        require(ItemsInfo[_itemID].chronology == PHASE.Slaughterhouse, \"Item is not in slaughterhouse phase\");\n        require(ItemsInfo[_itemID].slaughterhouseId == trackSlaughterhouse(msg.sender), \"Only the assigned slaughterhouse can tick checklist items\");\n\n        ItemsSlaughter[_itemID] = SLAUGHTER.Slaughter;\n        \n\n    } \n    function getSlaughterhouseItemID() private view returns (uint256) {\n        for (uint256 i = 1; i <= itemsCount; i++) {\n            if (ItemsInfo[i].slaughterhouseId == trackSlaughterhouse(msg.sender) && ItemsInfo[i].chronology == PHASE.Slaughterhouse) {\n                return i;\n            }\n        }\n        revert(\"Caller is not associated with any item in Slaughterhouse phase\");\n    }\n\n    function SlaughterStatus(\n        uint256 _itemID\n    ) public view returns (string memory) {\n        require(_itemID > 0);\n\n        SLAUGHTER slaughter = ItemsSlaughter[_itemID];\n\n        if (slaughter == SLAUGHTER.NonSlaughter) {\n            return \"Your Item is not slaughter yet\";\n        } else if (slaughter == SLAUGHTER.Slaughter) {\n            return \"Your Item is Slaughtered\";\n        }\n        return \"Unknown slaughter status\";\n    }\n\n\n\n    function slaughterVerify(uint256 _itemID) private returns (bool) {\n    for (uint8 i = 0; i < uint8(ChecklistSlaughter.isPreventionOfContamination); i++) {\n        if (ItemsSlaughter[_itemID] != SLAUGHTER.Slaughter) {\n            return false;\n        }\n    }\n    return true;\n\n    }\n}",
  "sourcePath": "/home/alifzwan/Documents/React/React-Supply-Chain/contracts/SupplyChain.sol",
  "compiler": {
    "name": "solc",
    "version": "0.8.13+commit.abaa5c0e.Emscripten.clang"
  },
  "schemaVersion": "3.4.16",
  "updatedAt": "2023-12-21T23:52:16.327Z",
  "networkType": "ethereum",
  "devdoc": {
    "kind": "dev",
    "methods": {},
    "version": 1
  },
  "userdoc": {
    "kind": "user",
    "methods": {},
    "version": 1
  }
}