{
  "contractName": "SupplyChain",
  "abi": [
    {
      "inputs": [],
      "stateMutability": "nonpayable",
      "type": "constructor"
    },
    {
      "inputs": [],
      "name": "Creator",
      "outputs": [
        {
          "internalType": "address",
          "name": "",
          "type": "address"
        }
      ],
      "stateMutability": "view",
      "type": "function",
      "constant": true
    },
    {
      "inputs": [
        {
          "internalType": "uint256",
          "name": "",
          "type": "uint256"
        }
      ],
      "name": "ItemsInfo",
      "outputs": [
        {
          "internalType": "uint256",
          "name": "id",
          "type": "uint256"
        },
        {
          "internalType": "string",
          "name": "name",
          "type": "string"
        },
        {
          "internalType": "string",
          "name": "categories",
          "type": "string"
        },
        {
          "internalType": "string",
          "name": "brand",
          "type": "string"
        },
        {
          "internalType": "string",
          "name": "origin",
          "type": "string"
        },
        {
          "internalType": "string",
          "name": "nutritionInfo",
          "type": "string"
        },
        {
          "internalType": "uint256",
          "name": "farmerId",
          "type": "uint256"
        },
        {
          "internalType": "uint256",
          "name": "manufacturerId",
          "type": "uint256"
        },
        {
          "internalType": "uint256",
          "name": "distributorId",
          "type": "uint256"
        },
        {
          "internalType": "uint256",
          "name": "retailerId",
          "type": "uint256"
        },
        {
          "internalType": "enum SupplyChain.PHASE",
          "name": "chronology",
          "type": "uint8"
        }
      ],
      "stateMutability": "view",
      "type": "function",
      "constant": true
    },
    {
      "inputs": [],
      "name": "distributorCount",
      "outputs": [
        {
          "internalType": "uint256",
          "name": "",
          "type": "uint256"
        }
      ],
      "stateMutability": "view",
      "type": "function",
      "constant": true
    },
    {
      "inputs": [
        {
          "internalType": "uint256",
          "name": "",
          "type": "uint256"
        }
      ],
      "name": "distributorInfo",
      "outputs": [
        {
          "internalType": "address",
          "name": "addr",
          "type": "address"
        },
        {
          "internalType": "uint256",
          "name": "id",
          "type": "uint256"
        },
        {
          "internalType": "string",
          "name": "name",
          "type": "string"
        },
        {
          "internalType": "string",
          "name": "location",
          "type": "string"
        }
      ],
      "stateMutability": "view",
      "type": "function",
      "constant": true
    },
    {
      "inputs": [],
      "name": "farmerCount",
      "outputs": [
        {
          "internalType": "uint256",
          "name": "",
          "type": "uint256"
        }
      ],
      "stateMutability": "view",
      "type": "function",
      "constant": true
    },
    {
      "inputs": [
        {
          "internalType": "uint256",
          "name": "",
          "type": "uint256"
        }
      ],
      "name": "farmerInfo",
      "outputs": [
        {
          "internalType": "address",
          "name": "addr",
          "type": "address"
        },
        {
          "internalType": "uint256",
          "name": "id",
          "type": "uint256"
        },
        {
          "internalType": "string",
          "name": "name",
          "type": "string"
        },
        {
          "internalType": "string",
          "name": "location",
          "type": "string"
        }
      ],
      "stateMutability": "view",
      "type": "function",
      "constant": true
    },
    {
      "inputs": [],
      "name": "itemsCount",
      "outputs": [
        {
          "internalType": "uint256",
          "name": "",
          "type": "uint256"
        }
      ],
      "stateMutability": "view",
      "type": "function",
      "constant": true
    },
    {
      "inputs": [],
      "name": "manufacturerCount",
      "outputs": [
        {
          "internalType": "uint256",
          "name": "",
          "type": "uint256"
        }
      ],
      "stateMutability": "view",
      "type": "function",
      "constant": true
    },
    {
      "inputs": [
        {
          "internalType": "uint256",
          "name": "",
          "type": "uint256"
        }
      ],
      "name": "manufacturerInfo",
      "outputs": [
        {
          "internalType": "address",
          "name": "addr",
          "type": "address"
        },
        {
          "internalType": "uint256",
          "name": "id",
          "type": "uint256"
        },
        {
          "internalType": "string",
          "name": "name",
          "type": "string"
        },
        {
          "internalType": "string",
          "name": "location",
          "type": "string"
        }
      ],
      "stateMutability": "view",
      "type": "function",
      "constant": true
    },
    {
      "inputs": [],
      "name": "retailerCount",
      "outputs": [
        {
          "internalType": "uint256",
          "name": "",
          "type": "uint256"
        }
      ],
      "stateMutability": "view",
      "type": "function",
      "constant": true
    },
    {
      "inputs": [
        {
          "internalType": "uint256",
          "name": "",
          "type": "uint256"
        }
      ],
      "name": "retailerInfo",
      "outputs": [
        {
          "internalType": "address",
          "name": "addr",
          "type": "address"
        },
        {
          "internalType": "uint256",
          "name": "id",
          "type": "uint256"
        },
        {
          "internalType": "string",
          "name": "name",
          "type": "string"
        },
        {
          "internalType": "string",
          "name": "location",
          "type": "string"
        }
      ],
      "stateMutability": "view",
      "type": "function",
      "constant": true
    },
    {
      "inputs": [
        {
          "internalType": "uint256",
          "name": "_itemID",
          "type": "uint256"
        }
      ],
      "name": "Chronology",
      "outputs": [
        {
          "internalType": "string",
          "name": "",
          "type": "string"
        }
      ],
      "stateMutability": "view",
      "type": "function",
      "constant": true
    },
    {
      "inputs": [
        {
          "internalType": "address",
          "name": "_address",
          "type": "address"
        },
        {
          "internalType": "string",
          "name": "_name",
          "type": "string"
        },
        {
          "internalType": "string",
          "name": "_location",
          "type": "string"
        }
      ],
      "name": "regFarmer",
      "outputs": [],
      "stateMutability": "nonpayable",
      "type": "function"
    },
    {
      "inputs": [
        {
          "internalType": "address",
          "name": "_address",
          "type": "address"
        },
        {
          "internalType": "string",
          "name": "_name",
          "type": "string"
        },
        {
          "internalType": "string",
          "name": "_location",
          "type": "string"
        }
      ],
      "name": "regManufacturer",
      "outputs": [],
      "stateMutability": "nonpayable",
      "type": "function"
    },
    {
      "inputs": [
        {
          "internalType": "address",
          "name": "_address",
          "type": "address"
        },
        {
          "internalType": "string",
          "name": "_name",
          "type": "string"
        },
        {
          "internalType": "string",
          "name": "_location",
          "type": "string"
        }
      ],
      "name": "regDistributor",
      "outputs": [],
      "stateMutability": "nonpayable",
      "type": "function"
    },
    {
      "inputs": [
        {
          "internalType": "address",
          "name": "_address",
          "type": "address"
        },
        {
          "internalType": "string",
          "name": "_name",
          "type": "string"
        },
        {
          "internalType": "string",
          "name": "_location",
          "type": "string"
        }
      ],
      "name": "regRetailer",
      "outputs": [],
      "stateMutability": "nonpayable",
      "type": "function"
    },
    {
      "inputs": [
        {
          "internalType": "string",
          "name": "_name",
          "type": "string"
        },
        {
          "internalType": "string",
          "name": "_categories",
          "type": "string"
        },
        {
          "internalType": "string",
          "name": "_brand",
          "type": "string"
        },
        {
          "internalType": "string",
          "name": "_origin",
          "type": "string"
        },
        {
          "internalType": "string",
          "name": "_nutritionInfo",
          "type": "string"
        }
      ],
      "name": "orderItems",
      "outputs": [],
      "stateMutability": "nonpayable",
      "type": "function"
    },
    {
      "inputs": [
        {
          "internalType": "uint256",
          "name": "_itemID",
          "type": "uint256"
        }
      ],
      "name": "Farmering",
      "outputs": [],
      "stateMutability": "nonpayable",
      "type": "function"
    },
    {
      "inputs": [
        {
          "internalType": "uint256",
          "name": "_itemID",
          "type": "uint256"
        }
      ],
      "name": "Manufacturing",
      "outputs": [],
      "stateMutability": "nonpayable",
      "type": "function"
    },
    {
      "inputs": [
        {
          "internalType": "uint256",
          "name": "_itemID",
          "type": "uint256"
        }
      ],
      "name": "Distributing",
      "outputs": [],
      "stateMutability": "nonpayable",
      "type": "function"
    },
    {
      "inputs": [
        {
          "internalType": "uint256",
          "name": "_itemID",
          "type": "uint256"
        }
      ],
      "name": "Retailing",
      "outputs": [],
      "stateMutability": "nonpayable",
      "type": "function"
    },
    {
      "inputs": [
        {
          "internalType": "uint256",
          "name": "_itemID",
          "type": "uint256"
        }
      ],
      "name": "sold",
      "outputs": [],
      "stateMutability": "nonpayable",
      "type": "function"
    },
    {
      "inputs": [
        {
          "internalType": "uint256",
          "name": "_itemID",
          "type": "uint256"
        }
      ],
      "name": "info",
      "outputs": [
        {
          "internalType": "uint256",
          "name": "id",
          "type": "uint256"
        },
        {
          "internalType": "string",
          "name": "name",
          "type": "string"
        },
        {
          "internalType": "string",
          "name": "categories",
          "type": "string"
        },
        {
          "internalType": "string",
          "name": "brand",
          "type": "string"
        },
        {
          "internalType": "string",
          "name": "origin",
          "type": "string"
        },
        {
          "internalType": "string",
          "name": "nutritionInfo",
          "type": "string"
        },
        {
          "internalType": "uint256",
          "name": "farmerId",
          "type": "uint256"
        },
        {
          "internalType": "uint256",
          "name": "manufacturerId",
          "type": "uint256"
        },
        {
          "internalType": "uint256",
          "name": "distributorId",
          "type": "uint256"
        },
        {
          "internalType": "uint256",
          "name": "retailerId",
          "type": "uint256"
        },
        {
          "internalType": "enum SupplyChain.PHASE",
          "name": "chronology",
          "type": "uint8"
        }
      ],
      "stateMutability": "view",
      "type": "function",
      "constant": true
    }
  ],
  "bytecode": "0x60806040526000600155600060025560006003556000600455600060055534801561002957600080fd5b50336000806101000a81548173ffffffffffffffffffffffffffffffffffffffff021916908373ffffffffffffffffffffffffffffffffffffffff160217905550612e10806100796000396000f3fe608060405234801561001057600080fd5b506004361061014d5760003560e01c80634ffa689c116100c3578063bd45b3971161007c578063bd45b397146103b5578063be0c6f1c146103d3578063c5ce360a146103f1578063cb179b8c14610424578063de0ab25e14610440578063e2c03ace146104705761014d565b80634ffa689c146102f65780636234bde914610329578063933089db146103455780639c03facb14610361578063a48d335a1461037d578063ad4ea0fb146103995761014d565b8063286a34f411610115578063286a34f4146102155780632e340599146102315780633ac140e81461026b578063408fbb2b146102895780634508bd5c146102bc57806347c16a7f146102d85761014d565b806316b426041461015257806318bee97e1461016e5780631b6139301461018c57806320fd15f4146101a857806325b1dc27146101e2575b600080fd5b61016c600480360381019061016791906126d7565b61048e565b005b610176610615565b6040516101839190612771565b60405180910390f35b6101a660048036038101906101a191906127c2565b610639565b005b6101c260048036038101906101bd91906127c2565b610720565b6040516101d99b9a999897969594939291906128fd565b60405180910390f35b6101fc60048036038101906101f791906127c2565b610a2f565b60405161020c94939291906129cb565b60405180910390f35b61022f600480360381019061022a9190612a1e565b610b8f565b005b61024b600480360381019061024691906127c2565b610de8565b6040516102629b9a999897969594939291906128fd565b60405180910390f35b6102736111eb565b6040516102809190612b25565b60405180910390f35b6102a3600480360381019061029e91906127c2565b6111f1565b6040516102b394939291906129cb565b60405180910390f35b6102d660048036038101906102d191906127c2565b611351565b005b6102e0611438565b6040516102ed9190612b25565b60405180910390f35b610310600480360381019061030b91906127c2565b61143e565b60405161032094939291906129cb565b60405180910390f35b610343600480360381019061033e91906126d7565b61159e565b005b61035f600480360381019061035a91906126d7565b611725565b005b61037b600480360381019061037691906127c2565b6118ac565b005b610397600480360381019061039291906127c2565b61199a565b005b6103b360048036038101906103ae91906126d7565b611a81565b005b6103bd611c08565b6040516103ca9190612b25565b60405180910390f35b6103db611c0e565b6040516103e89190612b25565b60405180910390f35b61040b600480360381019061040691906127c2565b611c14565b60405161041b94939291906129cb565b60405180910390f35b61043e600480360381019061043991906127c2565b611d74565b005b61045a600480360381019061045591906127c2565b611e5b565b6040516104679190612b40565b60405180910390f35b61047861215e565b6040516104859190612b25565b60405180910390f35b60008054906101000a900473ffffffffffffffffffffffffffffffffffffffff1673ffffffffffffffffffffffffffffffffffffffff163373ffffffffffffffffffffffffffffffffffffffff161461051c576040517f08c379a000000000000000000000000000000000000000000000000000000000815260040161051390612bae565b60405180910390fd5b6003600081548092919061052f90612bfd565b919050555060405180608001604052808473ffffffffffffffffffffffffffffffffffffffff16815260200160035481526020018381526020018281525060086000600354815260200190815260200160002060008201518160000160006101000a81548173ffffffffffffffffffffffffffffffffffffffff021916908373ffffffffffffffffffffffffffffffffffffffff1602179055506020820151816001015560408201518160020190805190602001906105ef92919061247c565b50606082015181600301908051906020019061060c92919061247c565b50905050505050565b60008054906101000a900473ffffffffffffffffffffffffffffffffffffffff1681565b60008111801561064b57506001548111155b61065457600080fd5b600061065f33612164565b90506000811161066e57600080fd5b6002600581111561068257610681612886565b5b60066000848152602001908152602001600020600a0160009054906101000a900460ff1660058111156106b8576106b7612886565b5b146106c257600080fd5b806006600084815260200190815260200160002060080181905550600360066000848152602001908152602001600020600a0160006101000a81548160ff0219169083600581111561071757610716612886565b5b02179055505050565b600660205280600052604060002060009150905080600001549080600101805461074990612c74565b80601f016020809104026020016040519081016040528092919081815260200182805461077590612c74565b80156107c25780601f10610797576101008083540402835291602001916107c2565b820191906000526020600020905b8154815290600101906020018083116107a557829003601f168201915b5050505050908060020180546107d790612c74565b80601f016020809104026020016040519081016040528092919081815260200182805461080390612c74565b80156108505780601f1061082557610100808354040283529160200191610850565b820191906000526020600020905b81548152906001019060200180831161083357829003601f168201915b50505050509080600301805461086590612c74565b80601f016020809104026020016040519081016040528092919081815260200182805461089190612c74565b80156108de5780601f106108b3576101008083540402835291602001916108de565b820191906000526020600020905b8154815290600101906020018083116108c157829003601f168201915b5050505050908060040180546108f390612c74565b80601f016020809104026020016040519081016040528092919081815260200182805461091f90612c74565b801561096c5780601f106109415761010080835404028352916020019161096c565b820191906000526020600020905b81548152906001019060200180831161094f57829003601f168201915b50505050509080600501805461098190612c74565b80601f01602080910402602001604051908101604052809291908181526020018280546109ad90612c74565b80156109fa5780601f106109cf576101008083540402835291602001916109fa565b820191906000526020600020905b8154815290600101906020018083116109dd57829003601f168201915b50505050509080600601549080600701549080600801549080600901549080600a0160009054906101000a900460ff1690508b565b60086020528060005260406000206000915090508060000160009054906101000a900473ffffffffffffffffffffffffffffffffffffffff1690806001015490806002018054610a7e90612c74565b80601f0160208091040260200160405190810160405280929190818152602001828054610aaa90612c74565b8015610af75780601f10610acc57610100808354040283529160200191610af7565b820191906000526020600020905b815481529060010190602001808311610ada57829003601f168201915b505050505090806003018054610b0c90612c74565b80601f0160208091040260200160405190810160405280929190818152602001828054610b3890612c74565b8015610b855780601f10610b5a57610100808354040283529160200191610b85565b820191906000526020600020905b815481529060010190602001808311610b6857829003601f168201915b5050505050905084565b60008054906101000a900473ffffffffffffffffffffffffffffffffffffffff1673ffffffffffffffffffffffffffffffffffffffff163373ffffffffffffffffffffffffffffffffffffffff1614610c1d576040517f08c379a0000000000000000000000000000000000000000000000000000000008152600401610c1490612bae565b60405180910390fd5b6000600254118015610c3157506000600354115b8015610c3f57506000600454115b8015610c4d57506000600554115b610c5657600080fd5b60016000815480929190610c6990612bfd565b919050555060405180610160016040528060015481526020018681526020018581526020018481526020018381526020018281526020016000815260200160008152602001600081526020016000815260200160006005811115610cd057610ccf612886565b5b815250600660006001548152602001908152602001600020600082015181600001556020820151816001019080519060200190610d0e92919061247c565b506040820151816002019080519060200190610d2b92919061247c565b506060820151816003019080519060200190610d4892919061247c565b506080820151816004019080519060200190610d6592919061247c565b5060a0820151816005019080519060200190610d8292919061247c565b5060c0820151816006015560e082015181600701556101008201518160080155610120820151816009015561014082015181600a0160006101000a81548160ff02191690836005811115610dd957610dd8612886565b5b02179055509050505050505050565b600060608060608060606000806000806000808c118015610e0b57506001548c11155b610e1457600080fd5b600660008d8152602001908152602001600020600001549a50600660008d81526020019081526020016000206001018054610e4e90612c74565b80601f0160208091040260200160405190810160405280929190818152602001828054610e7a90612c74565b8015610ec75780601f10610e9c57610100808354040283529160200191610ec7565b820191906000526020600020905b815481529060010190602001808311610eaa57829003601f168201915b50505050509950600660008d81526020019081526020016000206002018054610eef90612c74565b80601f0160208091040260200160405190810160405280929190818152602001828054610f1b90612c74565b8015610f685780601f10610f3d57610100808354040283529160200191610f68565b820191906000526020600020905b815481529060010190602001808311610f4b57829003601f168201915b50505050509850600660008d81526020019081526020016000206003018054610f9090612c74565b80601f0160208091040260200160405190810160405280929190818152602001828054610fbc90612c74565b80156110095780601f10610fde57610100808354040283529160200191611009565b820191906000526020600020905b815481529060010190602001808311610fec57829003601f168201915b50505050509750600660008d8152602001908152602001600020600401805461103190612c74565b80601f016020809104026020016040519081016040528092919081815260200182805461105d90612c74565b80156110aa5780601f1061107f576101008083540402835291602001916110aa565b820191906000526020600020905b81548152906001019060200180831161108d57829003601f168201915b50505050509650600660008d815260200190815260200160002060050180546110d290612c74565b80601f01602080910402602001604051908101604052809291908181526020018280546110fe90612c74565b801561114b5780601f106111205761010080835404028352916020019161114b565b820191906000526020600020905b81548152906001019060200180831161112e57829003601f168201915b50505050509550600660008d8152602001908152602001600020600601549450600660008d8152602001908152602001600020600701549350600660008d8152602001908152602001600020600801549250600660008d8152602001908152602001600020600901549150600660008d8152602001908152602001600020600a0160009054906101000a900460ff16905091939597999b90929496989a50565b60045481565b60096020528060005260406000206000915090508060000160009054906101000a900473ffffffffffffffffffffffffffffffffffffffff169080600101549080600201805461124090612c74565b80601f016020809104026020016040519081016040528092919081815260200182805461126c90612c74565b80156112b95780601f1061128e576101008083540402835291602001916112b9565b820191906000526020600020905b81548152906001019060200180831161129c57829003601f168201915b5050505050908060030180546112ce90612c74565b80601f01602080910402602001604051908101604052809291908181526020018280546112fa90612c74565b80156113475780601f1061131c57610100808354040283529160200191611347565b820191906000526020600020905b81548152906001019060200180831161132a57829003601f168201915b5050505050905084565b60008111801561136357506001548111155b61136c57600080fd5b60006113773361222a565b90506000811161138657600080fd5b6003600581111561139a57611399612886565b5b60066000848152602001908152602001600020600a0160009054906101000a900460ff1660058111156113d0576113cf612886565b5b146113da57600080fd5b806006600084815260200190815260200160002060090181905550600460066000848152602001908152602001600020600a0160006101000a81548160ff0219169083600581111561142f5761142e612886565b5b02179055505050565b60055481565b60076020528060005260406000206000915090508060000160009054906101000a900473ffffffffffffffffffffffffffffffffffffffff169080600101549080600201805461148d90612c74565b80601f01602080910402602001604051908101604052809291908181526020018280546114b990612c74565b80156115065780601f106114db57610100808354040283529160200191611506565b820191906000526020600020905b8154815290600101906020018083116114e957829003601f168201915b50505050509080600301805461151b90612c74565b80601f016020809104026020016040519081016040528092919081815260200182805461154790612c74565b80156115945780601f1061156957610100808354040283529160200191611594565b820191906000526020600020905b81548152906001019060200180831161157757829003601f168201915b5050505050905084565b60008054906101000a900473ffffffffffffffffffffffffffffffffffffffff1673ffffffffffffffffffffffffffffffffffffffff163373ffffffffffffffffffffffffffffffffffffffff161461162c576040517f08c379a000000000000000000000000000000000000000000000000000000000815260040161162390612bae565b60405180910390fd5b6004600081548092919061163f90612bfd565b919050555060405180608001604052808473ffffffffffffffffffffffffffffffffffffffff16815260200160045481526020018381526020018281525060096000600454815260200190815260200160002060008201518160000160006101000a81548173ffffffffffffffffffffffffffffffffffffffff021916908373ffffffffffffffffffffffffffffffffffffffff1602179055506020820151816001015560408201518160020190805190602001906116ff92919061247c565b50606082015181600301908051906020019061171c92919061247c565b50905050505050565b60008054906101000a900473ffffffffffffffffffffffffffffffffffffffff1673ffffffffffffffffffffffffffffffffffffffff163373ffffffffffffffffffffffffffffffffffffffff16146117b3576040517f08c379a00000000000000000000000000000000000000000000000000000000081526004016117aa90612bae565b60405180910390fd5b600560008154809291906117c690612bfd565b919050555060405180608001604052808473ffffffffffffffffffffffffffffffffffffffff168152602001600554815260200183815260200182815250600a6000600554815260200190815260200160002060008201518160000160006101000a81548173ffffffffffffffffffffffffffffffffffffffff021916908373ffffffffffffffffffffffffffffffffffffffff16021790555060208201518160010155604082015181600201908051906020019061188692919061247c565b5060608201518160030190805190602001906118a392919061247c565b50905050505050565b6000811180156118be57506001548111155b6118c757600080fd5b60006118d23361222a565b9050600081116118e157600080fd5b6006600083815260200190815260200160002060090154811461190357600080fd5b6004600581111561191757611916612886565b5b60066000848152602001908152602001600020600a0160009054906101000a900460ff16600581111561194d5761194c612886565b5b1461195757600080fd5b600560066000848152602001908152602001600020600a0160006101000a81548160ff0219169083600581111561199157611990612886565b5b02179055505050565b6000811180156119ac57506001548111155b6119b557600080fd5b60006119c0336122f0565b9050600081116119cf57600080fd5b600160058111156119e3576119e2612886565b5b60066000848152602001908152602001600020600a0160009054906101000a900460ff166005811115611a1957611a18612886565b5b14611a2357600080fd5b806006600084815260200190815260200160002060070181905550600260066000848152602001908152602001600020600a0160006101000a81548160ff02191690836005811115611a7857611a77612886565b5b02179055505050565b60008054906101000a900473ffffffffffffffffffffffffffffffffffffffff1673ffffffffffffffffffffffffffffffffffffffff163373ffffffffffffffffffffffffffffffffffffffff1614611b0f576040517f08c379a0000000000000000000000000000000000000000000000000000000008152600401611b0690612bae565b60405180910390fd5b60026000815480929190611b2290612bfd565b919050555060405180608001604052808473ffffffffffffffffffffffffffffffffffffffff16815260200160025481526020018381526020018281525060076000600254815260200190815260200160002060008201518160000160006101000a81548173ffffffffffffffffffffffffffffffffffffffff021916908373ffffffffffffffffffffffffffffffffffffffff160217905550602082015181600101556040820151816002019080519060200190611be292919061247c565b506060820151816003019080519060200190611bff92919061247c565b50905050505050565b60025481565b60035481565b600a6020528060005260406000206000915090508060000160009054906101000a900473ffffffffffffffffffffffffffffffffffffffff1690806001015490806002018054611c6390612c74565b80601f0160208091040260200160405190810160405280929190818152602001828054611c8f90612c74565b8015611cdc5780601f10611cb157610100808354040283529160200191611cdc565b820191906000526020600020905b815481529060010190602001808311611cbf57829003601f168201915b505050505090806003018054611cf190612c74565b80601f0160208091040260200160405190810160405280929190818152602001828054611d1d90612c74565b8015611d6a5780601f10611d3f57610100808354040283529160200191611d6a565b820191906000526020600020905b815481529060010190602001808311611d4d57829003601f168201915b5050505050905084565b600081118015611d8657506001548111155b611d8f57600080fd5b6000611d9a336123b6565b905060008111611da957600080fd5b60006005811115611dbd57611dbc612886565b5b60066000848152602001908152602001600020600a0160009054906101000a900460ff166005811115611df357611df2612886565b5b14611dfd57600080fd5b806006600084815260200190815260200160002060060181905550600160066000848152602001908152602001600020600a0160006101000a81548160ff02191690836005811115611e5257611e51612886565b5b02179055505050565b606060008211611e6a57600080fd5b60006005811115611e7e57611e7d612886565b5b60066000848152602001908152602001600020600a0160009054906101000a900460ff166005811115611eb457611eb3612886565b5b03611ed957604051806060016040528060408152602001612d58604091399050612159565b60016005811115611eed57611eec612886565b5b60066000848152602001908152602001600020600a0160009054906101000a900460ff166005811115611f2357611f22612886565b5b03611f48576040518060800160405280604f8152602001612ca6604f91399050612159565b60026005811115611f5c57611f5b612886565b5b60066000848152602001908152602001600020600a0160009054906101000a900460ff166005811115611f9257611f91612886565b5b03611fb757604051806080016040528060438152602001612d98604391399050612159565b60036005811115611fcb57611fca612886565b5b60066000848152602001908152602001600020600a0160009054906101000a900460ff16600581111561200157612000612886565b5b0361202657604051806080016040528060428152602001612d16604291399050612159565b6004600581111561203a57612039612886565b5b60066000848152602001908152602001600020600a0160009054906101000a900460ff1660058111156120705761206f612886565b5b0361209557604051806060016040528060218152602001612cf5602191399050612159565b6005808111156120a8576120a7612886565b5b60066000848152602001908152602001600020600a0160009054906101000a900460ff1660058111156120de576120dd612886565b5b03612120576040518060400160405280601a81526020017f596f7572206974656d20697320616c726561647920736f6c642e0000000000008152509050612159565b6040518060400160405280601781526020017f556e6b6e6f776e206974656d206368726f6e6f6c6f677900000000000000000081525090505b919050565b60015481565b6000806004541161217457600080fd5b6000600190505b600454811161221f578273ffffffffffffffffffffffffffffffffffffffff166009600083815260200190815260200160002060000160009054906101000a900473ffffffffffffffffffffffffffffffffffffffff1673ffffffffffffffffffffffffffffffffffffffff160361220c576009600082815260200190815260200160002060010154915050612225565b808061221790612bfd565b91505061217b565b50600090505b919050565b6000806005541161223a57600080fd5b6000600190505b60055481116122e5578273ffffffffffffffffffffffffffffffffffffffff16600a600083815260200190815260200160002060000160009054906101000a900473ffffffffffffffffffffffffffffffffffffffff1673ffffffffffffffffffffffffffffffffffffffff16036122d257600a6000828152602001908152602001600020600101549150506122eb565b80806122dd90612bfd565b915050612241565b50600090505b919050565b6000806003541161230057600080fd5b6000600190505b60035481116123ab578273ffffffffffffffffffffffffffffffffffffffff166008600083815260200190815260200160002060000160009054906101000a900473ffffffffffffffffffffffffffffffffffffffff1673ffffffffffffffffffffffffffffffffffffffff16036123985760086000828152602001908152602001600020600101549150506123b1565b80806123a390612bfd565b915050612307565b50600090505b919050565b600080600254116123c657600080fd5b6000600190505b6002548111612471578273ffffffffffffffffffffffffffffffffffffffff166007600083815260200190815260200160002060000160009054906101000a900473ffffffffffffffffffffffffffffffffffffffff1673ffffffffffffffffffffffffffffffffffffffff160361245e576007600082815260200190815260200160002060010154915050612477565b808061246990612bfd565b9150506123cd565b50600090505b919050565b82805461248890612c74565b90600052602060002090601f0160209004810192826124aa57600085556124f1565b82601f106124c357805160ff19168380011785556124f1565b828001600101855582156124f1579182015b828111156124f05782518255916020019190600101906124d5565b5b5090506124fe9190612502565b5090565b5b8082111561251b576000816000905550600101612503565b5090565b6000604051905090565b600080fd5b600080fd5b600073ffffffffffffffffffffffffffffffffffffffff82169050919050565b600061255e82612533565b9050919050565b61256e81612553565b811461257957600080fd5b50565b60008135905061258b81612565565b92915050565b600080fd5b600080fd5b6000601f19601f8301169050919050565b7f4e487b7100000000000000000000000000000000000000000000000000000000600052604160045260246000fd5b6125e48261259b565b810181811067ffffffffffffffff82111715612603576126026125ac565b5b80604052505050565b600061261661251f565b905061262282826125db565b919050565b600067ffffffffffffffff821115612642576126416125ac565b5b61264b8261259b565b9050602081019050919050565b82818337600083830152505050565b600061267a61267584612627565b61260c565b90508281526020810184848401111561269657612695612596565b5b6126a1848285612658565b509392505050565b600082601f8301126126be576126bd612591565b5b81356126ce848260208601612667565b91505092915050565b6000806000606084860312156126f0576126ef612529565b5b60006126fe8682870161257c565b935050602084013567ffffffffffffffff81111561271f5761271e61252e565b5b61272b868287016126a9565b925050604084013567ffffffffffffffff81111561274c5761274b61252e565b5b612758868287016126a9565b9150509250925092565b61276b81612553565b82525050565b60006020820190506127866000830184612762565b92915050565b6000819050919050565b61279f8161278c565b81146127aa57600080fd5b50565b6000813590506127bc81612796565b92915050565b6000602082840312156127d8576127d7612529565b5b60006127e6848285016127ad565b91505092915050565b6127f88161278c565b82525050565b600081519050919050565b600082825260208201905092915050565b60005b8381101561283857808201518184015260208101905061281d565b83811115612847576000848401525b50505050565b6000612858826127fe565b6128628185612809565b935061287281856020860161281a565b61287b8161259b565b840191505092915050565b7f4e487b7100000000000000000000000000000000000000000000000000000000600052602160045260246000fd5b600681106128c6576128c5612886565b5b50565b60008190506128d7826128b5565b919050565b60006128e7826128c9565b9050919050565b6128f7816128dc565b82525050565b600061016082019050612913600083018e6127ef565b8181036020830152612925818d61284d565b90508181036040830152612939818c61284d565b9050818103606083015261294d818b61284d565b90508181036080830152612961818a61284d565b905081810360a0830152612975818961284d565b905061298460c08301886127ef565b61299160e08301876127ef565b61299f6101008301866127ef565b6129ad6101208301856127ef565b6129bb6101408301846128ee565b9c9b505050505050505050505050565b60006080820190506129e06000830187612762565b6129ed60208301866127ef565b81810360408301526129ff818561284d565b90508181036060830152612a13818461284d565b905095945050505050565b600080600080600060a08688031215612a3a57612a39612529565b5b600086013567ffffffffffffffff811115612a5857612a5761252e565b5b612a64888289016126a9565b955050602086013567ffffffffffffffff811115612a8557612a8461252e565b5b612a91888289016126a9565b945050604086013567ffffffffffffffff811115612ab257612ab161252e565b5b612abe888289016126a9565b935050606086013567ffffffffffffffff811115612adf57612ade61252e565b5b612aeb888289016126a9565b925050608086013567ffffffffffffffff811115612b0c57612b0b61252e565b5b612b18888289016126a9565b9150509295509295909350565b6000602082019050612b3a60008301846127ef565b92915050565b60006020820190508181036000830152612b5a818461284d565b905092915050565b7f4e6f74206f776e65720000000000000000000000000000000000000000000000600082015250565b6000612b98600983612809565b9150612ba382612b62565b602082019050919050565b60006020820190508181036000830152612bc781612b8b565b9050919050565b7f4e487b7100000000000000000000000000000000000000000000000000000000600052601160045260246000fd5b6000612c088261278c565b91507fffffffffffffffffffffffffffffffffffffffffffffffffffffffffffffffff8203612c3a57612c39612bce565b5b600182019050919050565b7f4e487b7100000000000000000000000000000000000000000000000000000000600052602260045260246000fd5b60006002820490506001821680612c8c57607f821691505b602082108103612c9f57612c9e612c45565b5b5091905056fe596f7572206974656d206973206265696e6720636f6c6c656374656420627920746865206661726d6572732e20506c65617365207761697420666f7220667572746865722070726f6365737365732e596f7572206974656d20697320736166656c79206174207468652073746f72652e596f7572206974656d206973206265696e672064697374726962757465642e20506c65617365207761697420666f7220667572746865722070726f6365737365732e596f7572206974656d20697320616c7265616479204f7264657265642e20506c65617365207761697420666f7220667572746865722070726f6365737365732e596f7572206974656d206973206265696e67206d616e7566616374757265642e20506c65617365207761697420666f7220667572746865722070726f6365737365732ea2646970667358221220815d3c236eabb1b5868d4dcdb7d12ce0489a00ab6091064c85574f322903e52364736f6c634300080d0033",
  "immutableReferences": {},
  "source": "// SPDX-License-Identifier: MIT\npragma solidity >=0.4.22 <0.9.0;\n\ncontract SupplyChain {\n\n     address public Creator;  // msg.sender - whoever deploy this contract (creator)\n\n     constructor(){\n        Creator = msg.sender;\n    }\n\n    /* MODIFIER\n      \n      Notes: https://solidity-by-example.org/function-modifier/\n\n      - Let's say that there's a lot of function that we want it to be only can be access by Owner\n\n      - Normaly we add this line:\n        require(msg.sender == owner, \"Sender is not owner!\");\n\n      - However, we dont want this line to be in all function right?\n\n      - That's where Modifier comes in.\n\n\n      The \" _; \"\n      - If you put it under, it will tell the function to do the modifier first\n      - If you put it above, it will tell the function to do the function first \n       */\n    modifier onlyCreator() {   // This modifier is to esatblish certain function that can only be run by Creator\n        require(msg.sender == Creator , \"Not owner\");  \n        _;\n    }\n\n    /* Supply Chain Flow\n\n            Farmer ---> Manufacturer ---> Distributor --> Retailer\n\n\n        Farmer       - This is where the Manufacturer get their raw material \n\n        Manufacturer - Several manufacture will process the raw material \n\n        Distributor  - This is where we distribute the processed item to numerous store\n\n        Supermarket  - Jaya Grocer for example will receive the processed item from the distributor and will be sold\n                       in the store \n\n\n        Objectives:\n\n        - Develop decentralized food supply chain management that implementing blockchain technology, smart contract and consensus algorithm \n          which could monitor food quality and safety resulting in improvement on traceability, transparency of food products.       \n\n        - Enable real-time surveillance and monitoring of food product, providing stakeholder with accurate information about quality, \n          safety and origin of the product.\n\n\n        3 Functions:\n        - Register each flow\n        - Adding items to the chain\n        - Track the items                   \n\n     */\n\n    \n    // Establish count for each flow \n    uint256 public itemsCount = 0;\n    uint256 public farmerCount = 0;\n    uint256 public manufacturerCount = 0;\n    uint256 public distributorCount = 0;\n    uint256 public retailerCount = 0;\n\n\n    \n\n     /* ENUM\n        \n        Notes: https://solidity-by-example.org/enum/\n\n        - Enum is user-defined data type that allows you to define a set of named values. \n        - Enums are often used when you have a fixed set of values that a variable can take.\n\n        - Let's say you're making a game about different animals. \n        - You might want to keep track of what kind of animal a player has chosen. \n        - You could use an enum to do this. \n\n        Example: \n\n        contract AnimalGame {\n            enum Animal { Dog, Cat, Bird, Fish }\n\n            Animal public player1Choice;\n            Animal public player2Choice;\n\n            function player1ChooseDog() public {\n                player1Choice = Animal.Dog;\n            }\n\n            function player1ChooseCat() public {\n                player1Choice = Animal.Cat;\n            }\n\n            function player2ChooseBird() public {\n                player2Choice = Animal.Bird;\n            }\n\n            function player2ChooseFish() public {\n                player2Choice = Animal.Fish;\n            }\n        }\n\n        - In this example, we have a game where two players can choose between four different animals: Dog, Cat, Bird, and Fish. We use an enum called Animal to define these options.\n\n        - The AnimalGame contract has two variables, player1Choice and player2Choice, to keep track of the choices made by the players. \n        - We also have functions like player1ChooseDog, player1ChooseCat, player2ChooseBird, and player2ChooseFish to allow the players to make their choices.\n      */\n\n     /* PHASE\n        The Phase is going to be like this:-\n\n        Order ==> Farmer ==> Manufacturer ==> Distributor ==> Retailer ==> Sold\n\n        - 1) Item Ordered                     (Plugin)\n        - 2) Item are collected by Farmer     (Farmer)\n        - 3) Item are being manufactured      (Manufacturer)\n        - 4) Item are being Distribute        (Distribution)\n        - 5) Item are safely arrived at store (Retail)\n        - 6) Item sold                        (Sold)\n\n        */\n\n\n    \n    \n    enum PHASE {   \n        Plugin,\n        Farmer,\n        Manufacturer,\n        Distribution,\n        Retail,\n        Sold\n    }\n\n    \n    /* STRUCT \n\n        Notes: https://www.tutorialspoint.com/solidity/solidity_structs.htm\n\n        - Structs are used to group variables of different data types under a single name\n\n        - Struct also are used to represent a record\n\n        - Suppose you want to keep track of your books in a library. You might want to track the following attributes about each book\n\n        -> Title\n        -> Author\n        -> Subject\n        -> Book ID\n\n        struct Book { \n            string title;\n            string author;\n            string subject;\n            uint256 book_id;\n\n        }\n        mapping(uint256 => Book) public BookInfo;\n\n     */\n\n    struct items {\n\n        // Items Attributes\n        uint256 id;\n        string name;\n        string categories;\n        string brand;\n        string origin;\n        string nutritionInfo;\n\n        // Id of the Admin that going to process the items\n        uint256 farmerId;  \n        uint256 manufacturerId;\n        uint256 distributorId;\n        uint256 retailerId;\n\n        \n        PHASE chronology; // The item chronology\n    }\n\n    mapping(uint256 => items) public ItemsInfo;   //mapping is like you stuff everything into 1 variable.\n\n\n    function Chronology(\n        uint256 _itemID\n    ) public view returns (string memory) {\n\n        require(_itemID > 0);  // Ensure that the provided item ID is valid (greater than 0) well which is you have to order item first\n\n        // Check the current phase of the item using its ID\n        if (ItemsInfo[_itemID].chronology == PHASE.Plugin)\n            return \"Your item is already Ordered. Please wait for further processes.\";\n        else if (ItemsInfo[_itemID].chronology == PHASE.Farmer)\n            return \"Your item is being collected by the farmers. Please wait for further processes.\";     \n        else if (ItemsInfo[_itemID].chronology == PHASE.Manufacturer)\n            return \"Your item is being manufactured. Please wait for further processes.\";  \n        else if (ItemsInfo[_itemID].chronology == PHASE.Distribution)\n            return \"Your item is being distributed. Please wait for further processes.\";  \n        else if (ItemsInfo[_itemID].chronology == PHASE.Retail)\n            return \"Your item is safely at the store.\";  \n        else if (ItemsInfo[_itemID].chronology == PHASE.Sold)\n            return \"Your item is already sold.\";  \n\n        return \"Unknown item chronology\";\n    }\n\n\n    /* MAPPING\n\n        Notes: https://www.tutorialspoint.com/solidity/solidity_mappings.htm\n\n        - It's like storing a state variable\n        - string items = \"meat\"\n\n        However, in this case we store a struct:\n\n            mapping(uint256 => farmer) public myFarmer\n\n        We store struct \"farmer\" into the myFarmer that will be used in the future\n\n     */\n\n\n    struct farmer {\n        address addr;\n        uint256 id;\n        string name; \n        string location; \n    }\n\n    mapping(uint256 => farmer) public farmerInfo;  // You can call this variable and it'll show all the admin's attributes\n\n\n    struct manufacturer {\n        address addr;\n        uint256 id;\n        string name; \n        string location; \n    }\n\n    mapping(uint256 => manufacturer) public manufacturerInfo;\n   \n\n    struct distributor {\n        address addr;\n        uint256 id;\n        string name; \n        string location;\n    }\n\n    mapping(uint256 => distributor) public distributorInfo;\n\n\n    struct retailer{\n        address addr;\n        uint256 id; \n        string name; \n        string location; \n    }\n\n    mapping(uint256 => retailer) public retailerInfo;\n\n\n\n    /*-----------------Register Each Flow----------------------\n     Farmer ---> Manufacturer ---> Distributor --> Retailer\n\n\n        Farmer       - This is where the Manufacturer get their raw material \n\n        Manufacturer - Several manufacture will process the raw material \n\n        Distributor  - This is where we distribute the processed item to numerous store\n\n        Supermarket  - Jaya Grocer for example will receive the processed item from the distributor and will be sold\n                       in the store \n\n\n\n        OnlyOwner:                       \n        - So the onlyOwner is to make sure only Owner can register the flow\n        - This ensure that the system is secure and being handled by authorize person\n\n        The count will increase. The Owner will register 3 attributes occupied with the flow.\n\n\n\n\n\n     */\n\n    /* Data Location\n\n        Notes: https://solidity-by-example.org/data-locations/\n\n        Variables are declared as either storage, memory or calldata to explicitly specify the location of the data.\n\n        storage  - variable is a state variable (store on blockchain)\n        memory   - variable is in memory and it exists while a function is being called\n        calldata - special data location that contains function arguments\n\n\n     */\n    /* Underscore in function's attributes\n\n        - In Solidity, using an underscore before a parameter name, like \"address _address\", \n          is a common convention to distinguish between function parameters and state variables. \n\n        - This convention helps avoid naming conflicts and makes the code more readable.\n     */\n\n\n    function regFarmer(\n        address _address,  // This is wallet address \n        string memory _name,  // Name of the farmer\n        string memory _location  // Where's the farmer based in?\n    ) public onlyCreator {  // Only creator/owner can register all the admin\n        farmerCount++;\n        farmerInfo[farmerCount] = farmer(_address, farmerCount, _name, _location);  // All this attributes will be stored in farmerInfo\n    }\n\n\n    function regManufacturer(\n        address _address,\n        string memory _name,\n        string memory _location\n    ) public onlyCreator {\n        manufacturerCount++;\n        manufacturerInfo[manufacturerCount] = manufacturer(_address, manufacturerCount, _name, _location);  // All this attributes will be stored in manufacturerInfo\n    }\n    \n\n\n    function regDistributor(\n        address _address,\n        string memory _name,\n        string memory _location\n    ) public onlyCreator {\n        distributorCount++;\n        distributorInfo[distributorCount] = distributor(_address, distributorCount, _name, _location); // All this attributes will be stored in distributorInfo\n    }\n\n     //To add retailer. Only contract owner can add a new retailer\n    function regRetailer(\n        address _address,\n        string memory _name,\n        string memory _location\n    ) public onlyCreator {\n        retailerCount++;\n        retailerInfo[retailerCount] = retailer(_address, retailerCount, _name, _location); // All this attributes will be stored in retailerInfo\n    }\n\n\n\n    /*-----------------Ordering----------------------\n      \n     So the function will going to consists with approximately 3 attributes (Well for now):\n        => Origin - Where this items come from\n        => Nutrition Information - net weight, how many carbs, fat, sodium , and etc\n        => Name - Mister Potato\n        => Brand - Mamee\n        => Categories - Snacks \n        => As well as the id of each flow since we going to track the\n           progress of food items through the supply chain.\n\n     function orderItems{\n        string name\n        string categories\n        string brand\n        string origin \n        string nutritionInfo\n    \n        uint256 id\n        uint256 farmerId\n        uint256 manufacturerId\n        uint256 distributorId\n        uint256 retailerId\n\n     }\n\n     struct items{\n         uint256 Id;\n         string name;\n         string categories;\n         string brand;\n         string origin;\n         string nutritionInfo;\n        \n         uint256 farmerId;\n         uint256 manufacturerId;\n         uint256 distributorId;\n         uint256 retailerId;\n         PHASE chronology;\n     } \n     */\n\n    function orderItems(\n        string memory _name,\n        string memory _categories,\n        string memory _brand,\n        string memory _origin,\n        string memory _nutritionInfo\n\n    ) public onlyCreator {\n        require((farmerCount > 0) && (manufacturerCount > 0) && (distributorCount > 0) && (retailerCount > 0));   // Before order, Creator have to register all the admin\n        itemsCount++;\n        ItemsInfo[itemsCount] = items(itemsCount, _name, _categories, _brand, _origin, _nutritionInfo, 0, 0, 0, 0, PHASE.Plugin); // All this attributes will be stored in ItemsInfo\n    }  \n\n\n\n    /*-----------------Administration------------------\n\n     Admin is where each admin of the flow establish the status of item.\n\n     Alright let's give an example:\n\n     - Let's say we already ordered an item. It PHASE would be \"Ordered\"\n     - So to change the PHASE from Ordered-to-Farmer, The farmer have to established the status of the item\n     - So Farmer will establish the item as their responsibility\n\n     The Flow is going to be like this:-\n\n     Farmer ==> Manufacturer ==> Distributor ==> Retailer \n\n     - 1) Item Ordered                     (Punch In)\n     - 2) Item are collected by Farmer     (Farmer)\n     - 3) Item are being manufactured      (Manufacturer)\n     - 4) Item are being Distribute        (Distribution)\n     - 5) Item are safely arrived at store (Retail)\n     - 6) Item sold                        (Sold)\n\n\n     */\n\n    \n\n\n    /* ----------------Tracking------------------\n      \n     The Flow is going to be like this:-\n\n     Farmer ==> Manufacturer ==> Distributor ==> Retailer \n    \n     We going to track the items through Supply Chain\n\n     uint256 public farmerCount = 0;\n     uint256 public manufacturerCount = 0;\n     uint256 public distributorCount = 0;\n     uint256 public retailerCount = 0;\n     uint256 public itemsCount = 0;\n\n     struct items{\n        uint256 Id;\n        string name;\n        string categories;\n        string brand;\n        string origin;\n        string nutritionInfo;\n\n        uint256 farmerId;\n        uint256 manufacturerId;\n        uint256 distributorId;\n        uint256 retailerId;\n        PHASE chronology;\n     } \n\n     enum PHASE{\n        Plugin,  \n        Farmer,\n        Manufacturer,\n        Distribution,\n        Retail,\n        Sold\n     }\n     */\n\n    // To change the flow from Ordered ==> Farmer\n    function Farmering(uint256 _itemID) public {\n        require(_itemID > 0 && _itemID <= itemsCount);          // Ensure that we already order an Item and  \n        uint256 _id = trackFarmer(msg.sender);                  // Get the ID of the calling farmer\n        require(_id > 0);                                       // Ensure the farmer ID is valid\n        require(ItemsInfo[_itemID].chronology == PHASE.Plugin); // Ensure the item is in the Plugin phase\n        ItemsInfo[_itemID].farmerId = _id;                      // Assign the farmer ID to the item\n        ItemsInfo[_itemID].chronology = PHASE.Farmer;           // Update the item's chronology to Farmer\n    }\n\n    // To track \n    function trackFarmer(address _address) private view returns (uint256) {\n        require(farmerCount > 0);                                       // Ensure that there is at least one registered farmer\n\n        for (uint256 i = 1; i <= farmerCount; i++) {\n            if (farmerInfo[i].addr == _address)   // Ensure that farmer's address same with the farmer's address that we registered \n            return farmerInfo[i].id;              // if all went well, it'll return ID\n        }\n        return 0;\n\n    }\n\n    // To change the flow from Farmer ==> Manufacturer\n    function Manufacturing(uint256 _itemID) public {\n        require(_itemID > 0 && _itemID <= itemsCount);\n        uint256 _id = trackManufacture(msg.sender);\n        require(_id > 0);\n        require(ItemsInfo[_itemID].chronology == PHASE.Farmer);\n        ItemsInfo[_itemID].manufacturerId = _id;\n        ItemsInfo[_itemID].chronology = PHASE.Manufacturer;\n    }\n\n    // To track \n    function trackManufacture(address _address) private view returns (uint256) {\n        require(manufacturerCount > 0);\n        for (uint256 i = 1; i <= manufacturerCount; i++) {\n            if (manufacturerInfo[i].addr == _address) \n            return manufacturerInfo[i].id;\n        }\n        return 0;\n    }\n\n\n\n    // To change the flow from Manufacturer ==> Distributor\n    function Distributing(uint256 _itemID) public {\n        require(_itemID > 0 && _itemID <= itemsCount);\n        uint256 _id = trackDistribution(msg.sender);\n        require(_id > 0);\n        require(ItemsInfo[_itemID].chronology == PHASE.Manufacturer);\n        ItemsInfo[_itemID].distributorId = _id;\n        ItemsInfo[_itemID].chronology = PHASE.Distribution;\n    }\n\n    // To track \n    function trackDistribution(address _address) private view returns (uint256) {\n        require(distributorCount > 0);\n        for (uint256 i = 1; i <= distributorCount; i++) {\n            if (distributorInfo[i].addr == _address) \n            return distributorInfo[i].id;\n        }\n        return 0;\n    }\n\n\n    // To change the flow from Distributor ==> Retail\n    function Retailing(uint256 _itemID) public {\n        require(_itemID > 0 && _itemID <= itemsCount);\n        uint256 _id = trackRetailer(msg.sender);\n        require(_id > 0);\n        require(ItemsInfo[_itemID].chronology == PHASE.Distribution);\n        ItemsInfo[_itemID].retailerId = _id;\n        ItemsInfo[_itemID].chronology = PHASE.Retail;\n    }\n\n    // To track \n    function trackRetailer(address _address) private view returns (uint256) {\n        require(retailerCount > 0);\n        for (uint256 i = 1; i <= retailerCount; i++) {\n            if (retailerInfo[i].addr == _address) \n            return retailerInfo[i].id;\n        }\n        return 0;\n    }\n\n    // To change the flow from Retail ==> Sold\n    function sold(uint256 _itemID) public {\n        require(_itemID > 0 && _itemID <= itemsCount);\n        uint256 _id = trackRetailer(msg.sender);\n        require(_id > 0);\n        require(_id == ItemsInfo[_itemID].retailerId); //Only correct retailer can mark medicine as sold\n        require(ItemsInfo[_itemID].chronology == PHASE.Retail);\n        ItemsInfo[_itemID].chronology = PHASE.Sold;\n    }\n\n\n    /* ----------------Item Information--------------------\n        - This section is to see the product information\n    */ \n\n    // To view the product information\n    function info(uint256 _itemID) public view returns (\n    uint256 id,\n    string memory name,\n    string memory categories,\n    string memory brand,\n    string memory origin,\n    string memory nutritionInfo,\n    uint256 farmerId,\n    uint256 manufacturerId,\n    uint256 distributorId,\n    uint256 retailerId,\n    PHASE chronology\n    ) {\n    require(_itemID > 0 && _itemID <= itemsCount);\n\n    // Retrieve information from the specified item\n    id = ItemsInfo[_itemID].id;\n    name = ItemsInfo[_itemID].name;\n    categories = ItemsInfo[_itemID].categories;\n    brand = ItemsInfo[_itemID].brand;\n    origin = ItemsInfo[_itemID].origin;\n    nutritionInfo = ItemsInfo[_itemID].nutritionInfo;\n    farmerId = ItemsInfo[_itemID].farmerId;\n    manufacturerId = ItemsInfo[_itemID].manufacturerId;\n    distributorId = ItemsInfo[_itemID].distributorId;\n    retailerId = ItemsInfo[_itemID].retailerId;\n    chronology = ItemsInfo[_itemID].chronology;\n    }\n\n}",
  "sourcePath": "/home/alifzwan/Documents/React/React-Supply-Chain/contracts/SupplyChain.sol",
  "compiler": {
    "name": "solc",
    "version": "0.8.13+commit.abaa5c0e.Emscripten.clang"
  },
  "schemaVersion": "3.4.16",
  "updatedAt": "2023-12-16T14:54:19.383Z",
  "networkType": "ethereum",
  "devdoc": {
    "kind": "dev",
    "methods": {},
    "version": 1
  },
  "userdoc": {
    "kind": "user",
    "methods": {},
    "version": 1
  }
}