{
  "contractName": "SupplyChain",
  "abi": [
    {
      "inputs": [],
      "stateMutability": "nonpayable",
      "type": "constructor"
    },
    {
      "inputs": [],
      "name": "Owner",
      "outputs": [
        {
          "internalType": "address",
          "name": "",
          "type": "address"
        }
      ],
      "stateMutability": "view",
      "type": "function",
      "constant": true
    },
    {
      "inputs": [],
      "name": "distributorCount",
      "outputs": [
        {
          "internalType": "uint256",
          "name": "",
          "type": "uint256"
        }
      ],
      "stateMutability": "view",
      "type": "function",
      "constant": true
    },
    {
      "inputs": [],
      "name": "farmerCount",
      "outputs": [
        {
          "internalType": "uint256",
          "name": "",
          "type": "uint256"
        }
      ],
      "stateMutability": "view",
      "type": "function",
      "constant": true
    },
    {
      "inputs": [],
      "name": "itemsCount",
      "outputs": [
        {
          "internalType": "uint256",
          "name": "",
          "type": "uint256"
        }
      ],
      "stateMutability": "view",
      "type": "function",
      "constant": true
    },
    {
      "inputs": [],
      "name": "manufacturerCount",
      "outputs": [
        {
          "internalType": "uint256",
          "name": "",
          "type": "uint256"
        }
      ],
      "stateMutability": "view",
      "type": "function",
      "constant": true
    },
    {
      "inputs": [
        {
          "internalType": "uint256",
          "name": "",
          "type": "uint256"
        }
      ],
      "name": "myDistributor",
      "outputs": [
        {
          "internalType": "uint256",
          "name": "id",
          "type": "uint256"
        },
        {
          "internalType": "address",
          "name": "accountAddress",
          "type": "address"
        },
        {
          "internalType": "string",
          "name": "distributorName",
          "type": "string"
        },
        {
          "internalType": "string",
          "name": "location",
          "type": "string"
        }
      ],
      "stateMutability": "view",
      "type": "function",
      "constant": true
    },
    {
      "inputs": [
        {
          "internalType": "uint256",
          "name": "",
          "type": "uint256"
        }
      ],
      "name": "myFarmer",
      "outputs": [
        {
          "internalType": "uint256",
          "name": "id",
          "type": "uint256"
        },
        {
          "internalType": "address",
          "name": "accountAddress",
          "type": "address"
        },
        {
          "internalType": "string",
          "name": "farmerName",
          "type": "string"
        },
        {
          "internalType": "string",
          "name": "location",
          "type": "string"
        }
      ],
      "stateMutability": "view",
      "type": "function",
      "constant": true
    },
    {
      "inputs": [
        {
          "internalType": "uint256",
          "name": "",
          "type": "uint256"
        }
      ],
      "name": "myItems",
      "outputs": [
        {
          "internalType": "uint256",
          "name": "id",
          "type": "uint256"
        },
        {
          "internalType": "string",
          "name": "name",
          "type": "string"
        },
        {
          "internalType": "string",
          "name": "categories",
          "type": "string"
        },
        {
          "internalType": "string",
          "name": "brand",
          "type": "string"
        },
        {
          "internalType": "string",
          "name": "origin",
          "type": "string"
        },
        {
          "internalType": "string",
          "name": "nutritionInfo",
          "type": "string"
        },
        {
          "internalType": "uint256",
          "name": "farmerId",
          "type": "uint256"
        },
        {
          "internalType": "uint256",
          "name": "manufacturerId",
          "type": "uint256"
        },
        {
          "internalType": "uint256",
          "name": "distributorId",
          "type": "uint256"
        },
        {
          "internalType": "uint256",
          "name": "retailerId",
          "type": "uint256"
        },
        {
          "internalType": "enum SupplyChain.PHASE",
          "name": "chronology",
          "type": "uint8"
        }
      ],
      "stateMutability": "view",
      "type": "function",
      "constant": true
    },
    {
      "inputs": [
        {
          "internalType": "uint256",
          "name": "",
          "type": "uint256"
        }
      ],
      "name": "myManufacturer",
      "outputs": [
        {
          "internalType": "uint256",
          "name": "id",
          "type": "uint256"
        },
        {
          "internalType": "address",
          "name": "accountAddress",
          "type": "address"
        },
        {
          "internalType": "string",
          "name": "manufacturerName",
          "type": "string"
        },
        {
          "internalType": "string",
          "name": "location",
          "type": "string"
        }
      ],
      "stateMutability": "view",
      "type": "function",
      "constant": true
    },
    {
      "inputs": [
        {
          "internalType": "uint256",
          "name": "",
          "type": "uint256"
        }
      ],
      "name": "myRetailer",
      "outputs": [
        {
          "internalType": "uint256",
          "name": "id",
          "type": "uint256"
        },
        {
          "internalType": "address",
          "name": "accountAddress",
          "type": "address"
        },
        {
          "internalType": "string",
          "name": "retailerName",
          "type": "string"
        },
        {
          "internalType": "string",
          "name": "location",
          "type": "string"
        }
      ],
      "stateMutability": "view",
      "type": "function",
      "constant": true
    },
    {
      "inputs": [],
      "name": "retailerCount",
      "outputs": [
        {
          "internalType": "uint256",
          "name": "",
          "type": "uint256"
        }
      ],
      "stateMutability": "view",
      "type": "function",
      "constant": true
    },
    {
      "inputs": [
        {
          "internalType": "uint256",
          "name": "itemID",
          "type": "uint256"
        }
      ],
      "name": "Chronology",
      "outputs": [
        {
          "internalType": "string",
          "name": "",
          "type": "string"
        }
      ],
      "stateMutability": "view",
      "type": "function",
      "constant": true
    },
    {
      "inputs": [
        {
          "internalType": "address",
          "name": "_account_Address",
          "type": "address"
        },
        {
          "internalType": "string",
          "name": "_farmName",
          "type": "string"
        },
        {
          "internalType": "string",
          "name": "_location",
          "type": "string"
        }
      ],
      "name": "regFarmer",
      "outputs": [],
      "stateMutability": "nonpayable",
      "type": "function"
    },
    {
      "inputs": [
        {
          "internalType": "address",
          "name": "_account_Address",
          "type": "address"
        },
        {
          "internalType": "string",
          "name": "_manufacturerName",
          "type": "string"
        },
        {
          "internalType": "string",
          "name": "_location",
          "type": "string"
        }
      ],
      "name": "regManufacturer",
      "outputs": [],
      "stateMutability": "nonpayable",
      "type": "function"
    },
    {
      "inputs": [
        {
          "internalType": "address",
          "name": "_account_Address",
          "type": "address"
        },
        {
          "internalType": "string",
          "name": "_distributorName",
          "type": "string"
        },
        {
          "internalType": "string",
          "name": "_location",
          "type": "string"
        }
      ],
      "name": "regDistributor",
      "outputs": [],
      "stateMutability": "nonpayable",
      "type": "function"
    },
    {
      "inputs": [
        {
          "internalType": "address",
          "name": "_account_Address",
          "type": "address"
        },
        {
          "internalType": "string",
          "name": "_retailerName",
          "type": "string"
        },
        {
          "internalType": "string",
          "name": "_location",
          "type": "string"
        }
      ],
      "name": "regRetailer",
      "outputs": [],
      "stateMutability": "nonpayable",
      "type": "function"
    },
    {
      "inputs": [
        {
          "internalType": "string",
          "name": "_name",
          "type": "string"
        },
        {
          "internalType": "string",
          "name": "_categories",
          "type": "string"
        },
        {
          "internalType": "string",
          "name": "_brand",
          "type": "string"
        },
        {
          "internalType": "string",
          "name": "_origin",
          "type": "string"
        },
        {
          "internalType": "string",
          "name": "_nutritionInfo",
          "type": "string"
        }
      ],
      "name": "orderItems",
      "outputs": [],
      "stateMutability": "nonpayable",
      "type": "function"
    },
    {
      "inputs": [
        {
          "internalType": "uint256",
          "name": "itemID",
          "type": "uint256"
        }
      ],
      "name": "Farmering",
      "outputs": [],
      "stateMutability": "nonpayable",
      "type": "function"
    },
    {
      "inputs": [
        {
          "internalType": "uint256",
          "name": "itemID",
          "type": "uint256"
        }
      ],
      "name": "Manufacturing",
      "outputs": [],
      "stateMutability": "nonpayable",
      "type": "function"
    },
    {
      "inputs": [
        {
          "internalType": "uint256",
          "name": "itemID",
          "type": "uint256"
        }
      ],
      "name": "Distributing",
      "outputs": [],
      "stateMutability": "nonpayable",
      "type": "function"
    },
    {
      "inputs": [
        {
          "internalType": "uint256",
          "name": "itemID",
          "type": "uint256"
        }
      ],
      "name": "Retailing",
      "outputs": [],
      "stateMutability": "nonpayable",
      "type": "function"
    },
    {
      "inputs": [
        {
          "internalType": "uint256",
          "name": "itemID",
          "type": "uint256"
        }
      ],
      "name": "Sold",
      "outputs": [],
      "stateMutability": "view",
      "type": "function",
      "constant": true
    }
  ],
  "bytecode": "0x60806040526000600155600060025560006003556000600455600060055534801561002957600080fd5b50336000806101000a81548173ffffffffffffffffffffffffffffffffffffffff021916908373ffffffffffffffffffffffffffffffffffffffff1602179055506129d6806100796000396000f3fe608060405234801561001057600080fd5b50600436106101425760003560e01c8063a48d335a116100b8578063cb179b8c1161007c578063cb179b8c1461033f578063d19e34b91461035b578063d22eb5a714610395578063de0ab25e146103c8578063e2c03ace146103f8578063f657fd471461041657610142565b8063a48d335a146102ad578063ad4ea0fb146102c9578063b4a99a4e146102e5578063bd45b39714610303578063be0c6f1c1461032157610142565b80634508bd5c1161010a5780634508bd5c146101ec57806347c16a7f1461020857806351c93033146102265780636234bde91461025957806392f64ca614610275578063933089db1461029157610142565b806316b42604146101475780631b613930146101635780631b7586121461017f578063286a34f4146101b25780633ac140e8146101ce575b600080fd5b610161600480360381019061015c919061229d565b610449565b005b61017d6004803603810190610178919061235e565b6105d0565b005b6101996004803603810190610194919061235e565b6106b7565b6040516101a99493929190612431565b60405180910390f35b6101cc60048036038101906101c79190612484565b610817565b005b6101d6610a70565b6040516101e3919061258b565b60405180910390f35b6102066004803603810190610201919061235e565b610a76565b005b610210610b5d565b60405161021d919061258b565b60405180910390f35b610240600480360381019061023b919061235e565b610b63565b6040516102509493929190612431565b60405180910390f35b610273600480360381019061026e919061229d565b610cc3565b005b61028f600480360381019061028a919061235e565b610e4a565b005b6102ab60048036038101906102a6919061229d565b610f44565b005b6102c760048036038101906102c2919061235e565b6110cb565b005b6102e360048036038101906102de919061229d565b6111b2565b005b6102ed611339565b6040516102fa91906125a6565b60405180910390f35b61030b61135d565b604051610318919061258b565b60405180910390f35b610329611363565b604051610336919061258b565b60405180910390f35b6103596004803603810190610354919061235e565b611369565b005b6103756004803603810190610370919061235e565b611450565b60405161038c9b9a99989796959493929190612638565b60405180910390f35b6103af60048036038101906103aa919061235e565b61175f565b6040516103bf9493929190612431565b60405180910390f35b6103e260048036038101906103dd919061235e565b6118bf565b6040516103ef9190612706565b60405180910390f35b610400611bc4565b60405161040d919061258b565b60405180910390f35b610430600480360381019061042b919061235e565b611bca565b6040516104409493929190612431565b60405180910390f35b60008054906101000a900473ffffffffffffffffffffffffffffffffffffffff1673ffffffffffffffffffffffffffffffffffffffff163373ffffffffffffffffffffffffffffffffffffffff16146104d7576040517f08c379a00000000000000000000000000000000000000000000000000000000081526004016104ce90612774565b60405180910390fd5b600260008154809291906104ea906127c3565b9190505550604051806080016040528060025481526020018473ffffffffffffffffffffffffffffffffffffffff168152602001838152602001828152506008600060025481526020019081526020016000206000820151816000015560208201518160010160006101000a81548173ffffffffffffffffffffffffffffffffffffffff021916908373ffffffffffffffffffffffffffffffffffffffff16021790555060408201518160020190805190602001906105aa929190612042565b5060608201518160030190805190602001906105c7929190612042565b50905050505050565b6000811180156105e257506005548111155b6105eb57600080fd5b60006105f633611d2a565b90506000811161060557600080fd5b60026005811115610619576106186125c1565b5b60066000848152602001908152602001600020600a0160009054906101000a900460ff16600581111561064f5761064e6125c1565b5b1461065957600080fd5b806006600084815260200190815260200160002060080181905550600360066000848152602001908152602001600020600a0160006101000a81548160ff021916908360058111156106ae576106ad6125c1565b5b02179055505050565b60086020528060005260406000206000915090508060000154908060010160009054906101000a900473ffffffffffffffffffffffffffffffffffffffff16908060020180546107069061283a565b80601f01602080910402602001604051908101604052809291908181526020018280546107329061283a565b801561077f5780601f106107545761010080835404028352916020019161077f565b820191906000526020600020905b81548152906001019060200180831161076257829003601f168201915b5050505050908060030180546107949061283a565b80601f01602080910402602001604051908101604052809291908181526020018280546107c09061283a565b801561080d5780601f106107e25761010080835404028352916020019161080d565b820191906000526020600020905b8154815290600101906020018083116107f057829003601f168201915b5050505050905084565b60008054906101000a900473ffffffffffffffffffffffffffffffffffffffff1673ffffffffffffffffffffffffffffffffffffffff163373ffffffffffffffffffffffffffffffffffffffff16146108a5576040517f08c379a000000000000000000000000000000000000000000000000000000000815260040161089c90612774565b60405180910390fd5b60006001541180156108b957506000600254115b80156108c757506000600354115b80156108d557506000600454115b6108de57600080fd5b600560008154809291906108f1906127c3565b919050555060405180610160016040528060055481526020018681526020018581526020018481526020018381526020018281526020016000815260200160008152602001600081526020016000815260200160006005811115610958576109576125c1565b5b815250600660006005548152602001908152602001600020600082015181600001556020820151816001019080519060200190610996929190612042565b5060408201518160020190805190602001906109b3929190612042565b5060608201518160030190805190602001906109d0929190612042565b5060808201518160040190805190602001906109ed929190612042565b5060a0820151816005019080519060200190610a0a929190612042565b5060c0820151816006015560e082015181600701556101008201518160080155610120820151816009015561014082015181600a0160006101000a81548160ff02191690836005811115610a6157610a606125c1565b5b02179055509050505050505050565b60035481565b600081118015610a8857506005548111155b610a9157600080fd5b6000610a9c33611df0565b905060008111610aab57600080fd5b60036005811115610abf57610abe6125c1565b5b60066000848152602001908152602001600020600a0160009054906101000a900460ff166005811115610af557610af46125c1565b5b14610aff57600080fd5b806006600084815260200190815260200160002060090181905550600460066000848152602001908152602001600020600a0160006101000a81548160ff02191690836005811115610b5457610b536125c1565b5b02179055505050565b60045481565b60076020528060005260406000206000915090508060000154908060010160009054906101000a900473ffffffffffffffffffffffffffffffffffffffff1690806002018054610bb29061283a565b80601f0160208091040260200160405190810160405280929190818152602001828054610bde9061283a565b8015610c2b5780601f10610c0057610100808354040283529160200191610c2b565b820191906000526020600020905b815481529060010190602001808311610c0e57829003601f168201915b505050505090806003018054610c409061283a565b80601f0160208091040260200160405190810160405280929190818152602001828054610c6c9061283a565b8015610cb95780601f10610c8e57610100808354040283529160200191610cb9565b820191906000526020600020905b815481529060010190602001808311610c9c57829003601f168201915b5050505050905084565b60008054906101000a900473ffffffffffffffffffffffffffffffffffffffff1673ffffffffffffffffffffffffffffffffffffffff163373ffffffffffffffffffffffffffffffffffffffff1614610d51576040517f08c379a0000000000000000000000000000000000000000000000000000000008152600401610d4890612774565b60405180910390fd5b60036000815480929190610d64906127c3565b9190505550604051806080016040528060035481526020018473ffffffffffffffffffffffffffffffffffffffff168152602001838152602001828152506009600060035481526020019081526020016000206000820151816000015560208201518160010160006101000a81548173ffffffffffffffffffffffffffffffffffffffff021916908373ffffffffffffffffffffffffffffffffffffffff1602179055506040820151816002019080519060200190610e24929190612042565b506060820151816003019080519060200190610e41929190612042565b50905050505050565b600081118015610e5c57506005548111155b610e6557600080fd5b6000610e7033611df0565b905060008111610e7f57600080fd5b60066000838152602001908152602001600020600901548114610ea157600080fd5b60046005811115610eb557610eb46125c1565b5b60066000848152602001908152602001600020600a0160009054906101000a900460ff166005811115610eeb57610eea6125c1565b5b14610ef557600080fd5b600580811115610f0857610f076125c1565b5b60066000848152602001908152602001600020600a0160009054906101000a900460ff166005811115610f3e57610f3d6125c1565b5b50505050565b60008054906101000a900473ffffffffffffffffffffffffffffffffffffffff1673ffffffffffffffffffffffffffffffffffffffff163373ffffffffffffffffffffffffffffffffffffffff1614610fd2576040517f08c379a0000000000000000000000000000000000000000000000000000000008152600401610fc990612774565b60405180910390fd5b60046000815480929190610fe5906127c3565b9190505550604051806080016040528060045481526020018473ffffffffffffffffffffffffffffffffffffffff16815260200183815260200182815250600a600060045481526020019081526020016000206000820151816000015560208201518160010160006101000a81548173ffffffffffffffffffffffffffffffffffffffff021916908373ffffffffffffffffffffffffffffffffffffffff16021790555060408201518160020190805190602001906110a5929190612042565b5060608201518160030190805190602001906110c2929190612042565b50905050505050565b6000811180156110dd57506005548111155b6110e657600080fd5b60006110f133611eb6565b90506000811161110057600080fd5b60016005811115611114576111136125c1565b5b60066000848152602001908152602001600020600a0160009054906101000a900460ff16600581111561114a576111496125c1565b5b1461115457600080fd5b806006600084815260200190815260200160002060070181905550600260066000848152602001908152602001600020600a0160006101000a81548160ff021916908360058111156111a9576111a86125c1565b5b02179055505050565b60008054906101000a900473ffffffffffffffffffffffffffffffffffffffff1673ffffffffffffffffffffffffffffffffffffffff163373ffffffffffffffffffffffffffffffffffffffff1614611240576040517f08c379a000000000000000000000000000000000000000000000000000000000815260040161123790612774565b60405180910390fd5b60016000815480929190611253906127c3565b9190505550604051806080016040528060015481526020018473ffffffffffffffffffffffffffffffffffffffff168152602001838152602001828152506007600060015481526020019081526020016000206000820151816000015560208201518160010160006101000a81548173ffffffffffffffffffffffffffffffffffffffff021916908373ffffffffffffffffffffffffffffffffffffffff1602179055506040820151816002019080519060200190611313929190612042565b506060820151816003019080519060200190611330929190612042565b50905050505050565b60008054906101000a900473ffffffffffffffffffffffffffffffffffffffff1681565b60015481565b60025481565b60008111801561137b57506005548111155b61138457600080fd5b600061138f33611f7c565b90506000811161139e57600080fd5b600060058111156113b2576113b16125c1565b5b60066000848152602001908152602001600020600a0160009054906101000a900460ff1660058111156113e8576113e76125c1565b5b146113f257600080fd5b806006600084815260200190815260200160002060060181905550600160066000848152602001908152602001600020600a0160006101000a81548160ff02191690836005811115611447576114466125c1565b5b02179055505050565b60066020528060005260406000206000915090508060000154908060010180546114799061283a565b80601f01602080910402602001604051908101604052809291908181526020018280546114a59061283a565b80156114f25780601f106114c7576101008083540402835291602001916114f2565b820191906000526020600020905b8154815290600101906020018083116114d557829003601f168201915b5050505050908060020180546115079061283a565b80601f01602080910402602001604051908101604052809291908181526020018280546115339061283a565b80156115805780601f1061155557610100808354040283529160200191611580565b820191906000526020600020905b81548152906001019060200180831161156357829003601f168201915b5050505050908060030180546115959061283a565b80601f01602080910402602001604051908101604052809291908181526020018280546115c19061283a565b801561160e5780601f106115e35761010080835404028352916020019161160e565b820191906000526020600020905b8154815290600101906020018083116115f157829003601f168201915b5050505050908060040180546116239061283a565b80601f016020809104026020016040519081016040528092919081815260200182805461164f9061283a565b801561169c5780601f106116715761010080835404028352916020019161169c565b820191906000526020600020905b81548152906001019060200180831161167f57829003601f168201915b5050505050908060050180546116b19061283a565b80601f01602080910402602001604051908101604052809291908181526020018280546116dd9061283a565b801561172a5780601f106116ff5761010080835404028352916020019161172a565b820191906000526020600020905b81548152906001019060200180831161170d57829003601f168201915b50505050509080600601549080600701549080600801549080600901549080600a0160009054906101000a900460ff1690508b565b600a6020528060005260406000206000915090508060000154908060010160009054906101000a900473ffffffffffffffffffffffffffffffffffffffff16908060020180546117ae9061283a565b80601f01602080910402602001604051908101604052809291908181526020018280546117da9061283a565b80156118275780601f106117fc57610100808354040283529160200191611827565b820191906000526020600020905b81548152906001019060200180831161180a57829003601f168201915b50505050509080600301805461183c9061283a565b80601f01602080910402602001604051908101604052809291908181526020018280546118689061283a565b80156118b55780601f1061188a576101008083540402835291602001916118b5565b820191906000526020600020905b81548152906001019060200180831161189857829003601f168201915b5050505050905084565b60606000600554116118d057600080fd5b600060058111156118e4576118e36125c1565b5b60066000848152602001908152602001600020600a0160009054906101000a900460ff16600581111561191a576119196125c1565b5b0361193f5760405180606001604052806040815260200161291e604091399050611bbf565b60016005811115611953576119526125c1565b5b60066000848152602001908152602001600020600a0160009054906101000a900460ff166005811115611989576119886125c1565b5b036119ae576040518060800160405280604f815260200161286c604f91399050611bbf565b600260058111156119c2576119c16125c1565b5b60066000848152602001908152602001600020600a0160009054906101000a900460ff1660058111156119f8576119f76125c1565b5b03611a1d5760405180608001604052806043815260200161295e604391399050611bbf565b60036005811115611a3157611a306125c1565b5b60066000848152602001908152602001600020600a0160009054906101000a900460ff166005811115611a6757611a666125c1565b5b03611a8c576040518060800160405280604281526020016128dc604291399050611bbf565b60046005811115611aa057611a9f6125c1565b5b60066000848152602001908152602001600020600a0160009054906101000a900460ff166005811115611ad657611ad56125c1565b5b03611afb576040518060600160405280602181526020016128bb602191399050611bbf565b600580811115611b0e57611b0d6125c1565b5b60066000848152602001908152602001600020600a0160009054906101000a900460ff166005811115611b4457611b436125c1565b5b03611b86576040518060400160405280601a81526020017f596f7572206974656d20697320616c726561647920736f6c642e0000000000008152509050611bbf565b6040518060400160405280601781526020017f556e6b6e6f776e206974656d206368726f6e6f6c6f677900000000000000000081525090505b919050565b60055481565b60096020528060005260406000206000915090508060000154908060010160009054906101000a900473ffffffffffffffffffffffffffffffffffffffff1690806002018054611c199061283a565b80601f0160208091040260200160405190810160405280929190818152602001828054611c459061283a565b8015611c925780601f10611c6757610100808354040283529160200191611c92565b820191906000526020600020905b815481529060010190602001808311611c7557829003601f168201915b505050505090806003018054611ca79061283a565b80601f0160208091040260200160405190810160405280929190818152602001828054611cd39061283a565b8015611d205780601f10611cf557610100808354040283529160200191611d20565b820191906000526020600020905b815481529060010190602001808311611d0357829003601f168201915b5050505050905084565b60008060035411611d3a57600080fd5b6000600190505b6003548111611de5578273ffffffffffffffffffffffffffffffffffffffff166009600083815260200190815260200160002060010160009054906101000a900473ffffffffffffffffffffffffffffffffffffffff1673ffffffffffffffffffffffffffffffffffffffff1603611dd2576009600082815260200190815260200160002060000154915050611deb565b8080611ddd906127c3565b915050611d41565b50600090505b919050565b60008060045411611e0057600080fd5b6000600190505b6004548111611eab578273ffffffffffffffffffffffffffffffffffffffff16600a600083815260200190815260200160002060010160009054906101000a900473ffffffffffffffffffffffffffffffffffffffff1673ffffffffffffffffffffffffffffffffffffffff1603611e9857600a600082815260200190815260200160002060000154915050611eb1565b8080611ea3906127c3565b915050611e07565b50600090505b919050565b60008060025411611ec657600080fd5b6000600190505b6002548111611f71578273ffffffffffffffffffffffffffffffffffffffff166008600083815260200190815260200160002060010160009054906101000a900473ffffffffffffffffffffffffffffffffffffffff1673ffffffffffffffffffffffffffffffffffffffff1603611f5e576008600082815260200190815260200160002060000154915050611f77565b8080611f69906127c3565b915050611ecd565b50600090505b919050565b60008060015411611f8c57600080fd5b6000600190505b6001548111612037578273ffffffffffffffffffffffffffffffffffffffff166007600083815260200190815260200160002060010160009054906101000a900473ffffffffffffffffffffffffffffffffffffffff1673ffffffffffffffffffffffffffffffffffffffff160361202457600760008281526020019081526020016000206000015491505061203d565b808061202f906127c3565b915050611f93565b50600090505b919050565b82805461204e9061283a565b90600052602060002090601f01602090048101928261207057600085556120b7565b82601f1061208957805160ff19168380011785556120b7565b828001600101855582156120b7579182015b828111156120b657825182559160200191906001019061209b565b5b5090506120c491906120c8565b5090565b5b808211156120e15760008160009055506001016120c9565b5090565b6000604051905090565b600080fd5b600080fd5b600073ffffffffffffffffffffffffffffffffffffffff82169050919050565b6000612124826120f9565b9050919050565b61213481612119565b811461213f57600080fd5b50565b6000813590506121518161212b565b92915050565b600080fd5b600080fd5b6000601f19601f8301169050919050565b7f4e487b7100000000000000000000000000000000000000000000000000000000600052604160045260246000fd5b6121aa82612161565b810181811067ffffffffffffffff821117156121c9576121c8612172565b5b80604052505050565b60006121dc6120e5565b90506121e882826121a1565b919050565b600067ffffffffffffffff82111561220857612207612172565b5b61221182612161565b9050602081019050919050565b82818337600083830152505050565b600061224061223b846121ed565b6121d2565b90508281526020810184848401111561225c5761225b61215c565b5b61226784828561221e565b509392505050565b600082601f83011261228457612283612157565b5b813561229484826020860161222d565b91505092915050565b6000806000606084860312156122b6576122b56120ef565b5b60006122c486828701612142565b935050602084013567ffffffffffffffff8111156122e5576122e46120f4565b5b6122f18682870161226f565b925050604084013567ffffffffffffffff811115612312576123116120f4565b5b61231e8682870161226f565b9150509250925092565b6000819050919050565b61233b81612328565b811461234657600080fd5b50565b60008135905061235881612332565b92915050565b600060208284031215612374576123736120ef565b5b600061238284828501612349565b91505092915050565b61239481612328565b82525050565b6123a381612119565b82525050565b600081519050919050565b600082825260208201905092915050565b60005b838110156123e35780820151818401526020810190506123c8565b838111156123f2576000848401525b50505050565b6000612403826123a9565b61240d81856123b4565b935061241d8185602086016123c5565b61242681612161565b840191505092915050565b6000608082019050612446600083018761238b565b612453602083018661239a565b818103604083015261246581856123f8565b9050818103606083015261247981846123f8565b905095945050505050565b600080600080600060a086880312156124a05761249f6120ef565b5b600086013567ffffffffffffffff8111156124be576124bd6120f4565b5b6124ca8882890161226f565b955050602086013567ffffffffffffffff8111156124eb576124ea6120f4565b5b6124f78882890161226f565b945050604086013567ffffffffffffffff811115612518576125176120f4565b5b6125248882890161226f565b935050606086013567ffffffffffffffff811115612545576125446120f4565b5b6125518882890161226f565b925050608086013567ffffffffffffffff811115612572576125716120f4565b5b61257e8882890161226f565b9150509295509295909350565b60006020820190506125a0600083018461238b565b92915050565b60006020820190506125bb600083018461239a565b92915050565b7f4e487b7100000000000000000000000000000000000000000000000000000000600052602160045260246000fd5b60068110612601576126006125c1565b5b50565b6000819050612612826125f0565b919050565b600061262282612604565b9050919050565b61263281612617565b82525050565b60006101608201905061264e600083018e61238b565b8181036020830152612660818d6123f8565b90508181036040830152612674818c6123f8565b90508181036060830152612688818b6123f8565b9050818103608083015261269c818a6123f8565b905081810360a08301526126b081896123f8565b90506126bf60c083018861238b565b6126cc60e083018761238b565b6126da61010083018661238b565b6126e861012083018561238b565b6126f6610140830184612629565b9c9b505050505050505050505050565b6000602082019050818103600083015261272081846123f8565b905092915050565b7f4e6f74206f776e65720000000000000000000000000000000000000000000000600082015250565b600061275e6009836123b4565b915061276982612728565b602082019050919050565b6000602082019050818103600083015261278d81612751565b9050919050565b7f4e487b7100000000000000000000000000000000000000000000000000000000600052601160045260246000fd5b60006127ce82612328565b91507fffffffffffffffffffffffffffffffffffffffffffffffffffffffffffffffff8203612800576127ff612794565b5b600182019050919050565b7f4e487b7100000000000000000000000000000000000000000000000000000000600052602260045260246000fd5b6000600282049050600182168061285257607f821691505b6020821081036128655761286461280b565b5b5091905056fe596f7572206974656d206973206265696e6720636f6c6c656374656420627920746865206661726d6572732e20506c65617365207761697420666f7220667572746865722070726f6365737365732e596f7572206974656d20697320736166656c79206174207468652073746f72652e596f7572206974656d206973206265696e672064697374727562757465642e20506c65617365207761697420666f7220667572746865722070726f6365737365732e596f7572206974656d20697320616c7265616479204f7264657265642e20506c65617365207761697420666f7220667572746865722070726f6365737365732e596f7572206974656d206973206265696e67206d616e7566616374757265642e20506c65617365207761697420666f7220667572746865722070726f6365737365732ea2646970667358221220c5ac26e1e0b1d643b7737acf25e23665cffbaa826797a7c846aad5fd37dbdc7f64736f6c634300080d0033",
  "immutableReferences": {},
  "source": "// SPDX-License-Identifier: MIT\npragma solidity >=0.4.22 <0.9.0;\n\ncontract SupplyChain{\n    address public Owner;\n\n    constructor() public {\n        Owner = msg.sender; // msg.sender - whoever deploy this contract (owner)\n    }\n\n\n    /* MODIFIER\n      \n      Notes: https://solidity-by-example.org/function-modifier/\n\n      - Let's say that there's a lot of function that we want it to be only can be access by Owner\n\n      - Normaly we add this line:\n        require(msg.sender == owner, \"Sender is not owner!\");\n\n      - However, we dont want this line to be in all function right?\n\n      - That's where Modifier comes in.\n\n\n      The \" _; \"\n      - If you put it under, it will tell the function to do the modifier first\n      - If you put it above, it will tell the function to do the function first \n       */\n\n    modifier onlyOwner(){\n        require(msg.sender == Owner, \"Not owner\");\n        _;      \n                \n    }\n   \n    /* Supply Chain Flow\n\n            Farmer ---> Manufacturer ---> Distributor --> Retailer\n\n\n        Farmer       - This is where the Manufacturer get their raw material \n\n        Manufacturer - Several manufacture will process the raw material \n\n        Distributor  - This is where we distribute the processed item to numerous store\n\n        Supermarket  - Jaya Grocer for example will receive the processed item from the distributor and will be sold\n                       in the store \n\n\n        Objectives:\n\n        - Develop decentralized food supply chain management that implementing blockchain technology, smart contract and consensus algorithm \n          which could monitor food quality and safety resulting in improvement on traceability, transparency of food products.       \n\n        - Enable real-time surveillance and monitoring of food product, providing stakeholder with accurate information about quality, \n          safety and origin of the product.\n\n\n        3 Functions:\n        - Register each flow\n        - Adding items to the chain\n        - Track the items                   \n\n     */\n\n    /* STRUCT \n\n        Notes: https://www.tutorialspoint.com/solidity/solidity_structs.htm\n    \n        - Struct types are used to represent a record\n\n        - Suppose you want to keep track of your books in a library. You might want to track the following attributes about each book\n\n        -> Title\n        -> Author\n        -> Subject\n        -> Book ID\n\n        struct Book { \n            string title;\n            string author;\n            string subject;\n            uint256 book_id;\n\n        }\n\n     */\n\n\n    \n    // Establish count for each flow \n    uint256 public farmerCount = 0;\n    uint256 public manufacturerCount = 0;\n    uint256 public distributorCount = 0;\n    uint256 public retailerCount = 0;\n    uint256 public itemsCount = 0;\n    \n    /* ENUM\n        \n        Notes: https://solidity-by-example.org/enum/\n\n        - Enum is user-defined data type that allows you to define a set of named values. \n\n        - Let's say you're making a game about different animals. You might want to keep track of what kind of animal a player has chosen. You could use an enum to do this. \n\n        Example: \n\n        contract AnimalGame {\n            enum Animal { Dog, Cat, Bird, Fish }\n\n            Animal public player1Choice;\n            Animal public player2Choice;\n\n            function player1ChooseDog() public {\n                player1Choice = Animal.Dog;\n            }\n\n            function player1ChooseCat() public {\n                player1Choice = Animal.Cat;\n            }\n\n            function player2ChooseBird() public {\n                player2Choice = Animal.Bird;\n            }\n\n            function player2ChooseFish() public {\n                player2Choice = Animal.Fish;\n            }\n        }\n\n        - In this example, we have a game where two players can choose between four different animals: Dog, Cat, Bird, and Fish. We use an enum called Animal to define these options.\n\n        - The AnimalGame contract has two variables, player1Choice and player2Choice, to keep track of the choices made by the players. \n        - We also have functions like player1ChooseDog, player1ChooseCat, player2ChooseBird, and player2ChooseFish to allow the players to make their choices.\n    */\n    enum PHASE{\n        Plugin,\n        Farmer,\n        Manufacturer,\n        Distribution,\n        Retail,\n        Sold\n    }\n    \n    struct items{\n        uint256 id;\n        string name;\n        string categories;\n        string brand;\n        string origin;\n        string nutritionInfo;\n\n        uint256 farmerId;\n        uint256 manufacturerId;\n        uint256 distributorId;\n        uint256 retailerId;\n        PHASE chronology;\n    } \n\n    mapping(uint256 => items) public myItems;\n\n\n    function Chronology(\n        uint256 itemID\n    ) public view returns (string memory){\n        require(itemsCount > 0);\n        if(myItems[itemID].chronology == PHASE.Plugin)\n            return \"Your item is already Ordered. Please wait for further processes.\";\n        if(myItems[itemID].chronology == PHASE.Farmer)     \n            return \"Your item is being collected by the farmers. Please wait for further processes.\";     \n        if(myItems[itemID].chronology == PHASE.Manufacturer)            \n            return \"Your item is being manufactured. Please wait for further processes.\";  \n        if(myItems[itemID].chronology == PHASE.Distribution)            \n            return \"Your item is being distrubuted. Please wait for further processes.\";  \n        if(myItems[itemID].chronology == PHASE.Retail)            \n            return \"Your item is safely at the store.\";  \n        if(myItems[itemID].chronology == PHASE.Sold)            \n            return \"Your item is already sold.\";  \n\n        return \"Unknown item chronology\";\n    }\n\n    /* MAPPING\n\n        Notes: https://www.tutorialspoint.com/solidity/solidity_mappings.htm\n\n        - It's like storing a state variable\n        - string items = \"meat\"\n\n        However, in this case we store a struct:\n\n            mapping(uint256 => farmer) public myFarmer\n\n        We store struct \"farmer\" into the myFarmer that will be used in the future\n\n     */\n\n\n\n    struct farmer{\n        uint256 id;\n        address accountAddress;\n        string farmerName;\n        string location;\n    }\n\n    \n    mapping(uint256 => farmer) public myFarmer;\n\n\n    struct manufacturer{\n        uint256 id;\n        address accountAddress;\n        string manufacturerName;\n        string location;\n    }\n\n    mapping(uint256 => manufacturer) public myManufacturer;\n\n\n    struct distributor{\n        uint256 id;\n        address accountAddress;\n        string distributorName;\n        string location;\n    }\n\n    mapping(uint256 => distributor) public myDistributor;\n\n\n    struct retailer{\n        uint256 id;\n        address accountAddress;\n        string retailerName;\n        string location;\n    }\n\n    mapping(uint256 => retailer) public myRetailer;\n\n    /*-----------------Register Each Flow----------------------\n     Farmer ---> Manufacturer ---> Distributor --> Retailer\n\n\n        Farmer       - This is where the Manufacturer get their raw material \n\n        Manufacturer - Several manufacture will process the raw material \n\n        Distributor  - This is where we distribute the processed item to numerous store\n\n        Supermarket  - Jaya Grocer for example will receive the processed item from the distributor and will be sold\n                       in the store \n\n\n\n        OnlyOwner:                       \n        - So the onlyOwner is to make sure only Owner can register the flow\n        - This ensure that the system is secure and being handled by authorize person\n\n        // The count will increase. The Owner will register 3 attributes occupied with the flow.\n     */\n    /* Data Location\n\n        Notes: https://solidity-by-example.org/data-locations/\n\n        Variables are declared as either storage, memory or calldata to explicitly specify the location of the data.\n\n        storage  - variable is a state variable (store on blockchain)\n        memory   - variable is in memory and it exists while a function is being called\n        calldata - special data location that contains function arguments\n\n\n     */\n    function regFarmer(\n        address _account_Address,    // This is wallet address \n        string memory _farmName,\n        string memory _location\n    )public onlyOwner{\n        farmerCount++;\n        myFarmer[farmerCount] = farmer(farmerCount, _account_Address, _farmName, _location);\n    }\n        \n\n    function regManufacturer(\n        address _account_Address,\n        string memory _manufacturerName,\n        string memory _location\n    )public onlyOwner{\n        manufacturerCount++;\n        myManufacturer[manufacturerCount] = manufacturer(manufacturerCount, _account_Address, _manufacturerName, _location);\n     }\n        \n    \n    function regDistributor(\n        address _account_Address,\n        string memory _distributorName,\n        string memory _location\n    )public onlyOwner{\n         distributorCount++;\n         myDistributor[distributorCount] = distributor(distributorCount, _account_Address, _distributorName, _location);\n    }\n       \n\n    function regRetailer(\n        address _account_Address,\n        string memory _retailerName,\n        string memory _location\n    )public onlyOwner{\n        retailerCount++;\n        myRetailer[retailerCount] = retailer(retailerCount, _account_Address, _retailerName, _location);\n    }\n\n\n    /*-----------------Ordering----------------------\n      \n     So the function will going to consists with approximately 3 attributes (Well for now):\n        => Origin - Where this items come from\n        => Nutrition Information - net weight, how many carbs, fat, sodium , and etc\n        => Name - Mister Potato\n        => Brand - Mamee\n        => Categories - Snacks \n        => As well as the id of each flow since we going to track the\n           progress of food items through the supply chain.\n\n     function orderItems{\n        string name\n        string categories\n        string brand\n        string origin \n        string nutritionInfo\n    \n        uint256 id\n        uint256 farmerId\n        uint256 manufacturerId\n        uint256 distributorId\n        uint256 retailerId\n\n     }\n\n     struct items{\n         uint256 Id;\n         string name;\n         string categories;\n         string brand;\n         string origin;\n         string nutritionInfo;\n        \n         uint256 farmerId;\n         uint256 manufacturerId;\n         uint256 distributorId;\n         uint256 retailerId;\n         PHASE chronology;\n     } \n     */\n     \n\n    function orderItems(\n        string memory _name,\n        string memory _categories,\n        string memory _brand,\n        string memory _origin, \n        string memory _nutritionInfo\n\n    )public onlyOwner{\n        require((farmerCount > 0) && (manufacturerCount > 0) && (distributorCount > 0) && (retailerCount > 0));\n        itemsCount++;\n        myItems[itemsCount] = items(itemsCount, _name, _categories, _brand, _origin, _nutritionInfo, 0, 0, 0, 0, PHASE.Plugin);\n\n\n    }\n    /* ----------------Tracking------------------\n    \n    The Flow is going to be like this:-\n\n    Farmer ==> Manufacturer ==> Distributor ==> Retailer \n    \n    We going to track the items through Supply Chain\n\n\n    uint256 public farmerCount = 0;\n    uint256 public manufacturerCount = 0;\n    uint256 public distributorCount = 0;\n    uint256 public retailerCount = 0;\n    uint256 public itemsCount = 0;\n\n    struct items{\n        uint256 Id;\n        string name;\n        string categories;\n        string brand;\n        string origin;\n        string nutritionInfo;\n\n        uint256 farmerId;\n        uint256 manufacturerId;\n        uint256 distributorId;\n        uint256 retailerId;\n        PHASE chronology;\n    } \n\n    enum PHASE{\n        Plugin,  \n        Farmer,\n        Manufacturer,\n        Distribution,\n        Retail,\n        Sold\n    }\n\n    */\n    \n    // To change the flow from Ordered ==> Farmer\n    function Farmering(uint256 itemID) public{\n        require (itemID > 0 && itemID <= itemsCount);  \n        uint256 _id = trackFarmer(msg.sender);\n        require(_id > 0);\n        require(myItems[itemID].chronology == PHASE.Plugin);\n        myItems[itemID].farmerId = _id;\n        myItems[itemID].chronology = PHASE.Farmer;\n\n    }\n\n    // To track \n    function trackFarmer(address _account_Address) private view returns (uint256){\n        require(farmerCount > 0);\n        for(uint256 i = 1; i <= farmerCount; i++){\n            if(myFarmer[i].accountAddress == _account_Address) return myFarmer[i].id;\n        }\n        return 0;\n    }\n\n\n\n    // To change the flow from Farmer ==> Manufacturer\n    function Manufacturing(uint256 itemID) public{\n        require (itemID > 0 && itemID <= itemsCount);  \n        uint256 _id = trackManufacture(msg.sender);\n        require(_id > 0);\n        require(myItems[itemID].chronology == PHASE.Farmer);\n        myItems[itemID].manufacturerId = _id;\n        myItems[itemID].chronology = PHASE.Manufacturer;\n\n    }\n\n    function trackManufacture(address _account_Address) private view returns (uint256){\n        require(manufacturerCount > 0);\n        for(uint256 i = 1; i <= manufacturerCount; i++){\n            if(myManufacturer[i].accountAddress == _account_Address) return myManufacturer[i].id;\n        }\n        return 0;\n    }\n\n    // To change the flow from Manufacturer ==> Distributor\n    function Distributing(uint256 itemID) public{\n        require (itemID > 0 && itemID <= itemsCount);  \n        uint256 _id = trackDistribution(msg.sender);\n        require(_id > 0);\n        require(myItems[itemID].chronology == PHASE.Manufacturer);\n        myItems[itemID].distributorId = _id;\n        myItems[itemID].chronology = PHASE.Distribution;\n\n    }\n\n    function trackDistribution(address _account_Address) private view returns (uint256){\n        require(distributorCount > 0);\n        for(uint256 i = 1; i <= distributorCount; i++){\n            if(myDistributor[i].accountAddress == _account_Address) return myDistributor[i].id;\n        }\n        return 0;\n    }\n\n    // To change the flow from Distributor ==> Retail\n    function Retailing(uint256 itemID) public{\n        require (itemID > 0 && itemID <= itemsCount);  \n        uint256 _id = trackRetailer(msg.sender);\n        require(_id > 0);\n        require(myItems[itemID].chronology == PHASE.Distribution);\n        myItems[itemID].retailerId = _id;\n        myItems[itemID].chronology = PHASE.Retail;\n\n    }\n\n    function trackRetailer(address _account_Address) private view returns (uint256){\n        require(retailerCount > 0);\n        for(uint256 i = 1; i <= retailerCount; i++){\n            if(myRetailer[i].accountAddress == _account_Address) return myRetailer[i].id;\n        }\n        return 0;\n    }\n\n\n    // To change the flow from Retail ==> Sold\n     function Sold(uint256 itemID) public view{\n        require (itemID > 0 && itemID <= itemsCount);  \n        uint256 _id = trackRetailer(msg.sender);\n        require(_id > 0);\n        require(_id == myItems[itemID].retailerId);\n        require(myItems[itemID].chronology == PHASE.Retail);\n        myItems[itemID].chronology == PHASE.Sold;\n\n    }\n}",
  "sourcePath": "/mnt/c/users/user/documents/workspace/solidity/supply-chain/React-Supply-Chain/contracts/SupplyChain.sol",
  "compiler": {
    "name": "solc",
    "version": "0.8.13+commit.abaa5c0e.Emscripten.clang"
  },
  "schemaVersion": "3.4.16",
  "updatedAt": "2023-11-06T17:19:56.752Z",
  "networkType": "ethereum",
  "devdoc": {
    "kind": "dev",
    "methods": {},
    "version": 1
  },
  "userdoc": {
    "kind": "user",
    "methods": {},
    "version": 1
  }
}